:03000000022513C3
:0800F800FFFF4457494E543547
:10251300759401759502758E0075930075C8707575
:10252300C96075F800787FE4F6D8FD75812002252F
:012533006F38
:100AF2007D28771A715E6BF166CD61EF5D5158F119
:100B020054CB50DC4D4C4996463943083FFF3D1EBD
:100B12003A6137C8354F32F530B82E982C912AA455
:100B220028CF2710256623D0224D20DD1F7E1E2FC1
:100B32001CEF1BBF1A9C1986187E1781168F15A9E8
:100B420014CC13FA1331127011B8110810600FBFD0
:100B52000F250E920DF40D7E0CFC0C810C0A0B98E5
:100B62000B2B0AC30A5E09FE09A2094A08F508A46A
:100B72000856080B07C3077E073B06FC06BE068421
:100B8200064B061505E005AE057E054F052204F766
:100B920004CE04A6047F045A0437041503F303D4D5
:100BA20003B50397037B035F0345032B031202FB89
:100BB20002E402CE02B802A3802079A573846DBA42
:100BC200684263165E345997553C511F4D3D499317
:100BD200461D42D93FC33CDA3A1A3780350B32B749
:100BE20030832E6D2C722A9028C527102529236860
:100BF20021C920471EE01D921C581B301A1A1914D5
:100C0200181A172C164B157314A413DD131F126830
:100C120011B8110F106C0FCF0F380EA60E1A0D93CC
:100C22000D120C950C1D0BAB0B3C0AD30A6E0A0D70
:100C320009B00957090308B20864081A07D40790D3
:100C4200074F071106D6069D063205FF05CE059F02
:100C520005710544051904EE04C4049A047104499B
:100C6200042003FF03DF03C003A30387036C0352C3
:100C720003390321030902F302DD02C902B402A10E
:100C82000003030601040602050003051F1C1F1EC4
:100C92001F1E1F1F1E1F1E1F00C1814001C0804159
:100CA20001C0804100C1814001C0804100C181403A
:100CB20000C1814001C0804101C0804100C181402A
:100CC20000C1814001C0804100C1814001C080411A
:100CD20001C0804100C1814001C0804100C181400A
:100CE20000C1814001C0804100C1814001C08041FA
:100CF20001C0804100C1814000C1814001C08041EA
:100D020001C0804100C1814001C0804100C18140D9
:100D120000C1814001C0804101C0804100C18140C9
:100D220000C1814001C0804100C1814001C08041B9
:100D320001C0804100C1814000C1814001C08041A9
:100D420001C0804100C1814001C0804100C1814099
:100D520000C1814001C0804100C1814001C0804189
:100D620001C0804100C1814001C0804100C1814079
:100D720000C1814001C0804101C0804100C1814069
:100D820000C1814001C0804100C1814001C0804159
:100D920001C0804100C1814000C0C101C30302C241
:100DA200C60607C705C5C404CC0C0DCD0FCFCE0EA9
:100DB2000ACACB0BC90908C8D81819D91BDBDA1A19
:100DC2001EDEDF1FDD1D1CDC14D4D515D71716D689
:100DD200D21213D311D1D010F03031F133F3F232F9
:100DE20036F6F737F53534F43CFCFD3DFF3F3EFE69
:100DF200FA3A3BFB39F9F83828E8E929EB2B2AEAD9
:100E0200EE2E2FEF2DEDEC2CE42425E527E7E62648
:100E120022E2E323E12120E0A06061A163A3A262B8
:100E220066A6A767A56564A46CACAD6DAF6F6EAE28
:100E3200AA6A6BAB69A9A86878B8B979BB7B7ABA98
:100E4200BE7E7FBF7DBDBC7CB47475B577B7B67608
:100E520072B2B373B17170B0509091519353529278
:100E620096565797559594549C5C5D9D5F9F9E5EE8
:100E72005A9A9B5B99595898884849894B8B8A4A58
:100E82004E8E8F4F8D4D4C8C4484854587474686C8
:100E92008242438341818040000302050003050131
:040EA200040602043C
:1022380047809C19011906000000020A00000208E4
:102248000000C10141810102418100014181220256
:102258004280B800DC42813100DCC18441809B01AE
:102268004180A3F74180CD074180CA0141809A008F
:102278004180FF00C1004280CB00004280980000EE
:102288004280A600004280960000C1035080EF0003
:1022980000000000000000000000000000000050E6
:1022A80080BA0000000000000000000000000000EC
:1022B80000004280520000428094000042812B00BE
:1022C8000042812D000042812F000042813300002E
:1022D80042812300004280A4000A468125000000B4
:1022E8000000004180EE00C10250800000000000A4
:1022F8000000000000000000000000004280100004
:0123080000D4
:1029A100C2AF75940175950275C960E4F5F875F9C2
:1029B10001F5A8F5B8F59A758911758CBC758ACDA4
:1029C100D2A9D28C75C870F5CDF5CC75CBBC75CAC2
:0929D100CD43A820D2C8D2AF22E8
:0A273E009080CDE0FF9080CAE0FD1E
:10274800908145EDF043B713D284C280C28175A74A
:102758008075AB80EF24FE601514601A14601F1496
:1027680060241460292405702D75AE2A800375AE87
:1027780015E4F5AF802675AE0A75AF80801E75AE7C
:102788000575AF40801675AE0275AFA0800E75AEA8
:102798000175AFC08006E4F5AE75AFE0D2BCD2BD1E
:0327A800D2AF228B
:0E2B890043BC1ED293C291C294C292D20422C7
:03000B00022909BE
:10290900C0E0C083C082C0D0C2AF758CBC758ACD0F
:102919000509E50970020508C394E8E50894034030
:1029290008750800750900D2019080FFE0D3940072
:102939004011E014F0E0700B90809AE0D3940040CD
:0E29490002D200D2AFD0D0D082D083D0E03204
:03002B00022B3F66
:102B3F00C0E0C2AFC2C6E50B450A6008E50B150B36
:092B4F007002150AD2AFD0E03289
:03006B0002280E5A
:0F280E00C0E0C083C082C0D075D000C006C00734
:10281D00C2AFE5AB30E034AFAD53ABFE90809AE084
:10282D00C394405010E0FE04F074122EF582E4348F
:10283D0080F583EFF09080FF7419F0C2009080CC8A
:0D284D00E004F070069080CBE004F0D2AF04
:0D285A00D007D006D0D0D082D083D0E0329D
:03006300022BC7A6
:062BC70053A7FEC2033219
:0B2BA5008E0A8F0BE50B450A70FA2228
:082BB0002003FDD2038FAC22CB
:102A1200908141EBF0A3EAF0A3E9F0D281AF051D6A
:102A2200EF6019908141E0FBA3E475F001120446C6
:102A3200A9F0FA120365FF122BB080E12003FDC258
:022A42008122EF
:062957007B017A80795437
:0E295D00908141EBF0A3EAF0A3E9F0A3EDF0C6
:10296B007FFF7DFF908144E0FE14F0EE60239081A9
:10297B0041E0FBA3E475F001120446A9F0FA12033F
:10298B00656FFE900C9A936DFFEE900D9A93FD8000
:05299B00D3EFFEEDFF8B
:0129A0002214
:101C3F00908145EEF0A3EFF0A3EBF0A3EAF0A3E958
:011C4F00F0A4
:101C5000908145E0FEA3E0FFE4FCFD7B02FAF9F889
:101C60001204FD90814C1205B0908145A3E054010F
:101C7000FB90814CE0FCA3E0FDA3E0FEA3E0FF7835
:101C80001012059D8FF190814CE0FCA3E0FDA3E0D4
:101C9000FEA3E0FF780812059D8FF290814CA3A36C
:101CA000A3E0FF8FF375F40175F8AFAF03EF604069
:101CB00030FCFDD2FE20FEFD908147E0FBA3E475E1
:101CC000F001120446A9F0FAE5FC1203AB9081473B
:101CD000E0FBA3E475F001120446A9F0FAE5FD1259
:101CE00003AB90814BE024FFF090814AE034FFF099
:101CF00090814AE0FCA3E0FDECC313FEED13FFED81
:101D000030E0050FBF00010EEF1FAC0670011E4C46
:101D10007003021DB390814BE030E038EF4E703419
:101D200030FCFDD2FE20FEFD908147E0FBA3E47570
:101D3000F001120446A9F0FAE5FA1203AB908147CC
:101D4000E0FBA3E475F001120446A9F0FAE5FB12EA
:101D500003AB805F30FCFDD2FE20FEFD908147E0AA
:101D6000FBA3E475F001120446A9F0FAE5FA1203A8
:101D7000AB908147E0FBA3E475F001120446A9F0A3
:101D8000FAE5FB1203AB908147E0FBA3E475F00199
:101D9000120446A9F0FAE5FC1203AB908147E0FB80
:101DA000A3E475F001120446A9F0FAE5FD1203ABB5
:061DB000021D08E4F5F835
:011DB600220A
:101A9A00908147EEF0A3EFF0A3EBF0A3EAF0A3E9FD
:011AAA00F04B
:101AAB00C2AF908147E0FEA3E0FFE4FCFD7B02FAAE
:101ABB00F9F81204FD90814E1205B0908147A3E016
:101ACB005401FB90814EE0FCA3E0FDA3E0FEA3E0FC
:101ADB00FF781012059D8FF190814EE0FCA3E0FD85
:101AEB00A3E0FEA3E0FF780812059D8FF290814ED4
:101AFB00A3A3A3E0FF8FF375F40175F88FAF03EF8A
:101B0B006054E4F5F475F8AF30FCFDD2FE20FEFD19
:101B1B0075F40175F88F30FCFD908149E0FBA3E46F
:101B2B0075F001120446A9F0FA120365F5FC9081D9
:101B3B0049E0FBA3E475F001120446A9F0FA120385
:101B4B0065F5FDD2FE20FEFD90814DE024FFF09067
:101B5B00814CE034FFF090814CE0FCA3E0FDECC342
:101B6B0013FEED13FFED30E0050FBF00010EEF1F6D
:101B7B00AC0670011E4C7003021C3990814DE03095
:101B8B00E04BEF4E7047F5F475F8AF30FCFDD2FE2D
:101B9B0020FEFD75F40175F88F30FCFD908149E056
:101BAB00FBA3E475F001120446A9F0FA120365F5E4
:101BBB00FA908149E0FBA3E475F001120446A9F009
:101BCB00FA120365F5FBD2FE30FE6380FB30FCFDA1
:101BDB00908149E0FBA3E475F001120446A9F0FAE9
:101BEB00120365F5FA908149E0FBA3E475F001124D
:101BFB000446A9F0FA120365F5FB908149E0FBA3BB
:101C0B00E475F001120446A9F0FA120365F5FC9095
:101C1B008149E0FBA3E475F001120446A9F0FA1226
:101C2B000365F5FDD2FE20FE03021B7980F8E4F577
:031C3B00F8D2AF2D
:011C3E002283
:052AE800FD7C007E20D2
:102AED00EC908145F0EDA3F07B017A8179459081E1
:092AFD004CE4F0A304F0021A9A63
:082AA100FF90813CE03400FECF
:102AA9007B017A81794390814AE4F0A304F0121CF6
:0B2AB9003F908143E0FEA3E0FDEDFF35
:012AC40022EF
:10214700908141EEF0A3EFF0C39420EE942040136A
:10215700908141E0FEA3E0FFD39457EE9420500313
:10216700022AA9908141E0FEA3E08EF01205ED213D
:10217700C2201021CE201121D3201221D8201321D3
:10218700DD201421E2201521E7201621EC20602113
:10219700F1206121F6206221FB20632200206422C6
:1021A700052065220E2066221D206722222070222C
:1021B700272071222C20720000223490809CE0247A
:1021C700D0FFE43407FE2290809D805C90809E8043
:1021D7005790809F80529080A0804D9080A180482A
:1021E7009080A28043908101803E90810080399049
:1021F700812280349081318008908131800C9080D9
:10220700B8E0FEA3E0FF229080B8E0FEA3E0FF7CE9
:10221700007D0A0203F190809B800D9080A38008C7
:102227009080CD80039080CAE0FF7E0022E4FEFF0D
:012237002284
:10135100908143ECF0A3EDF0908141EEF0A3EFF02A
:10136100C39420EE94204019908141E0FEA3E0FF58
:10137100D39457EE94205009A3E0FCA3E0FD02149E
:10138100D6908141E0FEA3E08EF01205ED13B2206C
:101391006013DB2061140D20621436206514852052
:1013A1006714AD207014DC20711505207200001542
:1013B10037908143E0FEA3E0FF64014E6009EF64D2
:1013C100024E6003021537908143E0FCA3E0FD90DB
:1013D1008101F07F607E200214D6908143E0FEA35C
:1013E100E0FFC39401EE94005003021537D3EF944C
:1013F10004EE94004003021537908143E0FCA3E022
:10140100FD908100F07F617E200214D6908143E03F
:10141100FEA3E0FF64014E6009EF64024E60030227
:101421001537908143E0FCA3E0FD908122F07F62BB
:101431007E200214D6908143E0FEA3E0FFC394A076
:10144100EE94005003021537D3EF9440EE9401401F
:1014510003021537908143E0FCA3E0FD9080B8ECD6
:10146100F0A3EDF07F657E20122AED908143E0FE2E
:10147100A3E0FF7C007D0A1203F1AC06AD077F6695
:101481007E208051908143E0FEA3E0FF64014E6025
:1014910009EF64024E6003021537908143E0FCA31B
:1014A100E0FD90809BF07F677E208029908143E062
:1014B100FEA3E0FFC39401EE9400407AD3EF94F7CA
:1014C100EE94005071908143E0FCA3E0FD9080A375
:1014D100F07F707E20122AED7F0122908143E0FE91
:1014E100A3E0FFC39401EE9400404BD3EF9407EEC9
:1014F10094005042908143E0FCA3E0FD9080CDF048
:101501007F718027908143E0FEA3E0FFC39401EE49
:1015110094004022D3EF9406EE9400501990814339
:10152100E0FCA3E0FD9080CAF07F727E20122AEDDC
:0915310012273E7F01227F0022F7
:0C27AB00908138E02FFF908137E03EFE67
:1027B700C3EF9410EE9420400CD3EF9416EE9420C0
:1027C70050037F0122C3EF9420EE9420400CD3EFF7
:1027D7009457EE942050037F0122C3EF9460EE9448
:1027E70020400CD3EF9467EE942050037F0122C35F
:1027F700EF9470EE9420400CD3EF9472EE94205037
:07280700037F01227F002284
:10061A009080CBE0FCA3E0FD7F807E20122AED9043
:10062A00809AE0FFC394045003020AEA7B017A80AD
:10063A007912EF24FEFD12295D90813DEEF0FCA3B4
:10064A00EFF0FD90809AE0FB2410F582E43480F507
:10065A0083E0FE74112BF582E43480F583E0FBEB32
:10066A006D7002EC6E601A9080A7E004F07006903C
:10067A0080A6E004F09080A6E0FCA3E0FD7F8280E3
:10068A0038908012E0FF908135F0908013E09081DD
:10069A0036F09080A3E0FEEF6E6026908135E06030
:1006AA0020908097E004F07006908096E004F09025
:1006BA008096E0FCA3E0FD7F837E20122AED020AE9
:1006CA00EA908099E004F07006908098E004F09037
:1006DA008098E0FCA3E0FD7F817E20122AED9081C4
:1006EA0036E024FA700302085724F670030208C59C
:1006FA00240D6003020A1290809AE0C39408500302
:10070A00020AEA908014E0FEA3E0FDEDFF90813733
:10071A00EEF0A3EFF0908016E0FEA3E0FDEDFF906F
:10072A008139EEF0A3EFF04E7003020AA1D3E094F0
:10073A007D908139E094004003020AA1E490813F50
:10074A00F090813FE0FF7E00D390813AE09F908154
:10075A0039E09E40111227ABEF7003020A5E9081C6
:10076A003FE004F080DB908135E0908054F0908186
:10077A0036E0908055F0908139A3E025E0908056CC
:10078A00F09081407403F0E490813FF090813FE063
:10079A00FF7E00D390813AE09F908139E09E4051DC
:1007AA00908138E02FFF908137E03EFE122147907A
:1007BA00813BEEF0A3EFF090813BE0FCA3E0FDEC7F
:1007CA00FF908140E0FE04F074542EF582E43480F8
:1007DA00F583EFF0AF05908140E0FE04F074542EEB
:1007EA00F582E43480F583EFF090813FE004F080F5
:1007FA009B7B017A807954908140E0FD12295D90BB
:10080A00813DEEF0A3EFF090813DE0FCA3E0FDEC2A
:10081A00FF908140E0FE04F074542EF582E43480A7
:10082A00F583EFF0AF05908140E0FE04F074542E9A
:10083A00F582E43480F583EFF0908135E0700302AD
:10084A000AEA7B017A807954908140806990809A83
:10085A00E0C394085003020AEA908014E0FEA3E081
:10086A00FDEDFF908137EEF0FCA3EFF0908016E0EB
:10087A00FEA3E0FBEBFF90813BEEF0A3EFF0AF05A8
:10088A00AE041227B7EF7003020A5E908137E0FECA
:10089A00A3E0FF90813BE0FCA3E0FD121351EF704F
:1008AA0003020AA1908135E07003020AEA7B017A09
:1008BA0080791290809AE0FD020AE790809AE0C35C
:1008CA0094095003020AEA908014E0FEA3E0FDEDC9
:1008DA00FF908137EEF0A3EFF0908016E0FEA3E0E0
:1008EA00FDEDFF908139EEF0A3EFF04E7003020A9E
:1008FA00A1908139E0FEA3E0FFD3947BEE940040FF
:10090A0003020AA1EF25E0FFEE33FEEF2409FFE41C
:10091A003EFE90809AE0C39FE49E5003020AEAE4F6
:10092A0090813FF090813FE0FF7E00D390813AE0D2
:10093A009F908139E09E40111227ABEF7003020AA3
:10094A005E90813FE004F080DBE490813FF090818B
:10095A003FE0F9FFD390813AE09F908139E094001B
:10096A00404590813FE0FD25E02419F582E434807A
:10097A00F583E0FEED25E0241AF582E43480F58360
:10098A00E0FDEDFF90813BEEF0FCA3EFF0E9FF9074
:10099A008138E02FFF908137E03400FE1213519026
:1009AA00813FE004F080A7908135E0908054F09078
:1009BA008136E0908055F0908014E0908056F09057
:1009CA008015E0908057F0908016E0908058F09063
:1009DA008017E0908059F07D0612295790813DEEEC
:1009EA00F0A3EFF090813DE0FCA3E0FDEC90805A8B
:1009FA00F0EDA3F0908135E07003020AEA7B017AF8
:100A0A008079547D08020AE7908135E0908054F09D
:100A1A00908136E04480908055F0A37401F0FB7A0F
:100A2A008079547D0312295D90813DEEF0A3EFF0A9
:100A3A0090813DE0FCA3E0FDEC908057F0EDA3F03F
:100A4A00908135E07003020AEA7B017A8079547D4D
:100A5A0005020AE7908135E0908054F0908136E0F3
:100A6A004480908055F0A37402F07D0312295790B8
:100A7A00813DEEF0A3EFF090813DE0FCA3E0FDECB8
:100A8A00908057F0EDA3F0908135E060537B017AB6
:100A9A008079547D058046908135E0908054F090AD
:100AAA008136E04480908055F0A37403F07B017A8C
:100ABA00807954FD12295D90813DEEF0A3EFF0900C
:100ACA00813DE0FCA3E0FDEC908057F0EDA3F090AF
:100ADA008135E0600B7B017A8079547D05122A12F8
:070AEA00E490809AF0C200C5
:010AF10022E2
:072BC000C291C294C29222EF
:0E2B9700300603D38001C39293A2069204225B
:102B7100122BC0EF24FE600A14600A24027008D2EE
:082B81009122D29422D292228B
:082BB800122BC0D206022B977C
:102A7600AB07AA067C017D901203F1ED4C7002D3E0
:102A8600227C007D64AF03AE021203F1ED4C7002AE
:0B2A9600C322EB54037002D322C322C2
:0B25B40090809CE0FFA3E0FDA3E0FB93
:1025BF00EF24D0FEE43407908142F0A3CEF0AF05B4
:1025CF00A3EFF0A3EBF0EFC39403500E908143E021
:1025DF0024FFF0908142E034FFF0908142E0FCA3B1
:1025EF00E0FDAE047802CEC313CE13D8F92DFBEC69
:1025FF003EFA908142E0FEA3E0FF7C007D6412036F
:10260F00F1C3EB9FFBEA9EFA908142E0FEA3E0FF4D
:10261F007C017D901203F1EF2BFFEE3AFEA3E090C9
:10262F000E99937C002FFFEC3EFE908145E02FFF2B
:10263F00EC3EFE7D071203F1ED4C70037F0722AFD6
:01264F000585
:012650002267
:102651009080A2E004F0E0C3943C406AE4F09080F2
:10266100A1E004F0E0943C405DE4F09080A0E0043F
:10267100F0E094184050E4F090809EE004F09080E7
:102681009DE0FF900C8D93F9EFB4021290809CE0D5
:1026910024D0FFE43407FE122A765002791D90807F
:1026A1009EE0D39940187401F090809DE004F0E021
:1026B100D3940C40097401F090809CE004F0122541
:0626C100B490809FEFF0D1
:0126C70022F0
:1018EB00E490813FF0A3F0A3F07F107E20122AA991
:1018FB00908135EEF0A3EFF07F117E20122AA99094
:10190B008137EEF0A3EFF07F127E20122AA990818F
:10191B0039EEF0A3EFF07F147E20122AA990813BC1
:10192B00EEF0A3EFF07F157E20122AA990813DEEF9
:10193B00F0A3EFF07F167E20122AA9AD07AC06901C
:10194B008135E0FEA3E0FFC394D0EE94074016D39D
:10195B00EF9434EE9408500DEF243090809CF0906F
:10196B00813F7401F0908137E0FEA3E0FFC39465E3
:10197B00EE94004011D3EF9470EE94005008EF24D6
:10198B009C90809D801D908137E0FEA3E0FFC39467
:10199B0001EE94004014D3EF940CEE9400500B9096
:1019AB00809DEFF09081407401F0908139E0FEA3AF
:1019BB00E0FFC39465EE94004011D3EF9483EE9453
:1019CB00005008EF249C90809E801D908139E0FE92
:1019DB00A3E0FFC39401EE94004014D3EF941FEEE9
:1019EB009400500B90809EEFF09081417401F09029
:1019FB00813BE0FEA3E0FFC39464EE94004012D35E
:101A0B00EF947BEE94005009EF249C9080A0F08023
:101A1B001590813BE0FEA3E0FFD39417EE940050AA
:101A2B00059080A0EFF090813DE0FEA3E0FFC39412
:101A3B0064EE94004012D3EF949FEE94005009EFA4
:101A4B00249C9080A1F0801590813DE0FEA3E0FFE7
:101A5B00D3943BEE940050059080A1EFF0C3ED942E
:101A6B0064EC94004012D3ED949FEC94005009ED7C
:101A7B00249C9080A2F0800ED3ED943BEC9400500C
:0E1A8B00059080A2EDF01225B490809FEFF040
:011A9900222A
:1024710090809EE0FFC394014008EFD3941F500267
:1024810080027F01908135EFF090809DE0FFC39441
:10249100014008EFD3940C500280027F01908136F5
:1024A100EFF090809CE024D0FDE43407FC7F107EA7
:1024B10020122AED908136E02464FDE433FC7F1183
:1024C1007E20122AED908135E02464FDE433FC7F07
:1024D100127E20122AED90809FE07F13122AE8904D
:1024E10080A0E02464FDE433FC7F147E20122AEDF9
:1024F1009080A1E02464FDE433FC7F157E20122A44
:10250100ED9080A2E02464FDE433FC7F167E20027E
:022511002AEDB1
:1023CC007F547E25122AA9EF4E700A9080A4F0A3A8
:1023DC007405F08021EF64014E9080A47007F0A387
:1023EC00740AF08011E4F0A3740AF07D017C007F84
:1023FC00547E25122AED7B017A81792590814AE45D
:10240C00F0A37403F07F507E25121C3F908125E0D1
:10241C00FEA3E0FFD39400EE64809480401CA3E004
:10242C00FCA3E0FDEC64809480400FED240AFDE4F5
:10243C003CFCEF6D7002EE6C602A908125E4F0A3F9
:10244C00740AF0E4A3F0A3F074F8A3F0A3F07B01FA
:10245C007A81792590814CE4F0A37403F07F507E4F
:04246C0025121A9A81
:012470002249
:102867007B017A80790090814AE4F0A37408F07FB5
:10287700327E00121C3F908000E0FEA3E0FF9080B4
:10288700F0E02FF09080EFE03EF090800CE0FEA3A8
:10289700E0FF9080FCE02FF09080FBE03EF090801E
:1028A7000EE0FEA3E0FF9080FEE02FF09080FDE0B9
:0228B7003EF0F1
:0128B90022FC
:04202D00AB07AA064D
:1020310090813E1205BC000000009081421205BC57
:10204100000000009080EFE0FEA3E0FFAD03AC02D2
:102051001203F19080BAEEF0A3EFF09080FBE0FE66
:10206100A3E0FFAD03AC021203F19080C6EEF0A332
:10207100EFF0AC02AD039080FDE0FEA3E0FF1203A0
:10208100F19080C8EEF0A3EFF0C39080C7E09FFD10
:102091009080C6E09EFCE41202ABC004C005C006FD
:1020A100C0079080C8E0FCA3E0FDE41202ABD003BE
:1020B100D002D001D00012020990813E1205B090E9
:1020C10080BAE0FEA3E0FFC39080C7E09FFD90804F
:1020D100C6E09EFCE41202ABC004C005C006C00706
:1020E1009080BAE0FCA3E0FDE41202ABD003D00281
:1020F100D001D0001202099081421205B07F007E0A
:10210100407D1C7C4690813EE0F8A3E0F9A3E0FA13
:10211100A3E0FB1201001202E4908052EEF0A3EF63
:10212100F07F007E407D1C7C46908142E0F8A3E078
:10213100F9A3E0FAA3E0FB1201001202E4908094FB
:05214100EEF0A3EFF039
:012146002276
:0E1DB70090813EEBF0A3EAF0A3E9F0A3EDF07B
:101DC500E4908144F0A3F0A3F0A3F09081457463FF
:101DD500F090813EE0FBA3E0FAA3E0F9908144E0B6
:101DE50075F002A4F58285F08312045CFF908142B0
:101DF500E0FCA3E0FDC39FEC95F04004A3E0FF22C7
:101E050090813EE0FBA3E0FAA3E0F9908145E075FF
:101E1500F002A4F58285F08312045CFFD3ED9FECFC
:101E250095F05006908145E0FF22908145E0FF90B6
:101E35008144E0FEC39F4003021EF0EFFDEE2DFF3F
:101E4500E433C313EF13908146F090813EE0FBA38A
:101E5500E0FAA3E0F9908146E075F002A4F58285E9
:101E6500F08312045CFFAEF0908142E0FCA3E0FD3C
:101E75006F7002EC6E6074C3ED9FEC9E50219081F3
:101E850046E02401FFE433FEEF25E0FFEE33FE8F4D
:101E9500828E8312045CFFD3ED9FEC95F0504C903D
:101EA500813EE0FBA3E0FAA3E0F9908146E075F0FE
:101EB50002A4F58285F08312045CFFD3908143E090
:101EC5009F908142E095F0908146E04006908145E3
:101ED500F08004908144F0908141E0FF908147E0DB
:101EE500FE04F0EED39F5003021E2F908145E0FFC4
:101EF500908144E0D39F40037F0022908146E0FF1C
:011F050022B9
:04230A00AB07AA066D
:10230E009081531205BC00000000200234E490813D
:10231E0052F0908152E0FFC394105019EF25E02443
:10232E00CEF582E43480F583EAF0A3EBF09081528F
:10233E00E004F080DDD202E49080EEF0AF03AE0256
:10234E0022AF039080EEE0FD25E024CEF582E4344A
:10235E0080F583EAF0A3EFF0ED04540F9080EEF0D9
:10236E00E4908152F0908153E0F8A3E0F9A3E0FAF3
:10237E00A3E0FB908152E025E024CEF582E4348088
:10238E00F583E0FEA3E0FFE4FCFDEB2FFFEA3EFE4B
:10239E00ED39FDEC38FC9081531205B0908152E07E
:1023AE0004F0E0B410BFE47B10FAF9F8908153E02A
:0D23BE00FCA3E0FDA3E0FEA3E0FF1204FD80
:0123CB0022EF
:0C153A00908135ECF0A3EDF0AB07AA06A1
:1015460090813A1205BC00000000D3908124E09BF4
:10155600908123E09A500302171C1228679080118D
:10156600E004F07006908010E004F0908135E0FE13
:10157600A3E0FFC3908011E09F908010E09E50038F
:1015860002171512202D9080C8E0FEA3E0FF908080
:10159600C6E0FCA3E0C39FFFEC9EFED3EF940AEEE9
:1015A60064809480501CE49080FDF0A3F09080FB52
:1015B600F0A3F09080EFF0A3F0908010F0A3F0027B
:1015C60017167BFF7A0A79F2908052E0FFA3E0902B
:1015D6008142CFF0A3EFF07D64121DB7908137EF03
:1015E600F0C3946340037462F0908137E0FF25E016
:1015F60024F4F582E4340AF583E493FC740193FD44
:10160600EF25E024F2F582E4340AF583E493FE74D0
:101616000193FFC39DFDEE9CFC908138F0A3EDF095
:101626004C7007908138F0A304F0908052E0FCA340
:10163600E0FDC3EF9DFDEE9CFCE41202ABC004C0CE
:1016460005C006C007908138E0FCA3E0FDE4120265
:10165600ABA804A905AA06AB07D007D006D005D0CB
:101666000412020990813A1205B0E4FFFE7D207C47
:101676004190813AE0F8A3E0F9A3E0FAA3E0FB1277
:1016860001001202E4AB07AA06908137E0FF7E0054
:101696007C007D0A1203DFEF2BFFEE3AFE90812BD2
:1016A600F0A3EFF0D39446EE94004011E024BAFE86
:1016B60090812BE034FF90812FF0A3CEF090812F04
:1016C600E0FEA3E0FF908133EEF0A3EFF0908131CE
:1016D600EEF0FCA3EFF0FD7F637E20122AED9081F1
:1016E60031E0FEA3E0FF7C007D0A1203F1AC06ADFB
:1016F600077F647E20122AEDE49080EFF0A3F0903D
:1017060080FBF0A3F0A3F0A3F0908010F0A3F0E428
:06171600908123F0A3F016
:01171C0022AA
:102B5800908124E004F07006908123E004F07D0A5F
:092B68007C007F287E0002153A72
:101F06007F607E20122AA9908135EEF0A3EFF0645F
:101F1600014E600C908135E07004A3E06402700904
:101F2600908135A3E0908101F07F617E20122AA97D
:101F3600908135EEF0A3EFF0C39401EE94004015C6
:101F4600908135E0FEA3E0FFD39404EE94005005A3
:101F5600908100EFF07F627E20122AA9908135EEF3
:101F6600F0A3EFF064014E600C908135E07004A39D
:101F7600E064027009908135A3E0908122F07F65CC
:101F86007E20122AA9908135EEF0A3EFF0C394A02B
:101F9600EE9400401A908135E0FEA3E0FFD3944012
:101FA600EE9401500A9080B8EEF0A3EFF0804E7FD9
:101FB600667E20122AA9908135EEF0A3EFF0C39435
:101FC60010EE94004037908135E0FEA3E0FFD394F5
:101FD60020EE940050277C007D0A1203DF9080B823
:101FE600EEF0FCA3EFF0FD7F657E20122AED9081D6
:101FF60035E0FCA3E0FD7F667E20122AED7F677E3A
:1020060020122AA9908135EEF0A3EFF064014E600C
:102016000C908135E07004A3E0640270099081356C
:06202600A3E090809BF096
:01202C002291
:05111E00908138EFF0A4
:10112300E075F008A42402F9748135F0FAA3740180
:10113300F0A3EAF0A3E9F0908138E014601714609B
:101143002014602924036003021350742090813C0F
:10115300F0A3F0802290813C7420F0A37430F080DF
:101163001690813C7420F0A37440F0800A90813C77
:101173007420F0A37450F090813CE0FEA3E0FF12D2
:101183002AA9EF64024E70047D0280027D019081E2
:1011930039E0FBA3E0FAA3E0F9ED1203AB90813D44
:1011A300E02401122AA1D3EF947FEE94005004AD02
:1011B3000780027D00908139E0FBA3E0FAA3E0F908
:1011C300900001ED1203BD90813DE02402122AA19B
:1011D300C3EF9401EE9400401AD3EF9405EE94000C
:1011E3005011908139E0FBA3E0FAA3E0F9900002EB
:1011F300EF8010908139E0FBA3E0FAA3E0F99000BF
:101203000274051203BD90813DE02403122AA1C399
:10121300EF9410EE9400401AD3EF9420EE94005014
:1012230011908139E0FBA3E0FAA3E0F9900003EF0A
:101233008010908139E0FBA3E0FAA3E0F99000036A
:1012430074161203BD90813DE02404122AA1C3EF5A
:101253009464EE9400401ED3EF947BEE94005015FB
:10126300EF249CFD908139E0FBA3E0FAA3E0F99021
:101273000004ED800F908139E0FBA3E0FAA3E0F9CD
:10128300900004E41203BD90813DE02405122AA1DD
:10129300C3EF9464EE9400401ED3EF949FEE94004A
:1012A3005015EF249CFD908139E0FBA3E0FAA3E005
:1012B300F9900005ED800F908139E0FBA3E0FAA3DC
:1012C300E0F9900005E41203BD90813DE02406128D
:1012D3002AA1C3EF9464EE9400401ED3EF947BEEF7
:1012E30094005015EF249CFD908139E0FBA3E0FAB4
:1012F300A3E0F9900006ED800F908139E0FBA3E0B5
:10130300FAA3E0F9900006E41203BD90813DE024C6
:1013130007122AA1C3EF9464EE9400401ED3EF9406
:101323009FEE94005015EF249CFF908139E0FBA3BE
:10133300E0FAA3E0F9900007EF800F908139E0FB1A
:0D134300A3E0FAA3E0F9900007E41203BD57
:01135000227A
:102B2400E4908137F0908137E0FFC39404500B1296
:0A2B3400111E908137E004F080EBE1
:012B3E002274
:102AC50030040FC3EF94F6EE6480947F5014C20671
:102AD500800DD3EF940AEE648094804005D20612EF
:032AE5002B97220A
:1026C800908122E06402702EC3EE64809480400200
:1026D800803DC3EF94ECEE6480947F4002801FC37A
:1026E800EF94D8EE6480947F40067D02C205803A5C
:1026F8007D03C2058034C3EE6480948050067D015A
:10270800C2058026C3EF9414EE6480948050067D41
:1027180001D2058015C3EF9428EE6480948050069A
:102728007D02D20580047D03D205AF05122B71A26C
:06273800059206022B973A
:1028BA00908101E0B40103022BB89080B8E0FEA336
:1028CA00E0FF908131E0FCA3E0C39FFFEC9EAD07DF
:1028DA00FC908100E0FFC394014010EFD3940350B1
:1028EA000A122B71AF05AE04022AC5908100E0B42A
:0E28FA000407AE04AF050226C8E4FF122B71DE
:0129080022AC
:102A440090809FE0FFD3940640012290000112037E
:102A54007EFD7C007E007401A807088005C333CE88
:102A640033CED8F9FFEE5CFEEF5D4E6003D38001F8
:022A7400C3227B
:05171D00908136EFF0A1
:10172200E075F008A42402F9748135F0FAA374017B
:10173200F0A3EAF0A3E9F0908136E075F004A42466
:10174200A8F9748035F0FA90813A7401F0A3EAF0B6
:10175200A3E9F090809BE0B40216908137E0FBA3EE
:10176200E0FAA3E0F9120365B40205122A44400F1D
:1017720090813AE0FBA3E0FAA3E0F9E40203AB9024
:10178200813AE0FBA3E0FAA3E0F9120365600302E9
:101792001836908137E0FBA3E0FAA3E0F990000449
:1017A20012037EFF9080A0E06F6003021836900063
:1017B2000512037EFF9080A1E06F7078A3E0707441
:1017C20090813AE0FBA3E0FAA3E0F974011203ABC3
:1017D200908100E0FF90813AE0FBA3E0FAA3E0F9F8
:1017E200900001EF1203BD9080B8E0FFA3E09000EB
:1017F20002CF8FF0120494908137E0FBA3E0FAA3AA
:10180200E0F990000212037EFF908101B405057495
:1018120001F080207402F0908100EFF0900003123A
:10182200037EFF7E007C007D0A1203DF9080B8EE0B
:10183200F0A3EFF090813AE0FBA3E0FAA3E0F91203
:10184200036570030218EA908137E0FBA3E0FAA374
:10185200E0F990000612037EFF9080A0E06F600323
:101862000218EA90000712037EFF9080A1E06F70D9
:0518720077A3E0707394
:1018770090813EF090813AE0FBA3E0FAA3E0F9E41F
:101887001203AB90813DF090813DE0FFC39404507B
:1018970021EF25E025E024A8F582E43480F583E0F4
:1018A700600890813E7401F0800890813DE004F06B
:1018B70080D590813EE0700690810104F0229081EE
:1018C7003AE0FBA3E0FAA3E0F990000112037E904F
:1018D7008100F090000212045CFF9080B8E5F0F000
:0318E700A3EFF07C
:0118EA0022DB
:102B0600122B24E4908135F0908135E0FFC39404C4
:0D2B1600500B12171D908135E004F080EB8C
:012B2300228F
:100EA6007F707E20122AA9908135EEF0A3EFF0C361
:100EB6009401EE94004017908135E0FEA3E0FFD345
:100EC60094F7EE940050079080A3EFF08010908086
:100ED600A374F7F0FD7C007F707E20122AED7F71EF
:100EE6007E20122AA9908135EEF0A3EFF0C394017B
:100EF600EE94004017908135E0FEA3E0FFD39407FF
:100F0600EE940050079080CDEFF080109080CD7465
:100F160007F0FD7C007F717E20122AED7F727E2015
:100F2600122AA9908135EEF0A3EFF0C39401EE9456
:100F3600004017908135E0FEA3E0FFD39406EE94BF
:100F46000050079080CAEFF080109080CA7401F0BC
:100F5600FD7C007F727E20122AED7F607E20122AA1
:100F6600A9908135EEF0A3EFF064014E600C9081FC
:100F760035E07004A3E06402700B908135A3E09025
:100F86008101F080109081017402F0FD7C007F6089
:100F96007E20122AED7F617E20122AA9908135EEED
:100FA600F0A3EFF0C39401EE94004017908135E072
:100FB600FEA3E0FFD39404EE94005007908100EF67
:100FC600F080109081007401F0FD7C007F617E202E
:100FD600122AED7F627E20122AA9908135EEF0A3B7
:100FE600EFF064014E600C908135E07004A3E0647C
:100FF60002700B908135A3E0908122F080109081E1
:10100600227402F0FD7C007F627E20122AED7F654D
:101016007E20122AA9908135EEF0A3EFF0C394A0AA
:10102600EE9400401A908135E0FEA3E0FFD3944091
:10103600EE9401500A9080B8EEF0A3EFF08019907C
:1010460080B8E4F0A374DCF07F65122AE87D167C94
:10105600007F667E20122AED7F677E20122AA990E5
:101066008135EEF0A3EFF064014E600C908135E01F
:101076007004A3E06402700B908135A3E090809B1E
:10108600F0801090809B7401F0FD7C007F677E20CD
:10109600122AED1223CCE4908131F0A3F090812F37
:1010A600F0A3F0908133F0A3F0C202FDFC7F637ED3
:1010B60020122AED908131E0FEA3E0FF7C007D0A3C
:1010C6001203F1AC06AD077F647E20122AEDE4FF21
:1010D600EF25E025E024A8F582E43480F583E4F0EA
:1010E600908100E0FEEF25E025E024A9F582E434B6
:1010F60080F583EEF09080B8E0FCA3E0FDEF25E0FC
:1011060025E024AAF582E43480F583ECF0A3EDF023
:081116000FEFB404BB022B240F
:1029DA001229A1122B89120EA612273E1218EB12E7
:1029EA00247130000312061A122B58300111C20149
:1029FA00122651122471121F06122B061228BA7FB0
:082A0A00057E00122BA580DA05
:10010000EC4D6011E8497017ED33EC3304600DE4F9
:10011000FCFFFEFD22E933E8330470F802035012BD
:10012000031B58046009E4CC2481500628500902BE
:10013000035A284003020357C0E0EB4A7044B980D9
:1001400006D0E0FB020346EF4E701CBD8008EBFFBB
:10015000EAFEE9FD80EBE98DF0A4FEE5F00201E99D
:10016000E9CDF9EAFEEBFFEF89F0A4FCE5F0CE89DA
:10017000F0A42EFFE435F0CD89F0A42DFEE435F097
:100180008067EF4E7005BD80D780C3EF8BF0A4ACC5
:10019000F0EE8BF0A42CFCE435F0F8EF8AF0A42C00
:1001A000E5F038FCE433CB8DF0A42CFCE5F03BF813
:1001B000EE8AF0A42CFCE5F038F8E433CF89F0A403
:1001C0002CFCE5F038CF3400CE89F0A42FFFE5F009
:1001D0003EFEE433C98DF0A42EFEE5F039CD8AF061
:1001E000A42FFFE5F03EFEE43DFD33D0E0FB5007D9
:1001F0000BBB000F02035AEC2CFCEF33FFEE33FE77
:06020000ED33FD020332A4
:1002060002035AEC5D046005E859047003020350CA
:1002160012031B580460F6EC4860F2EC7004FDFE15
:10022600FF22C860DB2481C85009C39860025006CB
:100236000203579850CAF582E9294B4A7005AB82EA
:1002460002034675F0007C1A7880C3EF9BEE9AEDA8
:1002560099400DC3EF9BFFEE9AFEED99FDE842F043
:10026600DC23ACF0D0E0FFD0E0FED0E0FDAB822096
:10027600E7101BEB60BAEC2CFCEF33FFEE33FEED20
:1002860033FD020332E803F830E705C0F075F000ED
:10029600EF2FFFEE33FEED33FD40B830E7C280AA04
:1002A60075F020800E75F010800575F0087D007ED3
:1002B600007F003392D530D50312058FEC33401002
:1002C600EF33FFEE33FEED33FDEC33FCD5F0ED22DC
:0E02D600E5F0247EA2D513CC92E7CDCEFF2218
:1002E400EDD2E7CD33EC3392D524814006E4FFFE12
:1002F400FDFC22FCE4CFCECDCC24E0501174FF8071
:10030400EDC3CC13CCCD13CDCE13CECF13CF04700D
:07031400F030D5DE02058F79
:10031B00E9D2E7C933E833F892D5EDD2E7CD33EC28
:07032B0033FC5002B2D522A1
:10033200EC30E7100FBF000C0EBE00080DBD00042C
:100342000BEB6014A2D5EB13FCED92E7FD2274FFD8
:10035200FCFDFEFF22E480F8A2D574FF13FC7D8031
:03036200E480EF45
:102534000229DAE493A3F8E493A34003F68001F2BA
:1025440008DFF48029E493A3F85407240CC8C333A8
:10255400C4540F4420C8834004F456800146F6DF77
:10256400E4800B0102040810204080902238E47EAD
:10257400019360BCA3FF543F30E509541FFEE4936C
:10258400A360010ECF54C025E060A840B8E493A333
:10259400FAE493A3F8E493A3C8C582C8CAC583CA5E
:1025A400F0A3C8C582C8CAC583CADFE9DEE780BE16
:0123090000D3
:10036500BB010689828A83E0225002E722BBFE0296
:09037500E32289828A83E49322C9
:10037E00BB010CE58229F582E5833AF583E0225034
:10038E0006E92582F8E622BBFE06E92582F8E2227E
:0D039E00E58229F582E5833AF583E4932298
:1003AB00BB010689828A83F0225002F722BBFE0131
:0203BB00F3222B
:1003BD00F8BB010DE58229F582E5833AF583E8F076
:1003CD00225006E92582C8F622BBFE05E92582C822
:0203DD00F2220A
:1003DF00EF8DF0A4A8F0CF8CF0A428CE8DF0A42E32
:0203EF00FE22EC
:1003F100BC000BBE0029EF8DF084FFADF022E4CCF0
:10040100F875F008EF2FFFEE33FEEC33FCEE9DECB8
:10041100984005FCEE9DFE0FD5F0E9E4CEFD22EDFE
:10042100F8F5F0EE8420D21CFEADF075F008EF2F48
:10043100FFED33FD4007985006D5F0F222C398FD39
:050441000FD5F0EA22D6
:10044600A3F8E0C5F025F0F0E58215827002158369
:06045600E0C838F0E822C6
:10045C00BB0110E58229F582E5833AF583E0F5F0DE
:10046C00A3E0225009E92582F886F008E622BBFEBB
:10047C000AE92582F8E2F5F008E222E5832AF58301
:08048C00E993F5F0A3E99322C6
:10049400F8BB0111E58229F582E5833AF583E8F09A
:1004A400E5F0A3F0225009E92582C8F608A6F02257
:0D04B400BBFE09E92582C8F2E5F008F2223E
:1004C10075F008758200EF2FFFEE33FECD33CDCCF2
:1004D10033CCC58233C5829BED9AEC99E582984075
:1004E1000CF582EE9BFEED9AFDEC99FC0FD5F0D652
:1004F100E4CEFBE4CDFAE4CCF9A88222B800C1B97C
:100501000059BA002DEC8BF084CFCECDFCE5F0CBB9
:10051100F97818EF2FFFEE33FEED33FDEC33FCEBF2
:1005210033FB10D703994004EB99FB0FD8E5E4F9AD
:10053100FA227818EF2FFFEE33FEED33FDEC33FC9A
:10054100C933C910D7059BE99A4007EC9BFCE99A8E
:10055100F90FD8E0E4C9FAE4CCFB2275F010EF2FD3
:10056100FFEE33FEED33FDCC33CCC833C810D707D3
:100571009BEC9AE899400AED9BFDEC9AFCE899F80E
:0E0581000FD5F0DAE4CDFBE4CCFAE4C8F922A1
:0E058F00C3E49FFFE49EFEE49DFDE49CFC227D
:10059D00E8600FECC313FCED13FDEE13FEEF13FF3C
:0305AD00D8F12260
:0C05B000ECF0A3EDF0A3EEF0A3EFF022BE
:1005BC00A8828583F0D083D0821205D31205D31282
:1005CC0005D31205D3E473E493A3C583C5F0C583A7
:1005DC00C8C582C8F0A3C583C5F0C583C8C582C889
:0105EC0022EC
:1005ED00D083D082F8E4937012740193700DA3A39D
:1005FD0093F8740193F5828883E473740293B5F0D4
:0D060D00067403936860E9A3A3A3A380D83B
:00000001FF
