:0300000002249344
:0800F800FFFF4457494E543547
:10249300759401759502758E0075930075C87075F6
:1024A300C96075F800787FE4F6D8FD7581200224B1
:0124B300EF39
:100A88007D28771A715E6BF166CD61EF5D5158F183
:100A980054CB50DC4D4C4996463943083FFF3D1E28
:100AA8003A6137C8354F32F530B82E982C912AA4C0
:100AB80028CF2710256623D0224D20DD1F7E1E2F2C
:100AC8001CEF1BBF1A9C1986187E1781168F15A953
:100AD80014CC13FA1331127011B8110810600FBF3B
:100AE8000F250E920DF40D7E0CFC0C810C0A0B9850
:100AF8000B2B0AC30A5E09FE09A2094A08F508A4D5
:100B08000856080B07C3077E073B06FC06BE06848B
:100B1800064B061505E005AE057E054F052204F7D0
:100B280004CE04A6047F045A0437041503F303D43F
:100B380003B50397037B035F0345032B031202FBF3
:100B480002E402CE02B802A3802079A573846DBAAC
:100B5800684263165E345997553C511F4D3D499381
:100B6800461D42D93FC33CDA3A1A3780350B32B7B3
:100B780030832E6D2C722A9028C5271025292368CA
:100B880021C920471EE01D921C581B301A1A19143F
:100B9800181A172C164B157314A413DD131F12689B
:100BA80011B8110F106C0FCF0F380EA60E1A0D9337
:100BB8000D120C950C1D0BAB0B3C0AD30A6E0A0DDB
:100BC80009B00957090308B20864081A07D407903E
:100BD800074F071106D6069D063205FF05CE059F6D
:100BE80005710544051904EE04C4049A0471044906
:100BF800042003FF03DF03C003A30387036C03522E
:100C080003390321030902F302DD02C902B402A178
:100C18000003030601040602050003051F1C1F1E2E
:100C28001F1E1F1F1E1F1E1F00C1814001C08041C3
:100C380001C0804100C1814001C0804100C18140A4
:100C480000C1814001C0804101C0804100C1814094
:100C580000C1814001C0804100C1814001C0804184
:100C680001C0804100C1814001C0804100C1814074
:100C780000C1814001C0804100C1814001C0804164
:100C880001C0804100C1814000C1814001C0804154
:100C980001C0804100C1814001C0804100C1814044
:100CA80000C1814001C0804101C0804100C1814034
:100CB80000C1814001C0804100C1814001C0804124
:100CC80001C0804100C1814000C1814001C0804114
:100CD80001C0804100C1814001C0804100C1814004
:100CE80000C1814001C0804100C1814001C08041F4
:100CF80001C0804100C1814001C0804100C18140E4
:100D080000C1814001C0804101C0804100C18140D3
:100D180000C1814001C0804100C1814001C08041C3
:100D280001C0804100C1814000C0C101C30302C2AB
:100D3800C60607C705C5C404CC0C0DCD0FCFCE0E13
:100D48000ACACB0BC90908C8D81819D91BDBDA1A83
:100D58001EDEDF1FDD1D1CDC14D4D515D71716D6F3
:100D6800D21213D311D1D010F03031F133F3F23263
:100D780036F6F737F53534F43CFCFD3DFF3F3EFED3
:100D8800FA3A3BFB39F9F83828E8E929EB2B2AEA43
:100D9800EE2E2FEF2DEDEC2CE42425E527E7E626B3
:100DA80022E2E323E12120E0A06061A163A3A26223
:100DB80066A6A767A56564A46CACAD6DAF6F6EAE93
:100DC800AA6A6BAB69A9A86878B8B979BB7B7ABA03
:100DD800BE7E7FBF7DBDBC7CB47475B577B7B67673
:100DE80072B2B373B17170B05090915193535292E3
:100DF80096565797559594549C5C5D9D5F9F9E5E53
:100E08005A9A9B5B99595898884849894B8B8A4AC2
:100E18004E8E8F4F8D4D4C8C448485458747468632
:100E2800824243834181804000030205000305019B
:040E380004060204A6
:1022900047809819011906000000020A0000020890
:1022A0000000C1014180F9024180F80141811A0218
:1022B0004280B200DC42812900DCC1834180970169
:1022C00041809FF74180C5074180C401418096004D
:1022D0004180F700C1005080E700000000000000CE
:1022E0000000000000000000005080B4000000006A
:1022F00000000000000000000000000042805200CA
:1023000000428094000042812300004281250000A9
:10231000428127000042812B000042811B000042C5
:1023200080A0000A46811D0000000000004180E6F8
:1023300000C102508000000000000000000000000A
:0B2340000000000000004280100000C0
:10291F00C2AF75940175950275C960E4F5F875F944
:10292F0001F5A8F5B8F59A758911758CBC758ACD26
:10293F00D2A9D28C75C870F5CDF5CC75CBBC75CA44
:09294F00CD43A820D2C8D2AF226A
:0A25D1009080C5E0FF9080C4E0FD9B
:0525DB0090813DEDF0D0
:1025E000EF14B4070050499025F575F003A4C58396
:1025F00025F0C5837302260A02261002261602263B
:102600001C02262202262802262E7A2A7B008024FB
:102610007A157B00801E7A0A7B8080187A057B40C1
:1026200080127A027BA0800C7A017BC08006800039
:102630007A007BE075A78075AB80EAF5AEEBF5AF6D
:0926400043B702C281D2BDD2AF42
:01264900226E
:0E2B040043BC1ED293C291C294C292D203224D
:03000B0002283C8C
:10283C00C0E0C083C082C0D0C2AF758CBC758ACDDD
:10284C000509E50970020508C394E8E508940340FE
:10285C0008750800750900D2019080F7E0D3940048
:10286C004011E014F0E0700B908096E0D39400409F
:0E287C0002D200D2AFD0D0D082D083D0E032D2
:03002B00022ABAEC
:102ABA00C0E0C2AFC2C6E50B450A6008E50B150BBC
:092ACA007002150AD2AFD0E0320F
:03006B0002288ADE
:0F288A00C0E0C083C082C0D075D000C006C007B8
:10289900C2AFE5AB30E026AFAD53ABFE908096E01A
:1028A900C394405010E0FE04F074122EF582E43413
:0F28B90080F583EFF09080F7740AF0C200D2AF81
:0D28C800D007D006D0D0D082D083D0E0322F
:0B2B20008E0A8F0BE50B450A70FA22AD
:0B2B2B008FACE5A730E0FB53A7FE22B3
:1029C200908139EBF0A3EAF0A3E9F0D281AF051DC3
:1029D200EF6019908139E0FBA3E475F0011204461F
:0F29E200A9F0FA120365FF122B2B80E1C28122AC
:0628D5007B017A807954BA
:0E28DB00908139EBF0A3EAF0A3E9F0A3EDF051
:1028E9007FFF7DFF90813CE0FE14F0EE6023908134
:1028F90039E0FBA3E475F001120446A9F0FA1203CA
:10290900656FFE900C30936DFFEE900D3093FD8056
:05291900D3EFFEEDFF0D
:01291E002296
:101BD50090813DEEF0A3EFF0A3EBF0A3EAF0A3E9CB
:011BE500F00F
:101BE60090813DE0FEA3E0FFE4FCFD7B02FAF9F8FC
:101BF6001204FD9081441205B090813DA3E054018A
:101C0600FB908144E0FCA3E0FDA3E0FEA3E0FF78A7
:101C16001012059D8FF1908144E0FCA3E0FDA3E046
:101C2600FEA3E0FF780812059D8FF2908144A3A3DE
:101C3600A3E0FF8FF375F40175F8AFAF03EF6040D3
:101C460030FCFDD2FE20FEFD90813FE0FBA3E47553
:101C5600F001120446A9F0FAE5FC1203AB90813FAD
:101C6600E0FBA3E475F001120446A9F0FAE5FD12C3
:101C760003AB908143E024FFF0908142E034FFF013
:101C8600908142E0FCA3E0FDECC313FEED13FFEDF3
:101C960030E0050FBF00010EEF1FAC0670011E4CB1
:101CA6007003021D49908143E030E038EF4E7034F6
:101CB60030FCFDD2FE20FEFD90813FE0FBA3E475E3
:101CC600F001120446A9F0FAE5FA1203AB90813F3F
:101CD600E0FBA3E475F001120446A9F0FAE5FB1255
:101CE60003AB805F30FCFDD2FE20FEFD90813FE01D
:101CF600FBA3E475F001120446A9F0FAE5FA120313
:101D0600AB90813FE0FBA3E475F001120446A9F015
:101D1600FAE5FB1203AB90813FE0FBA3E475F0010B
:101D2600120446A9F0FAE5FC1203AB90813FE0FBF2
:101D3600A3E475F001120446A9F0FAE5FD1203AB1F
:061D4600021C9EE4F5F80A
:011D4C002274
:101A300090813FEEF0A3EFF0A3EBF0A3EAF0A3E96F
:011A4000F0B5
:101A4100C2AF90813FE0FEA3E0FFE4FCFD7B02FA20
:101A5100F9F81204FD9081461205B090813FA3E090
:101A61005401FB908146E0FCA3E0FDA3E0FEA3E06E
:101A7100FF781012059D8FF1908146E0FCA3E0FDF7
:101A8100A3E0FEA3E0FF780812059D8FF290814646
:101A9100A3A3A3E0FF8FF375F40175F88FAF03EFF4
:101AA1006054E4F5F475F8AF30FCFDD2FE20FEFD84
:101AB10075F40175F88F30FCFD908141E0FBA3E4E2
:101AC10075F001120446A9F0FA120365F5FC908144
:101AD10041E0FBA3E475F001120446A9F0FA1203F8
:101AE10065F5FDD2FE20FEFD908145E024FFF090DA
:101AF1008144E034FFF0908144E0FCA3E0FDECC3BD
:101B010013FEED13FFED30E0050FBF00010EEF1FD7
:101B1100AC0670011E4C7003021BCF908145E03072
:101B2100E04BEF4E7047F5F475F8AF30FCFDD2FE97
:101B310020FEFD75F40175F88F30FCFD908141E0C8
:101B4100FBA3E475F001120446A9F0FA120365F54E
:101B5100FA908141E0FBA3E475F001120446A9F07B
:101B6100FA120365F5FBD2FE30FE6380FB30FCFD0B
:101B7100908141E0FBA3E475F001120446A9F0FA5B
:101B8100120365F5FA908141E0FBA3E475F00112BF
:101B91000446A9F0FA120365F5FB908141E0FBA32D
:101BA100E475F001120446A9F0FA120365F5FC9000
:101BB1008141E0FBA3E475F001120446A9F0FA1299
:101BC1000365F5FDD2FE20FE03021B0F80F8E4F54C
:031BD100F8D2AF98
:011BD40022EE
:052A6300FD7C007E2057
:102A6800EC90813DF0EDA3F07B017A81793D908176
:092A780044E4F0A304F0021A305A
:082A1C00FF908134E03400FE5C
:102A24007B017A81793B908142E4F0A304F0121B8C
:0B2A3400D590813BE0FEA3E0FDEDFF2C
:012A3F002274
:1020DD00908139EEF0A3EFF0C39420EE94204013DD
:1020ED00908139E0FEA3E0FFD39457EE9420500386
:1020FD00022A24908139E0FEA3E08EF01205ED2135
:10210D005820102164201121692012216E201321E5
:10211D0073201421782015217D2016218220602125
:10212D00872061218C2062219120632196206421DA
:10213D009B206521A4206621B3206721B820702142
:10214D00BD207121C22072000021CA908098E02428
:10215D00D0FFE43407FE22908099805C90809A80B5
:10216D005790809B805290809C804D90809D8048A0
:10217D0090809E80439080F9803E9080F8803990C9
:10218D00811A80349081298008908129800C90805B
:10219D00B2E0FEA3E0FF229080B2E0FEA3E0FF7C60
:1021AD00007D0A0203F1908097800D90809F80083A
:1021BD009080C580039080C4E0FF7E0022E4FEFF86
:0121CD0022EF
:1012E70090813BECF0A3EDF0908139EEF0A3EFF0A5
:1012F700C39420EE94204019908139E0FEA3E0FFCB
:10130700D39457EE94205009A3E0FCA3E0FD021408
:101317006C908139E0FEA3E08EF01205ED134820B2
:10132700601371206113A3206213CC2065141B2066
:10133700671443207014722071149B2072000014EC
:10134700CD90813BE0FEA3E0FF64014E6009EF64AE
:10135700024E60030214CD90813BE0FCA3E0FD90B8
:1013670080F9F07F607E2002146C90813BE0FEA341
:10137700E0FFC39401EE940050030214CDD3EF9421
:1013870004EE940040030214CD90813BE0FCA3E0FF
:10139700FD9080F8F07F617E2002146C90813BE025
:1013A700FEA3E0FF64014E6009EF64024E60030292
:1013B70014CD90813BE0FCA3E0FD90811AF07F62A1
:1013C7007E2002146C90813BE0FEA3E0FFC394A053
:1013D700EE940050030214CDD3EF9440EE940140F5
:1013E700030214CD90813BE0FCA3E0FD9080B2ECBA
:1013F700F0A3EDF07F657E20122A6890813BE0FE26
:10140700A3E0FF7C007D0A1203F1AC06AD077F66FF
:101417007E20805190813BE0FEA3E0FF64014E6097
:1014270009EF64024E60030214CD90813BE0FCA3F8
:10143700E0FD908097F07F677E20802990813BE0D8
:10144700FEA3E0FFC39401EE9400407AD3EF94F734
:10145700EE9400507190813BE0FCA3E0FD90809FEB
:10146700F07F707E20122A687F012290813BE0FE88
:10147700A3E0FFC39401EE9400404BD3EF9407EE33
:101487009400504290813BE0FCA3E0FD9080C5F0C2
:101497007F71802790813BE0FEA3E0FFC39401EEBC
:1014A70094004022D3EF9406EE9400501990813BAC
:1014B700E0FCA3E0FD9080C4F07F727E20122A68D2
:0914C7001225D17F01227F0022D1
:0C273700908130E02FFF90812FE03EFEEB
:10274300C3EF9410EE9420400CD3EF9416EE942034
:1027530050037F0122C3EF9420EE9420400CD3EF6B
:102763009457EE942050037F0122C3EF9460EE94BC
:1027730020400CD3EF9467EE942050037F0122C3D3
:10278300EF9470EE9420400CD3EF9472EE942050AB
:07279300037F01227F0022F9
:10061A00908096E0FFC394045003020A807B017A1B
:10062A00807912EF24FEFD1228DB908135EEF0FC72
:10063A00A3EFF0FD908096E0FB2411F582E434806C
:10064A00F583E0FE74102BF582E43480F583E0FB39
:10065A00EB6D7002EC6E6003020A80908012E0FF7C
:10066A0090812DF0908013E090812EF090809FE091
:10067A00FEEF6E600990812DE06003020A8090818E
:10068A002EE024FA70030207F524F67003020863C9
:10069A00240D60030209AE908096E0C394085003CB
:1006AA00020A80908014E0FEA3E0FDEDFF90812F06
:1006BA00EEF0A3EFF0908016E0FEA3E0FDEDFF90D0
:1006CA008131EEF0A3EFF04E7003020A39D3E094C1
:1006DA007D908131E094004003020A39E490813729
:1006EA00F0908137E0FF7E00D3908132E09F9081C5
:1006FA0031E09E4011122737EF70030209F890810A
:10070A0037E004F080DB90812DE0908054F09081F6
:10071A002EE0908055F0908131A3E025E09080563C
:10072A00F09081387403F0E4908137F0908137E0DB
:10073A00FF7E00D3908132E09F908131E09E40514C
:10074A00908130E02FFF90812FE03EFE1220DD9055
:10075A008133EEF0A3EFF0908133E0FCA3E0FDECEF
:10076A00FF908138E0FE04F074542EF582E4348060
:10077A00F583EFF0AF05908138E0FE04F074542E53
:10078A00F582E43480F583EFF0908137E004F0805D
:10079A009B7B017A807954908138E0FD1228DB90A6
:1007AA008135EEF0A3EFF0908135E0FEA3E0FD90F5
:1007BA008138E0FC04F074542CF582E43480F5832B
:1007CA00EDF0EEFF908138E0FE04F074542EF582CD
:1007DA00E43480F583EFF090812DE07003020A8003
:1007EA007B017A8079549081388069908096E0C341
:1007FA0094085003020A80908014E0FEA3E0FDED05
:10080A00FF90812FEEF0FCA3EFF0908016E0FEA39C
:10081A00E0FBEBFF908133EEF0A3EFF0AF05AE04FF
:10082A00122743EF70030209F890812FE0FEA3E03C
:10083A00FF908133E0FCA3E0FD1212E7EF700302A0
:10084A000A3990812DE07003020A807B017A80794F
:10085A0012908096E0FD020A7D908096E0C394098A
:10086A005003020A80908014E0FEA3E0FDEDFF90A1
:10087A00812FEEF0A3EFF0908016E0FEA3E0FDEDED
:10088A00FF908131EEF0A3EFF04E7003020A399027
:10089A008131E0FEA3E0FFD3947BEE940040030293
:1008AA000A39EF25E0FFEE33FEEF2409FFE43EFEAE
:1008BA00908096E0C39FE49E5003020A80E49081F0
:1008CA0037F0908137E0FF7E00D3908132E09F902D
:1008DA008131E09E4011122737EF70030209F89028
:1008EA008137E004F080DBE4908137F0908137E0D3
:1008FA00F9FFD3908132E09F908131E09400404526
:10090A00908137E0FD25E02419F582E43480F583EF
:10091A00E0FEED25E0241AF582E43480F583E0FD5B
:10092A00EDFF908133EEF0FCA3EFF0E9FF90813008
:10093A00E02FFF90812FE03400FE1212E7908137FA
:10094A00E004F080A790812DE0908054F090812EF1
:10095A00E0908055F0908014E0908056F0908015D9
:10096A00E0908057F0908016E0908058F0908017C1
:10097A00E0908059F07D061228D5908135EEF0A3DB
:10098A00EFF0908135E0FCA3E090805AF0ECA3F000
:10099A0090812DE07003020A807B017A8079547D70
:1009AA0008020A7D90812DE0908054F090812EE01B
:1009BA004480908055F0A37401F0FB7A8079547DCD
:1009CA00031228DB908135EEF0A3EFF0908135E039
:1009DA00FCA3E0908057F0ECA3F090812DE0700327
:1009EA00020A807B017A8079547D05020A7D908112
:1009FA002DE0908054F090812EE04480908055F054
:100A0A00A37402F07D031228D5908135EEF0A3EF8E
:100A1A00F0908135E0FCA3E0908057F0ECA3F090D1
:100A2A00812DE060517B017A8079547D0580449064
:100A3A00812DE0908054F090812EE0448090805582
:100A4A00F0A37403F07B017A807954FD1228DB90BD
:100A5A008135EEF0A3EFF0908135E0FCA3E09080C1
:100A6A0057F0ECA3F090812DE0600B7B017A80793E
:0D0A7A00547D051229C2E4908096F0C20060
:010A8700224C
:072B3E00C291C294C2922271
:0E2B1200300503D38001C39293A205920322E3
:102AEC00122B3EEF24FE600A14600A24027008D2F6
:082AFC009122D29422D2922211
:082B3600122B3ED205022B1206
:1029F100AB07AA067C017D901203F1ED4C7002D366
:102A0100227C007D64AF03AE021203F1ED4C700233
:0B2A1100C322EB54037002D322C32247
:0B253400908098E0FFA3E0FDA3E0FB17
:10253F00EF24D0FEE4340790813AF0A3CEF0AF053C
:10254F00A3EFF0A3EBF0EFC39403500E90813BE0A9
:10255F0024FFF090813AE034FFF090813AE0FCA341
:10256F00E0FDAE047802CEC313CE13D8F92DFBECE9
:10257F003EFA90813AE0FEA3E0FF7C007D641203F7
:10258F00F1C3EB9FFBEA9EFA90813AE0FEA3E0FFD6
:10259F007C017D901203F1EF2BFFEE3AFEA3E0904A
:1025AF000E2F937C002FFFEC3EFE90813DE02FFF1E
:1025BF00EC3EFE7D071203F1ED4C70037F0722AF57
:0125CF000506
:0125D00022E8
:10264A0090809EE004F0E0C3943C406AE4F09080FD
:10265A009DE004F0E0943C405DE4F090809CE0044E
:10266A00F0E094184050E4F090809AE004F09080F2
:10267A0099E0FF900C2393F9EFB40212908098E04E
:10268A0024D0FFE43407FE1229F15002791D90800C
:10269A009AE0D39940187401F0908099E004F0E030
:1026AA00D3940C40097401F0908098E004F012254C
:0626BA003490809BEFF05C
:0126C00022F7
:10188100E4908137F0A3F0A3F07F107E20122A2488
:1018910090812DEEF0A3EFF07F117E20122A24908B
:1018A100812FEEF0A3EFF07F127E20122A24908187
:1018B10031EEF0A3EFF07F147E20122A24908133C1
:1018C100EEF0A3EFF07F157E20122A24908135EEF1
:1018D100F0A3EFF07F167E20122A24AD07AC06900C
:1018E100812DE0FEA3E0FFC394D0EE94074016D310
:1018F100EF9434EE9408500DEF2430908098F090DE
:1019010081377401F090812FE0FEA3E0FFC394655D
:10191100EE94004011D3EF9470EE94005008EF2440
:101921009C908099801D90812FE0FEA3E0FFC394DD
:1019310001EE94004014D3EF940CEE9400500B9000
:101941008099EFF09081387401F0908131E0FEA32D
:10195100E0FFC39465EE94004011D3EF9483EE94BD
:10196100005008EF249C90809A801D908131E0FE08
:10197100A3E0FFC39401EE94004014D3EF941FEE53
:101981009400500B90809AEFF09081397401F0909F
:101991008133E0FEA3E0FFC39464EE94004012D3D0
:1019A100EF947BEE94005009EF249C90809CF08092
:1019B10015908133E0FEA3E0FFD39417EE9400501D
:1019C1000590809CEFF0908135E0FEA3E0FFC39489
:1019D10064EE94004012D3EF949FEE94005009EF0F
:1019E100249C90809DF08015908135E0FEA3E0FF5E
:1019F100D3943BEE9400500590809DEFF0C3ED949D
:101A010064EC94004012D3ED949FEC94005009EDE6
:101A1100249C90809EF0800ED3ED943BEC9400507A
:0E1A21000590809EEDF012253490809BEFF032
:011A2F002294
:1023F10090809AE0FFC394014008EFD3941F5002EC
:1024010080027F0190812DEFF0908099E0FFC394CD
:10241100014008EFD3940C500280027F0190812E7D
:10242100EFF0908098E024D0FDE43407FC7F107E2B
:1024310020122A6890812EE02464FDE433FC7F1190
:102441007E20122A6890812DE02464FDE433FC7F14
:10245100127E20122A6890809BE07F13122A6390DB
:10246100809CE02464FDE433FC7F147E20122A6802
:1024710090809DE02464FDE433FC7F157E20122AC8
:102481006890809EE02464FDE433FC7F167E200288
:022491002A68B7
:10234C007F547E25122A24EF4E700A9080A0F0A3B1
:10235C007405F08021EF64014E9080A07007F0A30B
:10236C00740AF08011E4F0A3740AF07D017C007F04
:10237C00547E25122A687B017A81791D908142E472
:10238C00F0A37403F07F507E25121BD590811DE0C5
:10239C00FEA3E0FFD39400EE64809480401CA3E085
:1023AC00FCA3E0FDEC64809480400FED240AFDE476
:1023BC003CFCEF6D7002EE6C602A90811DE4F0A382
:1023CC00740AF0E4A3F0A3F074F8A3F0A3F07B017B
:1023DC007A81791D908144E4F0A37403F07F507EE0
:0423EC0025121A306C
:0123F00022CA
:10279A007B017A807900908142E4F0A37408F07F8B
:1027AA00327E00121BD5908000E0FEA3E0FF9080ED
:1027BA00E8E02FF09080E7E03EF090800CE0FEA386
:1027CA00E0FF9080F4E02FF09080F3E03EF09080FC
:1027DA000EE0FEA3E0FF9080F6E02FF09080F5E097
:0227EA003EF0BF
:0127EC0022CA
:041FC300AB07AA06B8
:101FC7009081361205BC0000000090813A1205BCD2
:101FD700000000009080E7E0FEA3E0FFAD03AC0245
:101FE7001203F19080B4EEF0A3EFF09080F3E0FEDF
:101FF700A3E0FFAD03AC021203F19080C0EEF0A3A3
:10200700EFF0AC02AD039080F5E0FEA3E0FF120312
:10201700F19080C2EEF0A3EFF0C39080C1E09FFD86
:102027009080C0E09EFCE41202ABC004C005C0066D
:10203700C0079080C2E0FCA3E0FDE41202ABD0032E
:10204700D002D001D0001202099081361205B0905B
:1020570080B4E0FEA3E0FFC39080C1E09FFD9080C5
:10206700C0E09EFCE41202ABC004C005C006C00776
:102077009080B4E0FCA3E0FDE41202ABD003D002F1
:10208700D001D00012020990813A1205B07F007E7C
:10209700407D1C7C46908136E0F8A3E0F9A3E0FA86
:1020A700A3E0FB1201001202E4908052EEF0A3EFCE
:1020B700F07F007E407D1C7C4690813AE0F8A3E0EB
:1020C700F9A3E0FAA3E0FB1201001202E490809466
:0520D700EEF0A3EFF0A4
:0120DC0022E1
:0E1D4D00908136EBF0A3EAF0A3E9F0A3EDF0ED
:101D5B00E490813CF0A3F0A3F0A3F090813D746379
:101D6B00F0908136E0FBA3E0FAA3E0F990813CE030
:101D7B0075F002A4F58285F08312045CFF90813A22
:101D8B00E0FCA3E0FDC39FEC95F04004A3E0FF2231
:101D9B00908136E0FBA3E0FAA3E0F990813DE0757A
:101DAB00F002A4F58285F08312045CFFD3ED9FEC67
:101DBB0095F0500690813DE0FF2290813DE0FF9031
:101DCB00813CE0FEC39F4003021E86EFFDEE2DFF1C
:101DDB00E433C313EF1390813EF0908136E0FBA305
:101DEB00E0FAA3E0F990813EE075F002A4F582855C
:101DFB00F08312045CFFAEF090813AE0FCA3E0FDAF
:101E0B006F7002EC6E6074C3ED9FEC9E502190815D
:101E1B003EE02401FFE433FEEF25E0FFEE33FE8FBF
:101E2B00828E8312045CFFD3ED9FEC95F0504C90A7
:101E3B008136E0FBA3E0FAA3E0F990813EE075F078
:101E4B0002A4F58285F08312045CFFD390813BE002
:101E5B009F90813AE095F090813EE0400690813D65
:101E6B00F0800490813CF0908139E0FF90813FE05D
:101E7B00FE04F0EED39F5003021DC590813DE0FFA1
:101E8B0090813CE0D39F40037F002290813EE0FF96
:011E9B002224
:0421CE00AB07AA06AB
:1021D20090814B1205BC00000000200234E4908183
:1021E2004AF090814AE0FFC394105019EF25E02491
:1021F200C6F582E43480F583EAF0A3EBF090814ADD
:10220200E004F080DDD202E49080E6F0AF03AE029B
:1022120022AF039080E6E0FD25E024C6F582E43497
:1022220080F583EAF0A3EFF0ED04540F9080E6F01E
:10223200E490814AF090814BE0F8A3E0F9A3E0FA40
:10224200A3E0FB90814AE025E024C6F582E43480D5
:10225200F583E0FEA3E0FFE4FCFDEB2FFFEA3EFE88
:10226200ED39FDEC38FC90814B1205B090814AE0CB
:1022720004F0E0B410BFE47B10FAF9F890814BE06F
:0D228200FCA3E0FDA3E0FEA3E0FF1204FDBD
:01228F00222C
:0C14D00090812DECF0A3EDF0AB07AA0614
:1014DC009081321205BC00000000D390811CE09B6F
:1014EC0090811BE09A50030216B212279A90801139
:1014FC00E004F07006908010E004F090812DE0FE86
:10150C00A3E0FFC3908011E09F908010E09E5003F9
:10151C000216AB121FC39080C2E0FEA3E0FF9080C6
:10152C00C0E0FCA3E0C39FFFEC9EFED3EF940AEE59
:10153C0064809480501CE49080F5F0A3F09080F3CC
:10154C00F0A3F09080E7F0A3F0908010F0A3F002ED
:10155C0016AC7BFF7A0A7988908052E0FFA3E0906A
:10156C00813ACFF0A3EFF07D64121D4D90812FEFE7
:10157C00F0C3946340037462F090812FE0FF25E088
:10158C00248AF582E4340AF583E493FC740193FD18
:10159C00EF25E02488F582E4340AF583E493FE74A5
:1015AC000193FFC39DFDEE9CFC908130F0A3EDF008
:1015BC004C7007908130F0A304F0908052E0FCA3B3
:1015CC00E0FDC3EF9DFDEE9CFCE41202ABC004C039
:1015DC0005C006C007908130E0FCA3E0FDE41202D8
:1015EC00ABA804A905AA06AB07D007D006D005D036
:1015FC00041202099081321205B0E4FFFE7D207CBA
:10160C0041908132E0F8A3E0F9A3E0FAA3E0FB12E9
:10161C0001001202E4AB07AA0690812FE0FF7E00C6
:10162C007C007D0A1203DFEF2BFFEE3AFE90812344
:10163C00F0A3EFF0D39446EE94004011E024BAFEF0
:10164C00908123E034FF908127F0A3CEF090812786
:10165C00E0FEA3E0FF90812BEEF0A3EFF090812948
:10166C00EEF0FCA3EFF0FD7F637E20122A689081E0
:10167C0029E0FEA3E0FF7C007D0A1203F1AC06AD6D
:10168C00077F647E20122A68E49080E7F0A3F09034
:10169C0080F3F0A3F0A3F0A3F0908010F0A3F0E49B
:0616AC0090811BF0A3F089
:0116B2002215
:102AD30090811CE004F0700690811BE004F07D0AF5
:092AE3007C007F287E000214D063
:101E9C007F607E20122A2490812DEEF0A3EFF06457
:101EAC00014E600C90812DE07004A3E06402700977
:101EBC0090812DA3E09080F9F07F617E20122A247E
:101ECC0090812DEEF0A3EFF0C39401EE9400401539
:101EDC0090812DE0FEA3E0FFD39404EE9400500516
:101EEC009080F8EFF07F627E20122A2490812DEEF4
:101EFC00F0A3EFF064014E600C90812DE07004A310
:101F0C00E06402700990812DA3E090811AF07F6546
:101F1C007E20122A2490812DEEF0A3EFF0C394A022
:101F2C00EE9400401A90812DE0FEA3E0FFD3944084
:101F3C00EE9401500A9080B2EEF0A3EFF0804E7F49
:101F4C00667E20122A2490812DEEF0A3EFF0C3942C
:101F5C0010EE9400403790812DE0FEA3E0FFD39467
:101F6C0020EE940050277C007D0A1203DF9080B293
:101F7C00EEF0FCA3EFF0FD7F657E20122A689081C5
:101F8C002DE0FCA3E0FD7F667E20122A687F677E31
:101F9C0020122A2490812DEEF0A3EFF064014E6004
:101FAC000C90812DE07004A3E06402700990812DE7
:061FBC00A3E0908097F005
:011FC20022FC
:0510B400908130EFF017
:1010B900E075F008A424FAF9748035F0FAA37401F4
:1010C900F0A3EAF0A3E9F0908130E014601714600E
:1010D90020146029240360030212E67420908134ED
:1010E900F0A3F080229081347420F0A37430F08052
:1010F900169081347420F0A37440F0800A908134F2
:101109007420F0A37450F0908134E0FEA3E0FF1244
:101119002A24EF64024E70047D0280027D019081D1
:1011290031E0FBA3E0FAA3E0F9ED1203AB908135BE
:10113900E02401122A1CD3EF947FEE94005004ADF1
:101149000780027D00908131E0FBA3E0FAA3E0F97A
:10115900900001ED1203BD908135E02402122A1C92
:10116900C3EF9401EE9400401AD3EF9405EE940076
:101179005011908131E0FBA3E0FAA3E0F99000025D
:10118900EF8010908131E0FBA3E0FAA3E0F9900031
:101199000274051203BD908135E02403122A1CC391
:1011A900EF9410EE9400401AD3EF9420EE9400507F
:1011B90011908131E0FBA3E0FAA3E0F9900003EF7D
:1011C9008010908131E0FBA3E0FAA3E0F9900003DD
:1011D90074161203BD908135E02404122A1CC3EF52
:1011E9009464EE9400401ED3EF947BEE9400501566
:1011F900EF249CFD908131E0FBA3E0FAA3E0F99094
:101209000004ED800F908131E0FBA3E0FAA3E0F93F
:10121900900004E41203BD908135E02405122A1CD4
:10122900C3EF9464EE9400401ED3EF949FEE9400B4
:101239005015EF249CFD908131E0FBA3E0FAA3E077
:10124900F9900005ED800F908131E0FBA3E0FAA34E
:10125900E0F9900005E41203BD908135E0240612FF
:101269002A1CC3EF9464EE9400401ED3EF947BEEE6
:1012790094005015EF249CFD908131E0FBA3E0FA26
:10128900A3E0F9900006ED800F908131E0FBA3E027
:10129900FAA3E0F9900006E41203BD908135E02439
:1012A90007122A1CC3EF9464EE9400401ED3EF94F6
:1012B9009FEE94005015EF249CFF908131E0FBA331
:1012C900E0FAA3E0F9900007EF800F908131E0FB8D
:0D12D900A3E0FAA3E0F9900007E41203BDC2
:0112E60022E5
:102A9F00E490812FF090812FE0FFC39404500B122C
:0A2AAF0010B490812FE004F080EBDA
:012AB90022FA
:102A400030030FC3EF94F6EE6480947F5014C205F8
:102A5000800DD3EF940AEE648094804005D2051275
:032A60002B122214
:1026C10090811AE06402702EC3EE6480948040020F
:1026D100803DC3EF94ECEE6480947F4002801FC381
:1026E100EF94D8EE6480947F40067D02C204803A64
:1026F1007D03C2048034C3EE6480948050067D0162
:10270100C2048026C3EF9414EE6480948050067D49
:1027110001D2048015C3EF9428EE648094805006A2
:102721007D02D20480047D03D204AF05122AECA2FB
:06273100049205022B12C8
:1027ED009080F9E0B40103022B369080B2E0FEA395
:1027FD00E0FF908129E0FCA3E0C39FFFEC9EAD07B5
:10280D00FC9080F8E0FFC394014010EFD394035087
:10281D000A122AECAF05AE04022A409080F8E0B40B
:0E282D000407AE04AF050226C1E4FF122AEC38
:01283B00227A
:1029900090809BE0FFD39406400122900001120337
:1029A0007EFD7C007E007401A807088005C333CE3D
:1029B00033CED8F9FFEE5CFEEF5D4E6003D38001AD
:0229C000C32230
:0516B30090812EEFF014
:1016B800E075F008A424FAF9748035F0FAA37401EF
:1016C800F0A3EAF0A3E9F090812EE075F004A424D9
:1016D800A2F9748035F0FA9081327401F0A3EAF02F
:1016E800A3E9F0908097E0B4021690812FE0FBA365
:1016F800E0FAA3E0F9120365B40205122990400F3D
:10170800908132E0FBA3E0FAA3E0F9E40203AB9096
:101718008132E0FBA3E0FAA3E0F91203656003025B
:1017280017CC90812FE0FBA3E0FAA3E0F990000426
:1017380012037EFF90809CE06F60030217CC90003C
:101748000512037EFF90809DE06F7078A3E07074AF
:10175800908132E0FBA3E0FAA3E0F974011203AB35
:101768009080F8E0FF908132E0FBA3E0FAA3E0F973
:10177800900001EF1203BD9080B2E0FFA3E090005B
:1017880002CF8FF012049490812FE0FBA3E0FAA31C
:10179800E0F990000212037EFF9080F9B405057409
:1017A80001F080207402F09080F8EFF090000312AE
:1017B800037EFF7E007C007D0A1203DF9080B2EE7C
:1017C800F0A3EFF0908132E0FBA3E0FAA3E0F91276
:1017D8000365700302188090812FE0FBA3E0FAA351
:1017E800E0F990000612037EFF90809CE06F600392
:1017F80002188090000712037EFF90809DE06F70B2
:0518080077A3E07073FE
:10180D00908136F0908132E0FBA3E0FAA3E0F9E499
:10181D001203AB908135F0908135E0FFC3940450F5
:10182D0021EF25E025E024A2F582E43480F583E064
:10183D0060089081367401F08008908135E004F0E5
:10184D0080D5908136E070069080F904F022908169
:10185D0032E0FBA3E0FAA3E0F990000112037E90C1
:10186D0080F8F090000212045CFF9080B2E5F0F079
:03187D00A3EFF0E6
:011880002245
:102A8100122A9FE490812DF090812DE0FFC39404E0
:0D2A9100500B1216B390812DE004F080EB85
:012A9E002215
:100E3C007F707E20122A2490812DEEF0A3EFF0C358
:100E4C009401EE9400401790812DE0FEA3E0FFD3B7
:100E5C0094F7EE9400500790809FEFF080109080F4
:100E6C009F74F7F0FD7C007F707E20122A687F71E2
:100E7C007E20122A2490812DEEF0A3EFF0C3940172
:100E8C00EE9400401790812DE0FEA3E0FFD3940771
:100E9C00EE940050079080C5EFF080109080C574E0
:100EAC0007F0FD7C007F717E20122A687F727E2005
:100EBC00122A2490812DEEF0A3EFF0C39401EE944E
:100ECC0000401790812DE0FEA3E0FFD39406EE9432
:100EDC000050079080C4EFF080109080C47401F033
:100EEC00FD7C007F727E20122A687F607E20122A91
:100EFC002490812DEEF0A3EFF064014E600C9081F4
:100F0C002DE07004A3E06402700B90812DA3E0909F
:100F1C0080F9F080109080F97402F0FD7C007F6005
:100F2C007E20122A687F617E20122A2490812DEE69
:100F3C00F0A3EFF0C39401EE9400401790812DE0E4
:100F4C00FEA3E0FFD39404EE940050079080F8EFDA
:100F5C00F080109080F87401F0FD7C007F617E20A1
:100F6C00122A687F627E20122A2490812DEEF0A333
:100F7C00EFF064014E600C90812DE07004A3E064EE
:100F8C0002700B90812DA3E090811AF0801090815B
:100F9C001A7402F0FD7C007F627E20122A687F6545
:100FAC007E20122A2490812DEEF0A3EFF0C394A0A2
:100FBC00EE9400401A90812DE0FEA3E0FFD3944004
:100FCC00EE9401500A9080B2EEF0A3EFF0801990ED
:100FDC0080B2E4F0A374DCF07F65122A637D167C8A
:100FEC00007F667E20122A687F677E20122A24905A
:100FFC00812DEEF0A3EFF064014E600C90812DE09A
:10100C007004A3E06402700B90812DA3E090809794
:10101C00F080109080977401F0FD7C007F677E203B
:10102C00122A6812234CE4908129F0A3F0908127B6
:10103C00F0A3F090812BF0A3F0C202FDFC7F637E45
:10104C0020122A68908129E0FEA3E0FF7C007D0A33
:10105C001203F1AC06AD077F647E20122A68E4FF10
:10106C00EF25E025E024A2F582E43480F583E4F05A
:10107C009080F8E0FEEF25E025E024A3F582E4342F
:10108C0080F583EEF09080B2E0FCA3E0FDEF25E06C
:10109C0025E024A4F582E43480F583ECF0A3EDF094
:0810AC000FEFB404BB022A9F00
:1029580012291F122B04120E3C1225D112188112B3
:1029680023F130000312061A122AD3300111C201D2
:1029780012264A1223F1121E9C122A811227ED7F79
:08298800057E00122B2080DA0D
:10010000EC4D6011E8497017ED33EC3304600DE4F9
:10011000FCFFFEFD22E933E8330470F802035012BD
:10012000031B58046009E4CC2481500628500902BE
:10013000035A284003020357C0E0EB4A7044B980D9
:1001400006D0E0FB020346EF4E701CBD8008EBFFBB
:10015000EAFEE9FD80EBE98DF0A4FEE5F00201E99D
:10016000E9CDF9EAFEEBFFEF89F0A4FCE5F0CE89DA
:10017000F0A42EFFE435F0CD89F0A42DFEE435F097
:100180008067EF4E7005BD80D780C3EF8BF0A4ACC5
:10019000F0EE8BF0A42CFCE435F0F8EF8AF0A42C00
:1001A000E5F038FCE433CB8DF0A42CFCE5F03BF813
:1001B000EE8AF0A42CFCE5F038F8E433CF89F0A403
:1001C0002CFCE5F038CF3400CE89F0A42FFFE5F009
:1001D0003EFEE433C98DF0A42EFEE5F039CD8AF061
:1001E000A42FFFE5F03EFEE43DFD33D0E0FB5007D9
:1001F0000BBB000F02035AEC2CFCEF33FFEE33FE77
:06020000ED33FD020332A4
:1002060002035AEC5D046005E859047003020350CA
:1002160012031B580460F6EC4860F2EC7004FDFE15
:10022600FF22C860DB2481C85009C39860025006CB
:100236000203579850CAF582E9294B4A7005AB82EA
:1002460002034675F0007C1A7880C3EF9BEE9AEDA8
:1002560099400DC3EF9BFFEE9AFEED99FDE842F043
:10026600DC23ACF0D0E0FFD0E0FED0E0FDAB822096
:10027600E7101BEB60BAEC2CFCEF33FFEE33FEED20
:1002860033FD020332E803F830E705C0F075F000ED
:10029600EF2FFFEE33FEED33FD40B830E7C280AA04
:1002A60075F020800E75F010800575F0087D007ED3
:1002B600007F003392D530D50312058FEC33401002
:1002C600EF33FFEE33FEED33FDEC33FCD5F0ED22DC
:0E02D600E5F0247EA2D513CC92E7CDCEFF2218
:1002E400EDD2E7CD33EC3392D524814006E4FFFE12
:1002F400FDFC22FCE4CFCECDCC24E0501174FF8071
:10030400EDC3CC13CCCD13CDCE13CECF13CF04700D
:07031400F030D5DE02058F79
:10031B00E9D2E7C933E833F892D5EDD2E7CD33EC28
:07032B0033FC5002B2D522A1
:10033200EC30E7100FBF000C0EBE00080DBD00042C
:100342000BEB6014A2D5EB13FCED92E7FD2274FFD8
:10035200FCFDFEFF22E480F8A2D574FF13FC7D8031
:03036200E480EF45
:1024B400022958E493A3F8E493A34003F68001F2BD
:1024C40008DFF48029E493A3F85407240CC8C33329
:1024D400C4540F4420C8834004F456800146F6DFF8
:1024E400E4800B0102040810204080902290E47ED6
:1024F400019360BCA3FF543F30E509541FFEE493ED
:10250400A360010ECF54C025E060A840B8E493A3B3
:10251400FAE493A3F8E493A3C8C582C8CAC583CADE
:10252400F0A3C8C582C8CAC583CADFE9DEE780BE96
:01234B000091
:10036500BB010689828A83E0225002E722BBFE0296
:09037500E32289828A83E49322C9
:10037E00BB010CE58229F582E5833AF583E0225034
:10038E0006E92582F8E622BBFE06E92582F8E2227E
:0D039E00E58229F582E5833AF583E4932298
:1003AB00BB010689828A83F0225002F722BBFE0131
:0203BB00F3222B
:1003BD00F8BB010DE58229F582E5833AF583E8F076
:1003CD00225006E92582C8F622BBFE05E92582C822
:0203DD00F2220A
:1003DF00EF8DF0A4A8F0CF8CF0A428CE8DF0A42E32
:0203EF00FE22EC
:1003F100BC000BBE0029EF8DF084FFADF022E4CCF0
:10040100F875F008EF2FFFEE33FEEC33FCEE9DECB8
:10041100984005FCEE9DFE0FD5F0E9E4CEFD22EDFE
:10042100F8F5F0EE8420D21CFEADF075F008EF2F48
:10043100FFED33FD4007985006D5F0F222C398FD39
:050441000FD5F0EA22D6
:10044600A3F8E0C5F025F0F0E58215827002158369
:06045600E0C838F0E822C6
:10045C00BB0110E58229F582E5833AF583E0F5F0DE
:10046C00A3E0225009E92582F886F008E622BBFEBB
:10047C000AE92582F8E2F5F008E222E5832AF58301
:08048C00E993F5F0A3E99322C6
:10049400F8BB0111E58229F582E5833AF583E8F09A
:1004A400E5F0A3F0225009E92582C8F608A6F02257
:0D04B400BBFE09E92582C8F2E5F008F2223E
:1004C10075F008758200EF2FFFEE33FECD33CDCCF2
:1004D10033CCC58233C5829BED9AEC99E582984075
:1004E1000CF582EE9BFEED9AFDEC99FC0FD5F0D652
:1004F100E4CEFBE4CDFAE4CCF9A88222B800C1B97C
:100501000059BA002DEC8BF084CFCECDFCE5F0CBB9
:10051100F97818EF2FFFEE33FEED33FDEC33FCEBF2
:1005210033FB10D703994004EB99FB0FD8E5E4F9AD
:10053100FA227818EF2FFFEE33FEED33FDEC33FC9A
:10054100C933C910D7059BE99A4007EC9BFCE99A8E
:10055100F90FD8E0E4C9FAE4CCFB2275F010EF2FD3
:10056100FFEE33FEED33FDCC33CCC833C810D707D3
:100571009BEC9AE899400AED9BFDEC9AFCE899F80E
:0E0581000FD5F0DAE4CDFBE4CCFAE4C8F922A1
:0E058F00C3E49FFFE49EFEE49DFDE49CFC227D
:10059D00E8600FECC313FCED13FDEE13FEEF13FF3C
:0305AD00D8F12260
:0C05B000ECF0A3EDF0A3EEF0A3EFF022BE
:1005BC00A8828583F0D083D0821205D31205D31282
:1005CC0005D31205D3E473E493A3C583C5F0C583A7
:1005DC00C8C582C8F0A3C583C5F0C583C8C582C889
:0105EC0022EC
:1005ED00D083D082F8E4937012740193700DA3A39D
:1005FD0093F8740193F5828883E473740293B5F0D4
:0D060D00067403936860E9A3A3A3A380D83B
:00000001FF
