:030000000225D9FD
:0800F800FFFF4457494E543547
:1025D900759401759502758E0075930075C87075AF
:1025E900C96075F800787FE4F6D8FD758120022668
:0125F90035AC
:100EC4007D28771A715E6BF166CD61EF5D5158F143
:100ED40054CB50DC4D4C4996463943083FFF3D1EE8
:100EE4003A6137C8354F32F530B82E982C912AA480
:100EF40028CF2710256623D0224D20DD1F7E1E2FEC
:100F04001CEF1BBF1A9C1986187E1781168F15A912
:100F140014CC13FA1331127011B8110810600FBFFA
:100F24000F250E920DF40D7E0CFC0C810C0A0B980F
:100F34000B2B0AC30A5E09FE09A2094A08F508A494
:100F44000856080B07C3077E073B06FC06BE06844B
:100F5400064B061505E005AE057E054F052204F790
:100F640004CE04A6047F045A0437041503F303D4FF
:100F740003B50397037B035F0345032B031202FBB3
:100F840002E402CE02B802A3802079A573846DBA6C
:100F9400684263165E345997553C511F4D3D499341
:100FA400461D42D93FC33CDA3A1A3780350B32B773
:100FB40030832E6D2C722A9028C52710252923688A
:100FC40021C920471EE01D921C581B301A1A1914FF
:100FD400181A172C164B157314A413DD131F12685B
:100FE40011B8110F106C0FCF0F380EA60E1A0D93F7
:100FF4000D120C950C1D0BAB0B3C0AD30A6E0A0D9B
:1010040009B00957090308B20864081A07D40790FD
:10101400074F071106D6069D063205FF05CE059F2C
:1010240005710544051904EE04C4049A04710449C5
:10103400042003FF03DF03C003A30387036C0352ED
:1010440003390321030902F302DD02C902B402A138
:101054000003030601040602050003051F1C1F1EEE
:101064001F1E1F1F1E1F1E1F00C1814001C0804183
:1010740001C0804100C1814001C0804100C1814064
:1010840000C1814001C0804101C0804100C1814054
:1010940000C1814001C0804100C1814001C0804144
:1010A40001C0804100C1814001C0804100C1814034
:1010B40000C1814001C0804100C1814001C0804124
:1010C40001C0804100C1814000C1814001C0804114
:1010D40001C0804100C1814001C0804100C1814004
:1010E40000C1814001C0804101C0804100C18140F4
:1010F40000C1814001C0804100C1814001C08041E4
:1011040001C0804100C1814000C1814001C08041D3
:1011140001C0804100C1814001C0804100C18140C3
:1011240000C1814001C0804100C1814001C08041B3
:1011340001C0804100C1814001C0804100C18140A3
:1011440000C1814001C0804101C0804100C1814093
:1011540000C1814001C0804100C1814001C0804183
:1011640001C0804100C1814000C0C101C30302C26B
:10117400C60607C705C5C404CC0C0DCD0FCFCE0ED3
:101184000ACACB0BC90908C8D81819D91BDBDA1A43
:101194001EDEDF1FDD1D1CDC14D4D515D71716D6B3
:1011A400D21213D311D1D010F03031F133F3F23223
:1011B40036F6F737F53534F43CFCFD3DFF3F3EFE93
:1011C400FA3A3BFB39F9F83828E8E929EB2B2AEA03
:1011D400EE2E2FEF2DEDEC2CE42425E527E7E62673
:1011E40022E2E323E12120E0A06061A163A3A262E3
:1011F40066A6A767A56564A46CACAD6DAF6F6EAE53
:10120400AA6A6BAB69A9A86878B8B979BB7B7ABAC2
:10121400BE7E7FBF7DBDBC7CB47475B577B7B67632
:1012240072B2B373B17170B05090915193535292A2
:1012340096565797559594549C5C5D9D5F9F9E5E12
:101244005A9A9B5B99595898884849894B8B8A4A82
:101254004E8E8F4F8D4D4C8C4484854587474686F2
:08126400824243834181804076
:1023DF0047809A19010100000000020A000002085C
:1023EF000000C1014180D0024180CF014180F10244
:1023FF004280B400DC42810000DCC182418099013F
:10240F004180A1F74180BD074180BC014180980008
:10241F004180CE00C1005080BE00000000000000CF
:10242F000000000000000000004680B60000000021
:10243F000000428054000042809600004280FA0063
:10244F00004280FC00004280FE000042810200003A
:10245F004280F200004280A2000A4680F4000A0087
:10246F0000006E508000000000000000000000001F
:10247F0000000000000042801000004280120000A7
:102AAA00C2AF75940175950275C960E4F5F875F9B8
:102ABA0001F5A8F5B8F59A758911758CBC758ACD9A
:102ACA00D2A9D28C75C870F5CDF5CC75CBBC75CAB8
:092ADA00CD43A820D2C8D2AF22DE
:0A2718009080BDE0FF9080BCE0FD62
:05272200908114EDF0B0
:10272700EF14B40700504990273C75F003A4C58304
:1027370025F0C5837302275102275702275D022719
:102747006302276902276F0227757A2A7B00802494
:102757007A157B00801E7A0A7B8080187A057B4079
:1027670080127A027BA0800C7A017BC080068000F1
:102777007A007BE075A78075AB80EAF5AEEBF5AF25
:0927870043B702C281D2BDD2AFFA
:012790002226
:0E2C8F0043BC1ED293C291C294C292D20222C2
:03000B0002298344
:10298300C0E0C083C082C0D0C2AF758CBC758ACD95
:102993000509E50970020508C394E8E508940340B6
:1029A30008750800750900D2019080CEE0D3940029
:1029B3004011E014F0E0700B908098E0D394004055
:0E29C30002D200D2AFD0D0D082D083D0E0328A
:03002B00022C455F
:102C4500C0E0C2AFC2C6E50B450A6008E50B150B2F
:092C55007002150AD2AFD0E03282
:03006B000229D196
:0F29D100C0E0C083C082C0D075D000C006C00770
:1029E000C2AFE5AB30E026AFAD53ABFE908098E0D0
:1029F000C394405010E0FE04F074142EF582E434C9
:0F2A000080F583EFF09080CE740AF0C200D2AF61
:0D2A0F00D007D006D0D0D082D083D0E032E6
:0B2CAB008E0A8F0BE50B450A70FA2221
:0B2CB6008FACE5A730E0FB53A7FE2227
:102B4D00908110EBF0A3EAF0A3E9F0D281AF051D5F
:102B5D00EF6019908110E0FBA3E475F001120446BB
:0F2B6D00A9F0FA120365FF122CB680E1C2812293
:062A1C007B017A8079566F
:0E2A2200908110EBF0A3EAF0A3E9F0A3EDF031
:102A30007FFF7DFF908113E0FE14F0EE6023908114
:102A400010E0FBA3E475F001120446A9F0FA1203AA
:102A5000656FFE90106C936DFFEE90116C93FD808E
:052A6000D3EFFEEDFFC5
:012A6500224E
:101C6800908114EEF0A3EFF0A3EBF0A3EAF0A3E960
:011C7800F07B
:101C7900908114E0FEA3E0FFE4FCFD7B02FAF9F891
:101C890012054C90811B1205FF908114A3E05401A9
:101C9900FB90811BE0FCA3E0FDA3E0FEA3E0FF783D
:101CA900101205EC8FF190811BE0FCA3E0FDA3E08D
:101CB900FEA3E0FF78081205EC8FF290811BA3A325
:101CC900A3E0FF8FF375F40175F8AFAF03EF604040
:101CD90030FCFDD2FE20FEFD908116E0FBA3E475E9
:101CE900F001120446A9F0FAE5FC1203AB90811643
:101CF900E0FBA3E475F001120446A9F0FAE5FD1230
:101D090003AB90811AE024FFF0908119E034FFF0D1
:101D1900908119E0FCA3E0FDECC313FEED13FFED88
:101D290030E0050FBF00010EEF1FAC0670011E4C1D
:101D39007003021DDC90811AE030E038EF4E7034F8
:101D490030FCFDD2FE20FEFD908116E0FBA3E47578
:101D5900F001120446A9F0FAE5FA1203AB908116D4
:101D6900E0FBA3E475F001120446A9F0FAE5FB12C1
:101D790003AB805F30FCFDD2FE20FEFD908116E0B2
:101D8900FBA3E475F001120446A9F0FAE5FA12037F
:101D9900AB908116E0FBA3E475F001120446A9F0AB
:101DA900FAE5FB1203AB908116E0FBA3E475F001A1
:101DB900120446A9F0FAE5FC1203AB908116E0FB88
:101DC900A3E475F001120446A9F0FAE5FD1203AB8C
:061DD900021D31E4F5F8E3
:011DDF0022E1
:101AC300908116EEF0A3EFF0A3EBF0A3EAF0A3E905
:011AD300F022
:101AD400C2AF908116E0FEA3E0FFE4FCFD7B02FAB6
:101AE400F9F812054C90811D1205FF908116A3E0B0
:101AF4005401FB90811DE0FCA3E0FDA3E0FEA3E004
:101B0400FF78101205EC8FF190811DE0FCA3E0FD3D
:101B1400A3E0FEA3E0FF78081205EC8FF290811D8C
:101B2400A3A3A3E0FF8FF375F40175F88FAF03EF60
:101B34006054E4F5F475F8AF30FCFDD2FE20FEFDF0
:101B440075F40175F88F30FCFD908118E0FBA3E477
:101B540075F001120446A9F0FA120365F5FC9081B0
:101B640018E0FBA3E475F001120446A9F0FA12038D
:101B740065F5FDD2FE20FEFD90811CE024FFF0906F
:101B8400811BE034FFF090811BE0FCA3E0FDECC37B
:101B940013FEED13FFED30E0050FBF00010EEF1F44
:101BA400AC0670011E4C7003021C6290811CE03074
:101BB400E04BEF4E7047F5F475F8AF30FCFDD2FE04
:101BC40020FEFD75F40175F88F30FCFD908118E05E
:101BD400FBA3E475F001120446A9F0FA120365F5BB
:101BE400FA908118E0FBA3E475F001120446A9F011
:101BF400FA120365F5FBD2FE30FE6380FB30FCFD78
:101C0400908118E0FBA3E475F001120446A9F0FAF0
:101C1400120365F5FA908118E0FBA3E475F0011254
:101C24000446A9F0FA120365F5FB908118E0FBA3C2
:101C3400E475F001120446A9F0FA120365F5FC906C
:101C44008118E0FBA3E475F001120446A9F0FA122E
:101C54000365F5FDD2FE20FE03021BA280F8E4F525
:031C6400F8D2AF04
:011C6700225A
:052BEE00FD7C007E20CB
:102BF300EC908114F0EDA3F07B017A81791490813C
:092C03001BE4F0A304F0021AC363
:082BA700FF90810BE03400FEF9
:102BAF007B017A817912908119E4F0A304F0121C51
:0B2BBF0068908112E0FEA3E0FDEDFF36
:012BCA0022E8
:1022EE00908110EEF0A3EFF0C39420EE94204013F3
:1022FE00908110E0FEA3E0FFD39457EE942050039C
:10230E00022BAF908110E0FEA3E08EF012063C236C
:10231E0069201023752011237A2012237F20132386
:10232E0084201423892015238E20162393206023C6
:10233E00982061239D206223A2206323A72064237B
:10234E00AC206523B5206623C4206723C9207023E3
:10235E00CE207123D32072000023DB90809AE024DC
:10236E00D0FFE43407FE2290809B805C90809C809E
:10237E005790809D805290809E804D90809F804887
:10238E009080A080439080D0803E9080CF80399006
:10239E0080F180349081008008908100800C9080C4
:1023AE00B4E0FEA3E0FF229080B4E0FEA3E0FF7C49
:1023BE00007D0A0203F1908099800D9080A1800823
:1023CE009080BD80039080BCE0FF7E0022E4FEFF83
:0123DE0022DC
:10170C00908112ECF0A3EDF0908110EEF0A3EFF0CD
:10171C00C39420EE94204019908110E0FEA3E0FFCA
:10172C00D39457EE94205009A3E0FCA3E0FD0218DB
:10173C0091908110E0FEA3E08EF012063C176D2014
:10174C00601796206117C8206217F1206518402099
:10175C0067186820701897207118C0207200001844
:10176C00F2908112E0FEA3E0FF64014E6009EF6489
:10177C00024E60030218F2908112E0FCA3E0FD908F
:10178C0080D0F07F607E20021891908112E0FEA341
:10179C00E0FFC39401EE940050030218F2D3EF94CF
:1017AC0004EE940040030218F2908112E0FCA3E0D6
:1017BC00FD9080CFF07F617E20021891908112E025
:1017CC00FEA3E0FF64014E6009EF64024E60030269
:1017DC0018F2908112E0FCA3E0FD9080F1F07F62A2
:1017EC007E20021891908112E0FEA3E0FFC394A02A
:1017FC00EE940050030218F2D3EF9440EE940140A3
:10180C00030218F2908112E0FCA3E0FD9080B4EC8E
:10181C00F0A3EDF07F657E20122BF3908112E0FE99
:10182C00A3E0FF7C007D0A1203F1AC06AD077F66D6
:10183C007E208051908112E0FEA3E0FF64014E6097
:10184C0009EF64024E60030218F2908112E0FCA3CF
:10185C00E0FD908099F07F677E208029908112E0D6
:10186C00FEA3E0FFC39401EE9400407AD3EF94F70B
:10187C00EE94005071908112E0FCA3E0FD9080A1E9
:10188C00F07F707E20122BF37F0122908112E0FEFC
:10189C00A3E0FFC39401EE9400404BD3EF9407EE0A
:1018AC0094005042908112E0FCA3E0FD9080BDF0CA
:1018BC007F718027908112E0FEA3E0FFC39401EEBC
:1018CC0094004022D3EF9406EE94005019908112AC
:1018DC00E0FCA3E0FD9080BCF07F727E20122BF325
:0918EC001227187F01227F00225F
:0C287E00908107E02FFF908106E03EFEF5
:10288A00C3EF9410EE9420400CD3EF9416EE9420EC
:10289A0050037F0122C3EF9420EE9420400CD3EF23
:1028AA009457EE942050037F0122C3EF9460EE9474
:1028BA0020400CD3EF9467EE942050037F0122C38B
:1028CA00EF9470EE9420400CD3EF9472EE94205063
:0728DA00037F01227F0022B1
:10066900908098E0FFC394045003020ACF7B017A7B
:10067900807914EF24FEFD122A2290810CEEF0FC01
:10068900A3EFF0FD908098E0FB2413F582E4348019
:10069900F583E0FE74122BF582E43480F583E0FBE8
:1006A900EB6D7002EC6E6003020ACF908014E0FFDC
:1006B900908104F0908015E0908105F09080A1E090
:1006C900FEEF6E6009908104E06003020ACF908119
:1006D90005E024FA700302084424F670030208B204
:1006E900240D60030209FD908098E0C3940850032B
:1006F900020ACF908016E0FEA3E0FDEDFF9081068F
:10070900EEF0A3EFF0908018E0FEA3E0FDEDFF907E
:100719008108EEF0A3EFF04E7003020A88D3E0944B
:100729007D908108E094004003020A88E490810EDC
:10073900F090810EE0FF7E00D3908109E09F9081C7
:1007490008E09E401112287EEF7003020A4790814B
:100759000EE004F080DB908104E0908056F09081F7
:1007690005E0908057F0908108A3E025E09080583B
:10077900F090810F7403F0E490810EF090810EE007
:10078900FF7E00D3908109E09F908108E09E40514F
:10079900908107E02FFF908106E03EFE1222EE9045
:1007A900810AEEF0A3EFF090810AE0FCA3E0FDECF2
:1007B900FF90810FE0FE04F074562EF582E4348038
:1007C900F583EFF0AF0590810FE0FE04F074562E2B
:1007D900F582E43480F583EFF090810EE004F08037
:1007E9009B7B017A80795690810FE0FD122A229035
:1007F900810CEEF0A3EFF090810CE0FEA3E0FD90F8
:10080900810FE0FC04F074562CF582E43480F58302
:10081900EDF0EEFF90810FE0FE04F074562EF582A4
:10082900E43480F583EFF0908104E07003020ACF8D
:100839007B017A80795690810F8069908098E0C316
:1008490094085003020ACF908016E0FEA3E0FDED64
:10085900FF908106EEF0FCA3EFF0908018E0FEA374
:10086900E0FBEBFF90810AEEF0A3EFF0AF05AE04D9
:1008790012288AEF7003020A47908106E0FEA3E07E
:10088900FF90810AE0FCA3E0FD12170CEF70030250
:100899000A88908104E07003020ACF7B017A80798B
:1008A90014908098E0FD020ACC908098E0C39409E6
:1008B9005003020ACF908016E0FEA3E0FDEDFF9001
:1008C9008106EEF0A3EFF0908018E0FEA3E0FDEDC5
:1008D900FF908108EEF0A3EFF04E7003020A8890B2
:1008E9008108E0FEA3E0FFD3947BEE94004003026D
:1008F9000A88EF25E0FFEE33FEEF2409FFE43EFE10
:10090900908098E0C39FE49E5003020ACFE490814F
:100919000EF090810EE0FF7E00D3908109E09F9058
:100929008108E09E401112287EEF7003020A479069
:10093900810EE004F080DBE490810EF090810EE0FE
:10094900F9FFD3908109E09F908108E09400404528
:1009590090810EE0FD25E0241BF582E43480F583C7
:10096900E0FEED25E0241CF582E43480F583E0FD0A
:10097900EDFF90810AEEF0FCA3EFF0E9FF9081070B
:10098900E02FFF908106E03400FE12170C90810ED3
:10099900E004F080A7908104E0908056F0908105F2
:1009A900E0908057F0908016E0908058F090801782
:1009B900E0908059F0908018E090805AF09080196A
:1009C900E090805BF07D06122A1C90810CEEF0A36A
:1009D900EFF090810CE0FCA3E090805CF0ECA3F0D8
:1009E900908104E07003020ACF7B017A8079567DF9
:1009F90008020ACC908104E0908056F0908105E0CD
:100A09004480908057F0A37401F0FB7A8079567D79
:100A190003122A2290810CEEF0A3EFF090810CE0F2
:100A2900FCA3E0908059F0ECA3F0908104E07003FE
:100A3900020ACF7B017A8079567D05020ACC908122
:100A490004E0908056F0908105E04480908057F052
:100A5900A37402F07D03122A1C90810CEEF0A3EF1F
:100A6900F090810CE0FCA3E0908059F0ECA3F090A9
:100A79008104E060517B017A8079567D058044903C
:100A89008104E0908056F0908105E0448090805781
:100A9900F0A37403F07B017A807956FD122A229023
:100AA900810CEEF0A3EFF090810CE0FCA3E09080C4
:100AB90059F0ECA3F0908104E0600B7B017A807916
:0D0AC900567D05122B4DE4908098F0C20080
:010AD60022FD
:072CC900C291C294C29222E5
:0E2C9D00300403D38001C39293A2049202225A
:102C7700122CC9EF24FE600A14600A24027008D2DD
:082C87009122D29422D2922284
:082CC100122CC9D204022C9D63
:102B7C00AB07AA067C017D901203F1ED4C7002D3D9
:102B8C00227C007D64AF03AE021203F1ED4C7002A7
:0B2B9C00C322EB54037002D322C322BB
:0B267A0090809AE0FFA3E0FDA3E0FBCE
:0826850090810EEDF0A3EBF0D3
:10268D00EF24D0FFE43407AB07FA7C007D64FE1223
:10269D0003F1A3EFF0AE02AF037C007D641203F1F2
:1026AD00A3EDF0908110E0D394134005A3E02464D2
:1026BD00F0908111E0FF1313543FFDEF2DFFE43334
:1026CD00FE7C007D071203F1AE04AF0590810FE093
:1026DD002FFFE43EFE90810EE0F9901053937C00A5
:1026ED002FFFEC3EFE908111E05403700BE9C39473
:1026FD00035005EF1F70011E7C007D071203F1AE24
:0A270D0004AF05EF4E70037F0722B2
:01271700229F
:102791009080A0E004F0E0C3943C406AE4F09080B3
:1027A1009FE004F0E0943C405DE4F090809EE00402
:1027B100F0E094184050E4F090809CE004F09080A8
:1027C1009BE0FF90105F93F9EFB4021290809AE0C2
:1027D10024D0FFE43407FE122B7C5002791D908037
:1027E1009CE0D39940187401F090809BE004F0E0E4
:1027F100D3940C40097401F090809AE004F0122601
:062801007A90809DEFF0CB
:0128070022AE
:101DE0007F107E20122BAF908104EEF0A3EFF07FE6
:101DF000117E20122BAF908106EEF0A3EFF07F1240
:101E00007E20122BAF908108EEF0A3EFF07F147EBE
:101E100020122BAF90810AEEF0A3EFF07F157E2009
:101E2000122BAF90810CEEF0A3EFF07F167E201204
:101E30002BAFAD07AC06908104E0FEA3E0FFC39496
:101E4000D0EE94075003021F45D3EF9434EE94086C
:101E50004003021F45A3E0FEA3E0FFC39465EE9498
:101E6000005003021F45D3EF9470EE94004003022C
:101E70001F45A3E0FEA3E0FFC39465EE940050036A
:101E8000021F45D3EF9483EE94004003021F459058
:101E90008104A3E0243090809AF0908106A3E0248E
:101EA0009C90809BF0908108A3E0249C90809CF003
:101EB00090810AE0FEA3E0FFC39464EE9400400F1B
:101EC000D3EF947BEE94005006EF249CFF800590A6
:101ED000809EE0FF90809EEFF090810CE0FEA3E0FA
:101EE000FFC39464EE9400400FD3EF949FEE9400F0
:101EF0005006EF249CFF800590809FE0FF90809F1C
:101F0000EFF0C3ED9464EC9400400FD3ED949FEC9C
:101F100094005006ED249CFF80059080A0E0FF9087
:101F200080A0EFF090809EE0D394174002E4F09000
:101F3000809FE0D3943B4002E4F09080A0E0D394F3
:0D1F40003B4002E4F012267A90809DEFF005
:011F4D002271
:1025370090809CE0FFC394014008EFD3941F5002A2
:1025470080027F01908104EFF090809BE0FFC394AD
:10255700014008EFD3940C500280027F019081055F
:10256700EFF090809AE024D0FDE43407FC7F107EE2
:1025770020122BF3908105E02464FDE433FC7F11E6
:102587007E20122BF3908104E02464FDE433FC7F6A
:10259700127E20122BF390809DE07F13122BEE907A
:1025A700809EE02464FDE433FC7F147E20122BF32D
:1025B70090809FE02464FDE433FC7F157E20122B7E
:1025C700F39080A0E02464FDE433FC7F167E2002B4
:0225D7002BF3E4
:10249000C2037B017A8079F4908119E4F0A374037C
:1024A000F07F507E25121C689080F4E0FEA3E0FFD0
:1024B000D39400EE64809480401CA3E0FCA3E0FD74
:1024C000EC64809480400FED240AFDE43CFCEF6D49
:1024D0007002EE6C6002D2037F547E25122BAFEFA8
:1024E0004E700A9080A2F0A37405F08021EF640181
:1024F0004E9080A27007F0A3740AF08011E4F0A35C
:10250000740AF07D017C007F547E25122BF330038A
:10251000259080F4E4F0A3740AF0E4A3F0A3F09013
:1025200080A2E0FEA3E0FF7C007D0B1203DF908021
:06253000F8EEF0A3EFF04D
:012536002282
:1028E1007B017A807900908119E4F0A37408F07F6C
:1028F100327E00121C68908000E0FEA3E0FF908011
:10290100BFE02FF09080BEE03EF090800CE0FEA38F
:10291100E0FF9080CBE02FF09080CAE03EF0908005
:102921000EE0FEA3E0FF9080CDE02FF09080CCE0A0
:022931003EF076
:012933002281
:0421D400AB07AA06A5
:1021D80090811212060B0000000090811612060B67
:1021E800000000009080BEE0FEA3E0FFAD03AC025B
:1021F8001203F19080B6EEF0A3EFF09080CAE0FEF3
:10220800A3E0FFAD03AC021203F19080B8EEF0A397
:10221800EFF0AC02AD039080CCE0FEA3E0FF120328
:10222800F19080BAEEF0A3EFF0C39080B9E09FFD83
:102238009080B8E09EFCE41202ABC004C005C00662
:10224800C0079080BAE0FCA3E0FDE41202ABD00323
:10225800D002D001D0001202099081121205FF901D
:1022680080B6E0FEA3E0FFC39080B9E09FFD9080B8
:10227800B8E09EFCE41202ABC004C005C006C0076B
:102288009080B6E0FCA3E0FDE41202ABD003D002DC
:10229800D001D0001202099081161205FF7F007E3E
:1022A800407D1C7C46908112E0F8A3E0F9A3E0FA97
:1022B800A3E0FB1201001202E4908054EEF0A3EFB9
:1022C800F07F007E407D1C7C46908116E0F8A3E0FC
:1022D800F9A3E0FAA3E0FB1201001202E490809651
:0522E800EEF0A3EFF091
:0122ED0022CE
:101F4E007BFFE0FFA3E0908116CFF0A3EFF07D645E
:0E1F5E00908112EBF0A3EAF0A3E9F0A3EDF0FE
:101F6C00E4908118F0A3F0A3F0A3F09081197463AE
:101F7C00F0908112E0FBA3E0FAA3E0F9908118E065
:101F8C0075F002A4F58285F08312045CFF90811633
:101F9C00E0FCA3E0FDC39FEC95F04004A3E0FF221E
:101FAC00908112E0FBA3E0FAA3E0F9908119E075AF
:101FBC00F002A4F58285F08312045CFFD3ED9FEC54
:101FCC0095F05006908119E0FF22908119E0FF9066
:101FDC008118E0FEC39F4003022097EFFDEE2DFF1A
:101FEC00E433C313EF1390811AF0908112E0FBA33A
:101FFC00E0FAA3E0F990811AE075F002A4F582856D
:10200C00F08312045CFFAEF0908116E0FCA3E0FDBF
:10201C006F7002EC6E6074C3ED9FEC9E502190814A
:10202C001AE02401FFE433FEEF25E0FFEE33FE8FD0
:10203C00828E8312045CFFD3ED9FEC95F0504C9094
:10204C008112E0FBA3E0FAA3E0F990811AE075F0AD
:10205C0002A4F58285F08312045CFFD3908117E013
:10206C009F908116E095F090811AE04006908119BE
:10207C00F08004908118F0908115E0FF90811BE0B6
:10208C00FE04F0EED39F5003021FD6908119E0FF9F
:10209C00908118E0D39F40037F002290811AE0FFCB
:0120AC002211
:0C0AD700908104ECF0A3EDF0AB07AA0640
:100AE300A312060B0000000090810A12060B0000FF
:100AF3000000D39080F3E09B9080F2E09A500302D1
:100B03000EC31228E1908011E004F070069080106B
:100B1300E004F0908104E0FEA3E0FFC3908011E0C5
:100B23009F908010E09E5003020EBC1221D47A0ED7
:100B330079C4908054121F4E9080FAE4F0A3EFF032
:100B43007A0F798C908096121F4E9080FCE4F0A36C
:100B5300EFF09080FBE025E0FF9080FAE033FE7435
:100B6300C62FF582740E3EF583E493FC740193FD66
:100B730074C42FF582740E3EF583C37401939DFDF7
:100B8300E4939CFCE41202ABC004C005C006C0079A
:100B93009080FBE025E0FF9080FAE033FE74C42FE1
:100BA300F582740E3EF583E493FE740193FF908007
:100BB30054E0FCA3E0FDC3EF9DFDEE9CFCE41202B8
:100BC300ABD003D002D001D00012020990810612EB
:100BD30005FF9080FDE025E0FF9080FCE033FE748C
:100BE3008E2FF582740F3EF583E493FC740193FD1D
:100BF300748C2FF582740F3EF583C37401939DFDAE
:100C0300E4939CFCE41202ABC004C005C006C00719
:100C13009080FDE025E0FF9080FCE033FE748C2F94
:100C2300F582740F3EF583E493FE740193FF908085
:100C330096E0FCA3E0FDC3EF9DFDEE9CFCE41202F5
:100C4300ABD003D002D001D00012020990810A1266
:100C530005FFE4FFFE7D207C41908106E0F8A3E0E0
:100C6300F9A3E0FAA3E0FB1201001202E4AB07AA26
:100C7300069080FAE0FEA3E0FF7C007D0A1203DF0A
:100C8300EF2BFFEE3A9080FAF0A3EFF0E4FFFE7D46
:100C9300207C4190810AE0F8A3E0F9A3E0FAA3E005
:100CA300FB1201001202E4AB07AA069080FCE0FEEF
:100CB300A3E0FF7C007D0A1203DFEF2BFFEE3A90E7
:100CC30080FCF0A3EFF09080FAE0FEA3E0FBAA061D
:100CD300E4F9F89080F4E0FEA3E0FFEE3395E0FD45
:100CE300FC1204C190810E1205FF90810EE0FCA35B
:100CF300E0FDA3E0FEA3E0FFC004C005C006C007FB
:100D03009080FCE0FEA3E0FBAA06E4F9F89080F6ED
:100D1300E0FEA3E0FFEE3395E0FDFC1204C1A8045E
:100D2300A905AA06AB07D007D006D005D004C3EFA8
:100D33009BFFEE9AFEED99FDEC98FC90810E120557
:100D4300FF90810EE0F8A3E0F9A3E0FAA3E0FB90A3
:100D530080F8E0FEA3E0FFEE3395E0FDFCEB2FFF10
:100D6300EA3EFEE93DFDE83CFC90810E1205FF9052
:100D730080A2E0FEA3E0FFE4FCFD7B0AFAF9F8128F
:100D830004C1A804A905AA06AB0790810EE0FCA341
:100D9300E0FDA3E0FEA3E0FF122A66E47B0AFAF972
:100DA300F81204C190810E1205FF90810EE0FCA39E
:100DB300E0FDA3E0FEA3E0FFEC33500A90810E12A6
:100DC300060B0000000090810EA3A3E0FEA3E0FF4A
:100DD3009080FEEEF0A3EFF0908102E0FCA3E0FD33
:100DE300C3EF9DFFEE9CAD07FCC364809480500766
:100DF300C3E49DFDE49CFC9080A2E0FEA3E0FFB56C
:100E03000545EEB50441908013E004F07006908030
:100E130012E004F0C3908013E09405908012E094F4
:100E230000500C908102E0FDA3E09080FE8011E46D
:100E3300908012F0A3F09080FEE0FDA3E090810289
:100E4300CDF0A3EDF0802AEF25E0FFEE33FEC3EDF6
:100E53009FEE6480F8EC64809840169080FEE0FF7B
:100E6300A3E0908102CFF0A3EFF0E4908012F0A30F
:100E7300F09080FEE0FEA3E0FFA3EEF0FCA3EFF012
:100E8300FD7F637E20122BF3908100E0FEA3E0FF41
:100E93007C007D0A1203F1AC06AD077F647E20124D
:100EA3002BF3E49080BEF0A3F09080CAF0A3F0A3EC
:100EB300F0A3F0908010F0A3F0E49080F2F0A3F0A0
:010EC300220C
:102C5E009080F3E004F070069080F2E004F07D0ABC
:092C6E007C007FC87E00020AD739
:1020AD007F607E20122BAF908104EEF0A3EFF064E1
:1020BD00014E600C908104E07004A3E0640270098D
:1020CD00908104A3E09080D0F07F617E20122BAF31
:1020DD00908104EEF0A3EFF0C39401EE940040154F
:1020ED00908104E0FEA3E0FFD39404EE940050052C
:1020FD009080CFEFF07F627E20122BAF908104EEA7
:10210D00F0A3EFF064014E600C908104E07004A325
:10211D00E064027009908104A3E09080F1F07F6586
:10212D007E20122BAF908104EEF0A3EFF0C394A0AC
:10213D00EE9400401A908104E0FEA3E0FFD394409A
:10214D00EE9401500A9080B4EEF0A3EFF0804E7F34
:10215D00667E20122BAF908104EEF0A3EFF0C394B6
:10216D0010EE94004037908104E0FEA3E0FFD3947D
:10217D0020EE940050277C007D0A1203DF9080B47E
:10218D00EEF0FCA3EFF0FD7F657E20122BF3908126
:10219D0004E0FCA3E0FD7F667E20122BF37F677EBB
:1021AD0020122BAF908104EEF0A3EFF064014E608E
:1021BD000C908104E07004A3E06402700990810426
:0621CD00A3E0908099F0F0
:0121D30022E9
:0514D900908107EFF017
:1014DE00E075F008A424D1F9748035F0FAA37401F4
:1014EE00F0A3EAF0A3E9F0908107E014601714600E
:1014FE00201460292403600302170B742090810BC3
:10150E00F0A3F0802290810B7420F0A37430F08051
:10151E001690810B7420F0A37440F0800A90810B1A
:10152E007420F0A37450F090810BE0FEA3E0FF1244
:10153E002BAFEF64024E70047D0280027D0190811C
:10154E0008E0FBA3E0FAA3E0F9ED1203AB90810CE7
:10155E00E02401122BA7D3EF947FEE94005004AD3C
:10156E000780027D00908108E0FBA3E0FAA3E0F97A
:10157E00900001ED1203BD90810CE02402122BA706
:10158E00C3EF9401EE9400401AD3EF9405EE94004D
:10159E005011908108E0FBA3E0FAA3E0F99000025D
:1015AE00EF8010908108E0FBA3E0FAA3E0F9900031
:1015BE000274051203BD90810CE02403122BA7C305
:1015CE00EF9410EE9400401AD3EF9420EE94005056
:1015DE0011908108E0FBA3E0FAA3E0F9900003EF7D
:1015EE008010908108E0FBA3E0FAA3E0F9900003DD
:1015FE0074161203BD90810CE02404122BA7C3EFC6
:10160E009464EE9400401ED3EF947BEE940050153C
:10161E00EF249CFD908108E0FBA3E0FAA3E0F99093
:10162E000004ED800F908108E0FBA3E0FAA3E0F93F
:10163E00900004E41203BD90810CE02405122BA748
:10164E00C3EF9464EE9400401ED3EF949FEE94008B
:10165E005015EF249CFD908108E0FBA3E0FAA3E077
:10166E00F9900005ED800F908108E0FBA3E0FAA34E
:10167E00E0F9900005E41203BD90810CE0240612FF
:10168E002BA7C3EF9464EE9400401ED3EF947BEE31
:10169E0094005015EF249CFD908108E0FBA3E0FA26
:1016AE00A3E0F9900006ED800F908108E0FBA3E027
:1016BE00FAA3E0F9900006E41203BD90810CE02439
:1016CE0007122BA7C3EF9464EE9400401ED3EF9441
:1016DE009FEE94005015EF249CFF908108E0FBA331
:1016EE00E0FAA3E0F9900007EF800F908108E0FB8D
:0D16FE00A3E0FAA3E0F9900007E41203BD99
:01170B0022BB
:102C2A00E4908106F0908106E0FFC39404500B12F1
:0A2C3A0014D9908106E004F080EB4D
:012C4400226D
:102BCB0030020FC3EF94F6EE6480947F5014C2046E
:102BDB00800DD3EF940AEE648094804005D20412EA
:032BEB002C9D22FC
:102808009080F1E06402702EC3EE648094804002F0
:10281800803DC3EF94ECEE6480947F4002801FC338
:10282800EF94D8EE6480947F40067D02C203803A1C
:102838007D03C2038034C3EE6480948050067D011A
:10284800C2038026C3EF9414EE6480948050067D02
:1028580001D2038015C3EF9428EE6480948050065B
:102868007D02D20380047D03D203AF05122C77A228
:06287800039204022C9DF6
:102934009080D0E0B40103022CC19080B4E0FEA3E7
:10294400E0FF908100E0FCA3E0C39FFFEC9EAD0795
:10295400FC9080CFE0FFC394014010EFD394035068
:102964000A122C77AF05AE04022BCB9080CFE0B4D3
:0E2974000407AE04AF05022808E4FF122C771A
:012982002232
:102B1B0090809DE0FFD394064001229000011203A8
:102B2B007EFD7C007E007401A807088005C333CEB0
:102B3B0033CED8F9FFEE5CFEEF5D4E6003D3800120
:022B4B00C322A3
:0518F500908105EFF0F9
:1018FA00E075F008A424D1F9748035F0FAA37401D4
:10190A00F0A3EAF0A3E9F0908105E075F004A424BD
:10191A00A4F9748035F0FA9081097401F0A3EAF011
:10192A00A3E9F0908099E0B40216908106E0FBA347
:10193A00E0FAA3E0F9120365B40205122B1B400F6B
:10194A00908109E0FBA3E0FAA3E0F9E40203AB907B
:10195A008109E0FBA3E0FAA3E0F912036560030240
:10196A001A0E908106E0FBA3E0FAA3E0F9900004C6
:10197A0012037EFF90809EE06F6003021A0E9000B1
:10198A000512037EFF90809FE06F7078A3E0707469
:10199A00908109E0FBA3E0FAA3E0F974011203AB1A
:1019AA009080CFE0FF908109E0FBA3E0FAA3E0F981
:1019BA00900001EF1203BD9080B4E0FFA3E0900015
:1019CA0002CF8FF0120494908106E0FBA3E0FAA301
:1019DA00E0F990000212037EFF9080D0B4050574EE
:1019EA0001F080207402F09080CFEFF09000031293
:1019FA00037EFF7E007C007D0A1203DF9080B4EE36
:101A0A00F0A3EFF0908109E0FBA3E0FAA3E0F9125A
:101A1A0003657003021AC2908106E0FBA3E0FAA3F1
:101A2A00E0F990000612037EFF90809EE06F60034B
:101A3A00021AC290000712037EFF90809FE06F7027
:051A4A0077A3E07073BA
:101A4F0090810DF0908109E0FBA3E0FAA3E0F9E4A7
:101A5F001203AB90810CF090810CE0FFC394045003
:101A6F0021EF25E025E024A4F582E43480F583E01E
:101A7F00600890810D7401F0800890810CE004F0F3
:101A8F0080D590810DE070069080D004F022908177
:101A9F0009E0FBA3E0FAA3E0F990000112037E90A6
:101AAF0080CFF090000212045CFF9080B4E5F0F05C
:031ABF00A3EFF0A2
:011AC2002201
:102C0C00122C2AE4908104F0908104E0FFC3940418
:0D2C1C00500B1218F5908104E004F080EBDD
:012C29002288
:10126C007F707E20122BAF908104EEF0A3EFF0C3C1
:10127C009401EE94004017908104E0FEA3E0FFD3AC
:10128C0094F7EE940050079080A1EFF080109080BE
:10129C00A174F7F0FD7C007F707E20122BF37F7120
:1012AC007E20122BAF908104EEF0A3EFF0C39401DB
:1012BC00EE94004017908104E0FEA3E0FFD3940766
:1012CC00EE940050079080BDEFF080109080BD74BC
:1012DC0007F0FD7C007F717E20122BF37F727E2045
:1012EC00122BAF908104EEF0A3EFF0C39401EE94B7
:1012FC00004017908104E0FEA3E0FFD39406EE9427
:10130C000050079080BCEFF080109080BC7401F00E
:10131C00FD7C007F727E20122BF37F607E20122BCF
:10132C00AF908104EEF0A3EFF064014E600C90815D
:10133C0004E07004A3E06402700B908104A3E090BD
:10134C0080D0F080109080D07402F0FD7C007F6023
:10135C007E20122BF37F617E20122BAF908104EE46
:10136C00F0A3EFF0C39401EE94004017908104E0D9
:10137C00FEA3E0FFD39404EE940050079080CFEFCF
:10138C00F080109080CF7401F0FD7C007F617E2096
:10139C00122BF37F627E20122BAF908104EEF0A310
:1013AC00EFF064014E600C908104E07004A3E064E3
:1013BC0002700B908104A3E09080F1F0801090807B
:1013CC00F17402F0FD7C007F627E20122BF37F65AE
:1013DC007E20122BAF908104EEF0A3EFF0C394A00B
:1013EC00EE9400401A908104E0FEA3E0FFD39440F9
:1013FC00EE9401500A9080B4EEF0A3EFF0801990B7
:10140C0080B4E4F0A374DCF07F65122BEE7D167CC7
:10141C00007F667E20122BF37F677E20122BAF900D
:10142C008104EEF0A3EFF064014E600C908104E0B7
:10143C007004A3E06402700B908104A3E090809987
:10144C00F080109080997401F0FD7C007F677E2005
:10145C00122BF3122490908100E4F0A374DCF0FDC5
:10146C007C007F637E20122BF3908100E0FEA3E0D2
:10147C00FF7C007D0A1203F1AC06AD077F647E2071
:10148C00122BF3E4FFEF25E025E024A4F582E434ED
:10149C0080F583E4F09080CFE0FEEF25E025E0249A
:1014AC00A5F582E43480F583EEF09080B4E0FCA3E3
:1014BC00E0FDEF25E025E024A6F582E43480F583F9
:0D14CC00ECF0A3EDF00FEFB404BB022C2AEE
:102AE300122AAA122C8F12126C122718121DE0122E
:102AF3002537300003120669122C5E300111C20122
:102B03001227911225371220AD122C0C1229347F73
:082B1300057E00122CAB80DAF4
:10010000EC4D6011E8497017ED33EC3304600DE4F9
:10011000FCFFFEFD22E933E8330470F802035012BD
:10012000031B58046009E4CC2481500628500902BE
:10013000035A284003020357C0E0EB4A7044B980D9
:1001400006D0E0FB020346EF4E701CBD8008EBFFBB
:10015000EAFEE9FD80EBE98DF0A4FEE5F00201E99D
:10016000E9CDF9EAFEEBFFEF89F0A4FCE5F0CE89DA
:10017000F0A42EFFE435F0CD89F0A42DFEE435F097
:100180008067EF4E7005BD80D780C3EF8BF0A4ACC5
:10019000F0EE8BF0A42CFCE435F0F8EF8AF0A42C00
:1001A000E5F038FCE433CB8DF0A42CFCE5F03BF813
:1001B000EE8AF0A42CFCE5F038F8E433CF89F0A403
:1001C0002CFCE5F038CF3400CE89F0A42FFFE5F009
:1001D0003EFEE433C98DF0A42EFEE5F039CD8AF061
:1001E000A42FFFE5F03EFEE43DFD33D0E0FB5007D9
:1001F0000BBB000F02035AEC2CFCEF33FFEE33FE77
:06020000ED33FD020332A4
:1002060002035AEC5D046005E859047003020350CA
:1002160012031B580460F6EC4860F2EC7004FDFE15
:10022600FF22C860DB2481C85009C39860025006CB
:100236000203579850CAF582E9294B4A7005AB82EA
:1002460002034675F0007C1A7880C3EF9BEE9AEDA8
:1002560099400DC3EF9BFFEE9AFEED99FDE842F043
:10026600DC23ACF0D0E0FFD0E0FED0E0FDAB822096
:10027600E7101BEB60BAEC2CFCEF33FFEE33FEED20
:1002860033FD020332E803F830E705C0F075F000ED
:10029600EF2FFFEE33FEED33FD40B830E7C280AA04
:1002A60075F020800E75F010800575F0087D007ED3
:1002B600007F003392D530D5031205DEEC334010B3
:1002C600EF33FFEE33FEED33FDEC33FCD5F0ED22DC
:0E02D600E5F0247EA2D513CC92E7CDCEFF2218
:1002E400EDD2E7CD33EC3392D524814006E4FFFE12
:1002F400FDFC22FCE4CFCECDCC24E0501174FF8071
:10030400EDC3CC13CCCD13CDCE13CECF13CF04700D
:07031400F030D5DE0205DE2A
:10031B00E9D2E7C933E833F892D5EDD2E7CD33EC28
:07032B0033FC5002B2D522A1
:10033200EC30E7100FBF000C0EBE00080DBD00042C
:100342000BEB6014A2D5EB13FCED92E7FD2274FFD8
:10035200FCFDFEFF22E480F8A2D574FF13FC7D8031
:03036200E480EF45
:1025FA00022AE3E493A3F8E493A34003F68001F2EA
:10260A0008DFF48029E493A3F85407240CC8C333E1
:10261A00C4540F4420C8834004F456800146F6DFB0
:10262A00E4800B01020408102040809023DFE47E3E
:10263A00019360BCA3FF543F30E509541FFEE493A5
:10264A00A360010ECF54C025E060A840B8E493A36C
:10265A00FAE493A3F8E493A3C8C582C8CAC583CA97
:10266A00F0A3C8C582C8CAC583CADFE9DEE780BE4F
:01248F00004C
:10036500BB010689828A83E0225002E722BBFE0296
:09037500E32289828A83E49322C9
:10037E00BB010CE58229F582E5833AF583E0225034
:10038E0006E92582F8E622BBFE06E92582F8E2227E
:0D039E00E58229F582E5833AF583E4932298
:1003AB00BB010689828A83F0225002F722BBFE0131
:0203BB00F3222B
:1003BD00F8BB010DE58229F582E5833AF583E8F076
:1003CD00225006E92582C8F622BBFE05E92582C822
:0203DD00F2220A
:1003DF00EF8DF0A4A8F0CF8CF0A428CE8DF0A42E32
:0203EF00FE22EC
:1003F100BC000BBE0029EF8DF084FFADF022E4CCF0
:10040100F875F008EF2FFFEE33FEEC33FCEE9DECB8
:10041100984005FCEE9DFE0FD5F0E9E4CEFD22EDFE
:10042100F8F5F0EE8420D21CFEADF075F008EF2F48
:10043100FFED33FD4007985006D5F0F222C398FD39
:050441000FD5F0EA22D6
:10044600A3F8E0C5F025F0F0E58215827002158369
:06045600E0C838F0E822C6
:10045C00BB0110E58229F582E5833AF583E0F5F0DE
:10046C00A3E0225009E92582F886F008E622BBFEBB
:10047C000AE92582F8E2F5F008E222E5832AF58301
:08048C00E993F5F0A3E99322C6
:10049400F8BB0111E58229F582E5833AF583E8F09A
:1004A400E5F0A3F0225009E92582C8F608A6F02257
:0D04B400BBFE09E92582C8F2E5F008F2223E
:1004C100E88FF0A4CC8BF0A42CFCE98EF0A42CFCDA
:1004D1008AF0EDA42CFCEA8EF0A4CDA8F08BF0A458
:1004E1002DCC3825F0FDE98FF0A42CCD35F0FCEBB7
:1004F1008EF0A4FEA9F0EB8FF0A4CFC5F02ECD397C
:0F050100FEE43CFCEAA42DCE35F0FDE43CFC22E8
:1005100075F008758200EF2FFFEE33FECD33CDCCA2
:1005200033CCC58233C5829BED9AEC99E582984025
:100530000CF582EE9BFEED9AFDEC99FC0FD5F0D602
:10054000E4CEFBE4CDFAE4CCF9A88222B800C1B92C
:100550000059BA002DEC8BF084CFCECDFCE5F0CB6A
:10056000F97818EF2FFFEE33FEED33FDEC33FCEBA3
:1005700033FB10D703994004EB99FB0FD8E5E4F95E
:10058000FA227818EF2FFFEE33FEED33FDEC33FC4B
:10059000C933C910D7059BE99A4007EC9BFCE99A3F
:1005A000F90FD8E0E4C9FAE4CCFB2275F010EF2F84
:1005B000FFEE33FEED33FDCC33CCC833C810D70784
:1005C0009BEC9AE899400AED9BFDEC9AFCE899F8BF
:0E05D0000FD5F0DAE4CDFBE4CCFAE4C8F92252
:102A6600C2D5E830E70FB2D5E4C39BFBE49AFAE49B
:102A760099F9E498F8EC30E717B2D5122A9C1205BA
:102A86004CE4C39BFBE49AFAE499F9E498F88003D2
:102A960012054C30D50DE4C39FFFE49EFEE49DFD78
:042AA600E49CFC228E
:0E05DE00C3E49FFFE49EFEE49DFDE49CFC222E
:1005EC00E8600FECC313FCED13FDEE13FEEF13FFED
:0305FC00D8F12211
:0C05FF00ECF0A3EDF0A3EEF0A3EFF0226F
:10060B00A8828583F0D083D0821206221206221292
:10061B000622120622E473E493A3C583C5F0C583B7
:10062B00C8C582C8F0A3C583C5F0C583C8C582C839
:01063B00229C
:10063C00D083D082F8E4937012740193700DA3A34D
:10064C0093F8740193F5828883E473740293B5F084
:0D065C00067403936860E9A3A3A3A380D8EC
:00000001FF
