:030000000210FCEF
:03000B0002407E32
:03001B0002489404
:0300230002617EF9
:03002B00024988FF
:030063000262AB8B
:03006B000262AC82
:03008300026235E1
:1000F800FFFF4457494E5435020448E86480F8E944
:1001080033E83360110460F0ED33EC337009E8FC38
:10011800E9FDEAFEEBFF220460DED3EB9FEA9EE9ED
:100128009DE8C2E78CF0C2F795F0400CE8CCF8E9FE
:10013800CDF9EACEFAEBCFFB12041385D0F05804C0
:10014800700320D5B3E80470075002B2D5020452F8
:1001580092D5EC0460F7E4CCC0E0C398F8603B9417
:10016800186008400DD0E0FB02042AE4FBFAC9FC41
:100178008028E830E406E4C9FBE4CAFCE830E3057B
:10018800E4C9CACBFCE854076010F8C3E913F9EADC
:1001980013FAEB13FBEC13FCD8F130F52FC3E49CF6
:1001A800FCEF9BFFEE9AFEED99FDD0E0FBEF4E4D84
:1001B8004C701222DB0302044FEC2CFCEF33FFEEF1
:1001C80033FEED33FDED30E7EB02042AEF2BFFEEB3
:1001D8003AFEED39FDD0E0FB50130BBB00030204DF
:1001E80052ED13FDEE13FEEF13FFEC13FC02042A8D
:1001F800EC4D6011E8497017ED33EC3304600DE401
:10020800FCFFFEFD22E933E8330470F802044812CB
:10021800041358046009E4CC2481500628500902CC
:10022800045228400302044FC0E0EB4A7044B980EE
:1002380006D0E0FB02043EEF4E701CBD8008EBFFC9
:10024800EAFEE9FD80EBE98DF0A4FEE5F00202E1AB
:10025800E9CDF9EAFEEBFFEF89F0A4FCE5F0CE89E1
:10026800F0A42EFFE435F0CD89F0A42DFEE435F09E
:100278008067EF4E7005BD80D780C3EF8BF0A4ACCC
:10028800F0EE8BF0A42CFCE435F0F8EF8AF0A42C07
:10029800E5F038FCE433CB8DF0A42CFCE5F03BF81A
:1002A800EE8AF0A42CFCE5F038F8E433CF89F0A40A
:1002B8002CFCE5F038CF3400CE89F0A42FFFE5F010
:1002C8003EFEE433C98DF0A42EFEE5F039CD8AF068
:1002D800A42FFFE5F03EFEE43DFD33D0E0FB5007E0
:1002E8000BBB000F020452EC2CFCEF33FFEE33FE85
:1002F800ED33FD02042A020452EC5D046005E8595E
:10030800047003020448120413580460F6EC4860B1
:10031800F2EC7004FDFEFF22C860DB2481C850099E
:10032800C3986002500602044F9850CAF582E92922
:100338004B4A7005AB8202043E75F0007C1A788047
:10034800C3EF9BEE9AED99400DC3EF9BFFEE9AFE2B
:10035800ED99FDE842F0DC23ACF0D0E0FFD0E0FE00
:10036800D0E0FDAB8220E7101BEB60BAEC2CFCEF71
:1003780033FFEE33FEED33FD02042AE803F830E7DD
:1003880005C0F075F000EF2FFFEE33FEED33FD40B2
:10039800B830E7C280AA75F020800E75F01080058D
:1003A80075F0087D007E007F003392D530D50312AA
:1003B800080AEC334010EF33FFEE33FEED33FDEC6B
:1003C80033FCD5F0ED22E5F0247EA2D513CC92E7DC
:1003D800CDCEFF22EDD2E7CD33EC3392D524814048
:1003E80006E4FFFEFDFC22FCE4CFCECDCC24E05099
:1003F8001174FF80EDC3CC13CCCD13CDCE13CECF6B
:1004080013CF0470F030D5DE02080AE9D2E7C93309
:10041800E833F892D5EDD2E7CD33EC33FC5002B295
:10042800D522EC30E7100FBF000C0EBE00080DBD42
:1004380000040BEB6014A2D5EB13FCED92E7FD2250
:1004480074FFFCFDFEFF22E480F8A2D574FF13FCC4
:100458007D80E480EFE709F608DFFA8046E709F2D5
:1004680008DFFA803E88828C83E709F0A3DFFA80F0
:1004780032E309F608DFFA8078E309F208DFFA8048
:100488007088828C83E309F0A3DFFA806489828A0A
:1004980083E0A3F608DFFA805889828A83E0A3F212
:1004A80008DFFA804C80D280FA80C680D4806980C8
:1004B800F28033801080A680EA809A80A880DA8053
:1004C800E280CA803389828A83ECFAE493A3C8C5A0
:1004D80082C8CCC583CCF0A3C8C582C8CCC583CCA0
:1004E800DFE9DEE7800D89828A83E493A3F608DFDB
:1004F800F9ECFAA9F0EDFB2289828A83ECFAE0A3F1
:10050800C8C582C8CCC583CCF0A3C8C582C8CCC531
:1005180083CCDFEADEE880DB89828A83E493A3F276
:1005280008DFF980CC88F0EF60010E4E60C388F0D8
:10053800ED2402B4040050B9F582EB2402B404009F
:1005480050AF23234582239004AD73BB01068982F3
:100558008A83E0225002E722BBFE02E32289828AD4
:1005680083E49322BB010CE58229F582E5833AF501
:1005780083E0225006E92582F8E622BBFE06E9253B
:1005880082F8E222E58229F582E5833AF583E4934D
:1005980022BB010689828A83F0225002F722BBFE21
:1005A80001F322F8BB010DE58229F582E5833AF5CE
:1005B80083E8F0225006E92582C8F622BBFE05E949
:1005C8002582C8F222EF8DF0A4A8F0CF8CF0A428E1
:1005D800CE8DF0A42EFE22BC000BBE0029EF8DF0BC
:1005E80084FFADF022E4CCF875F008EF2FFFEE336E
:1005F800FEEC33FCEE9DEC984005FCEE9DFE0FD51D
:10060800F0E9E4CEFD22EDF8F5F0EE8420D21CFEF0
:10061800ADF075F008EF2FFFED33FD400798500659
:10062800D5F0F222C398FD0FD5F0EA22C2D5EC30FE
:10063800E709B2D5E4C39DFDE49CFCEE30E715B2B2
:10064800D5E4C39FFFE49EFE1205DFC3E49DFDE4ED
:100658009CFC80031205DF30D507C3E49FFFE49EAE
:10066800FE22C5F0F8A3E028F0C5F0F8E58215826F
:1006780070021583E038F022A3F8E0C5F025F0F009
:10068800E582158270021583E0C838F0E822BB01C4
:1006980010E58229F582E5833AF583E0F5F0A3E0D9
:1006A800225009E92582F886F008E622BBFE0AE90D
:1006B8002582F8E2F5F008E222E5832AF583E9933A
:1006C800F5F0A3E99322BB010A89828A83F0E5F059
:1006D800A3F0225006F709A7F01922BBFE06F3E59E
:1006E800F009F31922E88FF0A4CC8BF0A42CFCE9D4
:1006F8008EF0A42CFC8AF0EDA42CFCEA8EF0A4CD9C
:10070800A8F08BF0A42DCC3825F0FDE98FF0A42CAF
:10071800CD35F0FCEB8EF0A4FEA9F0EB8FF0A4CF62
:10072800C5F02ECD39FEE43CFCEAA42DCE35F0FD13
:10073800E43CFC2275F008758200EF2FFFEE33FED3
:10074800CD33CDCC33CCC58233C5829BED9AEC99A1
:10075800E58298400CF582EE9BFEED9AFDEC99FC43
:100768000FD5F0D6E4CEFBE4CDFAE4CCF9A882228A
:10077800B800C1B90059BA002DEC8BF084CFCECDAA
:10078800FCE5F0CBF97818EF2FFFEE33FEED33FDE3
:10079800EC33FCEB33FB10D703994004EB99FB0FC8
:1007A800D8E5E4F9FA227818EF2FFFEE33FEED339F
:1007B800FDEC33FCC933C910D7059BE99A4007EC17
:1007C8009BFCE99AF90FD8E0E4C9FAE4CCFB22755E
:1007D800F010EF2FFFEE33FEED33FDCC33CCC833F2
:1007E800C810D7079BEC9AE899400AED9BFDEC9A54
:1007F800FCE899F80FD5F0DAE4CDFBE4CCFAE4C8CC
:10080800F922C3E49FFFE49EFEE49DFDE49CFC22E4
:10081800EB9FF5F0EA9E42F0E99D42F0EC6480C857
:1008280064809845F022EB9FF5F0EA9E42F0E99D3E
:1008380042F0E89C45F022E8600FECC313FCED138E
:10084800FDEE13FEEF13FFD8F122E0FCA3E0FDA3B9
:10085800E0FEA3E0FF22ECF0A3EDF0A3EEF0A3EF9F
:10086800F022A8828583F0D083D0821208811208F2
:1008780081120881120881E473E493A3C583C5F04B
:10088800C583C8C582C8F0A3C583C5F0C583C8C5DC
:1008980082C822A42582F582E5F03583F58322D02B
:1008A80083D082F8E4937012740193700DA3A3931C
:1008B800F8740193F5828883E473740293B5F006A3
:1008C8007403936860E9A3A3A3A380D8EC8EF0A473
:1008D800CCC5F0CCCDF8EFA4CEC5F02DFDE43CFCA2
:1008E800E8A42EC8C5F03DFDE43CFCEFA4FFE5F00C
:1008F80028FEE43DFDE43CFC22E3F5F009E208B5FE
:10090800F06D606B80F3E3F5F009E608B5F0606020
:100918005E80F387F009E608B5F054605280F487EA
:10092800F009E208B5F048604680F488828C838735
:10093800F009E0A3B5F038603680F488828C8387AC
:10094800F009E493A3B5F027602580F388828C83AF
:10095800E3F5F009E0A3B5F016601480F388828C03
:1009680083E3F5F009E493A3B5F004600280F20292
:100978000A2C808580E7808E80D2803C8015806C30
:10098800807E809B80B5808B80A1804F8070803A6C
:10099800020A3889828A83ECFAE493F5F0A3C8C581
:1009A80082C8CCC583CCE493A3C8C582C8CCC58310
:1009B800CCB5F070606E80E189828A83E493F5F0AB
:1009C800A3E208B5F05E605C80F289828A83E0F574
:1009D800F0A3E608B5F04D604B80F389828A83E086
:1009E800F5F0A3E208B5F03C603A80F389828A8387
:1009F800E493F5F0A3E608B5F02A602880F2805366
:100A080089828A83ECFAE493F5F0A3C8C582C8CC3E
:100A1800C583CCE0A3C8C582C8CCC583CCB5F004D7
:100A2800600280E27FFFB5F0020F2240027F0122C0
:100A380089828A83ECFAE0F5F0A3C8C582C8CCC5E0
:100A480083CCE0A3C8C582C8CCC583CCB5F0D5603B
:100A5800D380E389828A83ECFAE0F5F0A3C8C582E3
:100A6800C8CCC583CCE493A3C8C582C8CCC583CC05
:100A7800B5F0B160AF80E288F0ED2402B404005014
:100A8800A3F582EB2402B404005099232345822362
:100A980090097A73EF4E6012EF60010EEDBB010B07
:100AA80089828A83F0A3DFFCDEFA2289F05007F7F7
:100AB80009DFFCA9F022BBFEFCF309DFFCA9F02248
:100AC80042881F000048852F000000000000000039
:100AD8004285630000020A0000020800004285A95E
:100AE800000042856500004485C80000000042857A
:100AF800150000418573004285250000020C0000A6
:100B0800020E000002100000021200000214000091
:100B1800021600004285B30000428523000041858B
:100B2800B70048851700000000000000004885272E
:100B38000000000000000000021800004285A1002B
:100B48000042858700004485BA640000644285B885
:100B5800000046855500000000000050858D00000B
:100B680000000000000000000000000000004284B7
:100B7800FB00004284FD00004285C400004285C697
:100B880000004285CD00004285D00000428561000A
:100B9800004284F700014485895A01003C42851FC0
:100BA8000000418586004285A700004285B5000007
:100BB800428551000042855F00004184F60041856E
:100BC800CF0042859F00004285840000428537009F
:100BD80000428553000042854F00004285390000DD
:100BE8004284FF00004284F900004685BE000000F0
:100BF8000000004E85070000000000000000000013
:100C0800000000004284F200004885AB00000000AC
:100C18000000000042852100004285030000428454
:100C2800F000004284F4000054853B0000000000FE
:100C38000000000000000000000000000000004666
:100C4800857E000000000000428505000042857C8A
:100C580000004185CC004184EF0042855B000042E2
:100C68008501000042859DFFFF42855D00004485A7
:100C7800A300000000428567000042857100005013
:100C880084DB0000000000000000000000000000FD
:100C980000004284EB00004284ED000042873300EC
:100CA800004287290000428761000042872F000028
:100CB80042871F000042872D00004687650000001C
:100CC800000000606086BF00000000000000000017
:100CD800000000000000000000000000000000000C
:100CE80000000000000000000000000000000000FC
:100CF80000000000000000000000000000000000EC
:100D080000000000000000000000000000000000DB
:100D180000000000000000000000000000000000CB
:100D280000000000000000468723000000000000CB
:100D3800602A873700000000000000000000000063
:100D4800000000000000000000000000000000009B
:100D580000000000000000000000000000004286C3
:100D6800BD000042876B000042873500004387734F
:100D780000000002200000022200000224000042BD
:100D8800876F0000021A0000021E0000021C00000B
:100D98004286BB000042873100004286B50000420F
:100DA8008721000042876D000042872B00004286A1
:100DB800B30000428771000042876300004486B791
:100DC8000101400041877A000235000044877D0018
:100DD80000000042877B0000428778000048879126
:100DE800000000000000000042878D000042877666
:100DF80000004E87D900000000000000000000003D
:100E080000000042878F00004287810000488783E6
:100E1800000000000000000042880A000042878BA2
:100E280000004287D700005087ED00000000000056
:100E3800000000000000000000004287C1000042DE
:100E480087FD000002370000602887990000000035
:100E5800000000000000000000000000000000008A
:100E6800000000000000000000000000000000007A
:100E780000000000418809005487C30000000000FA
:100E88000000000000000000000000000000004119
:100E980082AF004282B100004182B0004282B300BA
:100EA800004282B500004182AD004182AE0041821D
:100EB8002C0042822A00016100800000000000002E
:100EC800000000000000000000000000000000001A
:100ED800000000000000000000000000000000000A
:100EE80000000000000000000000000000000000FA
:100EF80000000000000000000000000000000000EA
:100F080000000000000000000000000000000000D9
:100F180000000000000000000000000000000000C9
:100F280000000000000000000000000000000000B9
:100F380000000000000000000000000000000000A9
:100F48000000000000000000000000000000000099
:100F58000000000000000000000000000000000089
:100F68000000000000000000000000000000000079
:100F78000000000000000000000000000000000069
:100F88000000000000000000000000000000000059
:100F98000000000000000000000000000000000049
:100FA8000000000000000000000000000000000039
:100FB800000000000000000000000061008128001F
:100FC8000000000000000000000000000000000019
:100FD8000000000000000000000000000000000009
:100FE80000000000000000000000000000000000F9
:100FF80000000000000000000000000000000000E9
:1010080000000000000000000000000000000000D8
:1010180000000000000000000000000000000000C8
:1010280000000000000000000000000000000000B8
:1010380000000000000000000000000000000000A8
:101048000000000000000000000000000000000098
:101058000000000000000000000000000000000088
:101068000000000000000000000000000000000078
:101078000000000000000000000000000000000068
:101088000000000000000000000000000000000058
:101098000000000000000000000000000000000048
:1010A8000000000000000000000000000000000038
:1010B8000000000000000000000000000000000820
:1010C800260000000000000000072E0000000000BD
:1010D800000041881D0041881C0042880E00004223
:1010E800880C00004C881000000000000000000080
:1010F80000000000759401759502758E00759300C7
:1011080075C87075C96075F800787FE4F6D8FD7504
:10111800813802115802165AE493A3F8E493A340C5
:1011280003F68001F208DFF48029E493A3F854075A
:10113800240CC8C333C4540F4420C8834004F45655
:10114800800146F6DFE4800B01020408102040808D
:10115800900AC8E47E019360BCA3FF543F30E509C0
:10116800541FFEE493A360010ECF54C025E060A88D
:1011780040B8E493A3FAE493A3F8E493A3C8C58220
:10118800C8CAC583CAF0A3C8C582C8CAC583CADF8E
:10119800E9DEE780BEEE30E707C3E49FFFE49EFE8A
:1011A8002200C1814001C0804101C0804100C1814D
:1011B8004001C0804100C1814000C1814001C08020
:1011C8004101C0804100C1814000C1814001C0800F
:1011D8004100C1814001C0804101C0804100C181FE
:1011E8004001C0804100C1814000C1814001C080F0
:1011F8004100C1814001C0804101C0804100C181DE
:101208004000C1814001C0804101C0804100C181CE
:101218004001C0804100C1814000C1814001C080BF
:101228004101C0804100C1814000C1814001C080AE
:101238004100C1814001C0804101C0804100C1819D
:101248004000C1814001C0804101C0804100C1818E
:101258004001C0804100C1814000C1814001C0807F
:101268004100C1814001C0804101C0804100C1816D
:101278004001C0804100C1814000C1814001C0805F
:101288004101C0804100C1814000C1814001C0804E
:101298004100C1814001C0804101C0804100C1813D
:1012A8004000C0C101C30302C2C60607C705C5C4C2
:1012B80004CC0C0DCD0FCFCE0E0ACACB0BC9090832
:1012C800C8D81819D91BDBDA1A1EDEDF1FDD1D1C72
:1012D800DC14D4D515D71716D6D21213D311D1D002
:1012E80010F03031F133F3F23236F6F737F53534A2
:1012F800F43CFCFD3DFF3F3EFEFA3A3BFB39F9F872
:101308003828E8E929EB2B2AEAEE2E2FEF2DEDEC11
:101318002CE42425E527E7E62622E2E323E1212041
:10132800E0A06061A163A3A26266A6A767A5656441
:10133800A46CACAD6DAF6F6EAEAA6A6BAB69A9A8B1
:101348006878B8B979BB7B7ABABE7E7FBF7DBDBCF1
:101358007CB47475B577B7B67672B2B373B1717081
:10136800B0509091519353529296565797559594E1
:10137800549C5C5D9D5F9F9E5E5A9A9B5B995958F1
:1013880098884849894B8B8A4A4E8E8F4F8D4D4C91
:101398008C448485458747468682424383418180C1
:1013A80040000000000000000000000000000000F5
:1013B8000000000000000000000000000000000025
:1013C8000000000000000000000000000000000015
:1013D8000000000000000000000000000000000005
:1013E80000000000000000000000000000000000F5
:1013F80000000000000000000000000000000000E5
:1014080000000000000000000000000000000000D4
:1014180000000000000000000000000000000000C4
:1014280000000000000000000000000000000000B4
:1014380000000000000000000000000000000000A4
:101448000000000000000000000000000000000094
:101458000000000000000000000000000000000084
:101468000000000000000000007D28771A715E6B04
:10147800F166CD61EF5D5158F154CB50DC4D4C49CC
:1014880096463943083FFF3D1E3A6137C8354F320B
:10149800F530B82E982C912AA428CF27102566233A
:1014A800D0224D20DD1F7E1E2F1CEF1BBF1A9C195A
:1014B80086187E1781168F15A914CC13FA133112CA
:1014C8007011B8110810600FBF0F250E920DF40DA2
:1014D8007E0CFC0C810C0A0B980B2B0AC30A5E09C4
:1014E800FE09A2094A08F508A40856080B07C3070D
:1014F8007E073B06FC06BE0684064B061505E0057E
:10150800AE057E054F052204F704CE04A6047F0429
:101518005A0437041503F303D403B50397037B0375
:101528005F0345032B031202FB02E402CE02B8025A
:10153800A3802079A573846DBA684263165E345916
:1015480097553C511F4D3D4993461D42D93FC33CD9
:10155800DA3A1A3780350B32B730832E6D2C722A5F
:101568009028C527102529236821C920471EE01D7A
:10157800921C581B301A1A1914181A172C164B15C6
:101588007314A413DD131F126811B8110F106C0F18
:10159800CF0F380EA60E1A0D930D120C950C1D0BBD
:1015A800AB0B3C0AD30A6E0A0D09B00957090308A8
:1015B800B20864081A07D40790074F071106D60621
:1015C8009D063205FF05CE059F05710544051904E2
:1015D800EE04C4049A04710449042003FF03DF03E2
:1015E800C003A30387036C035203390321030902D1
:1015F800F302DD02C902B402A100030306010406D6
:1016080002050003051305010C00001F1C1F1E1F07
:101618001E1F1F1E1F1E1F5A00000025E00120A5C7
:1016280000000025E00120001556322E3100000090
:1016380000645A010000756172742073656E642E2F
:101648002E2E005AA52600006000000000000000B1
:101658000000F1F3121868D2A11239E31239F3121B
:101668003A0312616D1261D51262987BFF7A16797E
:101678003E7D0D1261F5121872D19D1264511256F9
:101688002E124DBA12284D1232457B017A88791FE5
:1016980012659480E6F1EC9085D274FAF0A3740395
:1016A800F07B017A8579D2FFD1FD9085D2746BF0F9
:1016B800A3740FF07B017A8579D27F04D1FD9085E0
:1016C800D2744FF0E4A3F07B017A8579D27F05D1FB
:1016D800FD9085D27405F0E4A3F07B017A8579D278
:1016E8007F06D1FD9085D2740AF0E4A3F07B017ADD
:1016F8008579D27F07F11B120553FFF145F1299037
:10170800000112056CFFF145F129F19D7F0A7E0069
:10171800021FD5AC07F1B27FA2F145F129AF04F160
:101728004553BCDFF16E30950AC29743BC20F17B6C
:101738007F0022C29743BC20F17B7F0122AE077D48
:1017480008AF051DEF601CC297F17BEE30E7074339
:10175800BC20D295800543BC20C295EE25E0FEF161
:101768007780DEC29722C297F17B43BC20D295F1E5
:101778007BD2977F1EDFFE22F11BF1B27FA3F145DA
:10178800F129126571EF120599F1DD12657190006A
:1017980001EF1205AB43BC20C297F17B43BC20C2CA
:1017A80095F17743BC20D29580C943BC2043BC2027
:1017B800D295D297F17B2095037F002243BC20C2AB
:1017C80095F17B3095037F002243BC20C295F17BC5
:1017D800C2977F0122C297F17B43BC20C295F17763
:1017E800C297808F43BC8043BC2022C2AFC2D3C201
:1017F800D475C960E4F5F875F901F5A8F5B8F59A56
:10180800F5A9F5B953C9FDF580F590F5A0F5B075C2
:10181800B710F5BCF5BDF5BE75D88075985075BA8A
:101828000375AAE4759BD075BB03759DC875968032
:10183800759780F5D975E7E075A78075AB80F5AE2B
:1018480075AFE0758911F58CF58AC28CF58DF58B2D
:10185800C28E75C870F5CDF5CC75CBBC75CACD22D6
:1018680043B70243BC1E43BD02221221967F057E68
:1018780000F1D57B017A8579639086A5E4F0A3040D
:10188800F07FE07E259175908563E0645A7004A32B
:10189800E064A5602B908563745AF0A374A5F07B6F
:1018A800017A8579639086A5E4F0A304F07FE07E51
:1018B800251222061224231228107F057E00F1D556
:1018C8007BFF7A1679319086A5E4F0A37403F07F44
:1018D800127E251222069084F0E4F0A304F0FB7A2D
:1018E8008479F09086A5E4F0A304F07F007E2612A8
:1018F8002206E4908537F0A3F07B017A857937904A
:1019080086A5F0A304F07F1B7E261222067B017AAF
:101918008579A39086A5E4F0A37402F07F387E252C
:101928009175E4FFFEFDFC9085A3E0F8A3E0F9A320
:10193800E0FAA3E0FBC312082E700A9085A31208F0
:101948006A000A2C2A7B017A85794F9086A5E4F0F3
:10195800A304F07F547E2591757B017A8579539095
:1019680086A5E4F0A304F07F117E26917590855337
:10197800E0FAA3E0FB7C007D0AFFAE021205DF90CF
:101988008761EEF0A3EFF07C007D0AAF03AE021290
:1019980005DF90872FECF0A3EDF07B017A87796162
:1019A8009086A5E4F0A304F07F007E211222067B36
:1019B800017A87792F9086A5E4F0A304F0FF7E21B1
:1019C80012220690854FE0FEA3E0FF4E600EEF6402
:1019D800014E600890854FE4F0A304F090854FE035
:1019E800FEA3E0FF4E700A908539F0A37405F080DD
:1019F8000EEF64014E7008908539F0A3740AF07BED
:101A0800017A8479FF9086A5E4F0A304F07F557EDF
:101A18002591757B017A8479F99086A5E4F0A30471
:101A2800F07F567E2591759084FFE0FEA3E0FF4E7F
:101A380060129084F9E0FCA3E0FD4C6007D3EF9DB1
:101A4800EE9C50139084FF7401F0A37440F09084CE
:101A5800F9E4F0A374A0F07B017A8579BE9086A59D
:101A6800E4F0A37403F07F507E2591759085BEE065
:101A7800FEA3E0FFD39400EE64809480401FA3E0AF
:101A8800FCA3E0FDD39400EC64809480400FED2427
:101A98000AFDE43CFCEF6D7002EE6C60169085BEAA
:101AA800E4F0A3740AF0E4A3F0A3F0A374FDF0A398
:101AB80074A8F07B017A85793B9086A5E4F0A3743D
:101AC8000AF07F807E2591757B017A85797E9086E4
:101AD800A5E4F0A37403F07F8E7E2591757B017ACF
:101AE8008579059086A5E4F0A304F07F337E2591DF
:101AF8007574FF90859DF0A3F07B017A85799D90A0
:101B080086A5E4F0A304F07F617E261222067B01FD
:101B18007A8779239086A5E4F0A304F07F207E26B7
:101B280091757B017A8679BF9086A5E4F0A374103D
:101B3800F07F217E269175E4FFFEF1E07B017A8734
:101B480079259086A5E4F0A304F07F327E2691756E
:101B58007B017A8679DF9086A5E4F0A37410F07F84
:101B6800337E2691757F017E00F1E07B017A8779CB
:101B7800279086A5E4F0A304F07F447E2691757B28
:101B8800017A8679FF9086A5E4F0A37410F07F456A
:101B98007E2691757F027E00F1E0126423E490872F
:101BA8002BF0A3F09086B5F0A3F0908721F0A3F076
:101BB800908573F09085B7F09084F0F0A37402F0EC
:101BC80090855BE4F0A374C8F0908501E4F0A374F9
:101BD8000AF09085CD7401F0A37404F07B017A8536
:101BE80079CD9086A5E4F0A304F07F107E2612221A
:101BF800069085CDE0FFA3E09085D0CFF0A3EFF06D
:101C08007B017A8579679086A5E4F0A304F07F14B8
:101C18007E009175908567E07004A3E0641B7003F3
:101C28001227C2908731E4F0A304F0FB7A87793158
:101C38009086A5E4F0A304F07F027E277D007C0057
:101C480002220A7B017A87798F9086A5E4F0A304A3
:101C5800F07F027E217D007C0091797B017A877973
:101C6800819086A5E4F0A304F07F037E217D007CAB
:101C78000090869E12085E9086A2EBF0A3EAF0A37D
:101C8800E9F09086A712086A000000009086AB125F
:101C9800086A00000000E49086AFF0A3F0A3F0A368
:101CA800F07B02FAF9F890869EE0FCA3E0FDA3E041
:101CB800FEA3E0FF1207789086A712085E90869E22
:101CC800A3A3A3E05401FFE4FEFDFC9086AB120839
:101CD8005E9086A7E0FCA3E0FDA3E0FEA3E0FF780A
:101CE8001012083FEFF5F19086A7E0FCA3E0FDA3F2
:101CF800E0FEA3E0FF780812083FEFF5F29086A710
:101D0800A3A3A3E0F5F375F40175F8AFE47F01FE32
:101D1800FDFCA3E0F8A3E0F9A3E0FAA3E0FBC312FB
:101D2800082E704A30FCFDD2FE20FEFD9086A2E00F
:101D3800FBA3E475F001120680A9F0FAE5FC120590
:101D4800999086A2E0FBA3E475F001120680A9F041
:101D5800FAE5FD1205999086A6E024FFF09086A585
:101D6800E034FFF09086AB12086A0000000090860D
:101D7800A5E0FCA3E0FDECC313FFED139086AFCF05
:101D8800F0A3EFF07E00ED5401FFA3EEF0A3EFF017
:101D98006401700E9086B0E004F070069086AFE0A3
:101DA80004F09086AF74FFF5F012068045F07002DB
:101DB800C1629086B1E07004A3E06401703E908631
:101DC800AFE07002A3E0703430FCFDD2FE20FEFDCF
:101DD8009086A2E0FBA3E475F001120680A9F0FA50
:101DE800E5FA1205999086A2E0FBA3E475F00112CA
:101DF8000680A9F0FAE5FB120599805E30FCFDD259
:101E0800FE20FEFD9086A2E0FBA3E475F001120619
:101E180080A9F0FAE5FA1205999086A2E0FBA3E4FE
:101E280075F001120680A9F0FAE5FB120599908673
:101E3800A2E0FBA3E475F001120680A9F0FAE5FC24
:101E48001205999086A2E0FBA3E475F001120680C2
:101E5800A9F0FAE5FD120599A1AAE4F5F8227B019B
:101E68007A8579CD9086A5E4F0A304F07F107E26CC
:101E7800917590871FE0FCA3E0FD9085CDE0FAA363
:101E8800E0FB6D7002EA6C605C9085CDE0FEA3E03B
:101E9800FF90871FEEF0A3EFF07C007D0A1205DFAC
:101EA800908733EEF0A3EFF07C007D0AAF03AE021B
:101EB8001205DF908729ECF0A3EDF07B017A877992
:101EC800339086A5E4F0A304F07F087E2112220651
:101ED8007B017A8779299086A5E4F0A304F07F092D
:101EE8007E211222067B017A8579539086A5E4F03B
:101EF800A304F07F117E269175908553E0FEA3E040
:101F0800FF90872DE06E7003A3E06F605790872DD8
:101F1800EEF0A3EFF07C007D0A1205DF908761EEFA
:101F2800F0A3EFF0908553E0FEA3E0FF7C007D0A6C
:101F38001205DF90872FECF0A3EDF07B017A87790B
:101F4800619086A5E4F0A304F07F007E21122206AA
:101F58007B017A87792F9086A5E4F0A304F0FF7EB1
:101F68002112220622E4FB0B7A8779239086A5F0BA
:101F7800A304F07F207E2691757B017A87792590CE
:101F880086A5E4F0A304F07F327E2691757B017A62
:101F98008779279086A5E4F0A304F07F447E2691F4
:101FA80075E4FBEBFF7E00F1E00BEBB403F57B017E
:101FB8007A8779379086A5E4F0A37415F07F207EA0
:101FC800207D007C0002220AF07FDC7E058E0E8FC9
:101FD8000FE50F450E70FA22AD07AC06ED25E0FFC0
:101FE800EC33FE74232FF58274873EF583A3E090CB
:101FF800873775F00E30E014ED12089BEC75F00E83
:10200800A42583F583E4F0A304F08011ED12089B66
:10201800EC75F00EA42583F583E4F0A3F074232F68
:10202800F58274873EF583A3E090873975F00E300A
:10203800E114ED12089BEC75F00EA42583F583E4FA
:10204800F0A304F08011ED12089BEC75F00EA425A6
:1020580083F583E4F0A3F0ED25E0FFEC33FE742371
:102068002FF58274873EF583A3E090873B75F00EC9
:1020780030E214ED12089BEC75F00EA42583F5836D
:10208800E4F0A304F08011ED12089BEC75F00EA4A7
:102098002583F583E4F0A3F074232FF58274873E3B
:1020A800F583A3E090873D75F00E30E314ED120838
:1020B8009BEC75F00EA42583F583E4F0A304F0806F
:1020C80011ED12089BEC75F00EA42583F583E4F05E
:1020D800A3F0ED25E0FFEC33FE74232FF58274871F
:1020E8003EF583A3E090873F75F00E30E414ED12BF
:1020F800089BEC75F00EA42583F583E4F0A304F0A7
:102108008011ED12089BEC75F00EA42583F583E48D
:10211800F0A3F074232FF58274873EF583A3E09033
:10212800874175F00E30E514ED12089BEC75F00E42
:10213800A42583F583E4F0A304F08011ED12089B35
:10214800EC75F00EA42583F583E4F0A3F0ED25E00B
:10215800FFEC33FE74232FF58274873EF583A3E0EA
:1021680090874375F00E30E613ED12089BEC75F07E
:102178000EA42583F583E4F0A304F022ED12089B56
:10218800EC75F00EA42583F583E4F0A3F0227BFF21
:102198007A16791F9086A5E4F0A37404F07F08519D
:1021A800047F057E00121FD57B017A85792F9086E2
:1021B800A5E4F0A37404F07F087E00121C759085D6
:1021C8002FE070DD229085CDE0FEA3E0FF7C007D4E
:1021D800641205DF7E007F0ACFCDCFCECCCE1205AC
:1021E800DFEF24149086B7F0A37401F0FB7A8679A8
:1021F800B79086A5E4F0A37402F07FA07E007D006E
:102208007C0090869E12085E9086A2EBF0A3EAF00E
:10221800A3E9F09086A712086A000000009086AB38
:1022280012086A00000000E49086AFF0A3F0A3F063
:10223800A3F0C2AF7B02FAF9F890869EE0FCA3E017
:10224800FDA3E0FEA3E0FF1207789086A712085EC0
:1022580090869EA3A3A3E05401FFE4FEFDFC9086B4
:10226800AB12085E9086A7E0FCA3E0FDA3E0FEA306
:10227800E0FF781012083FEFF5F19086A7E0FCA385
:10228800E0FDA3E0FEA3E0FF780812083FEFF5F2B7
:102298009086A7A3A3A3E0F5F375F40175F88FE47E
:1022A8007F01FEFDFCA3E0F8A3E0F9A3E0FAA3E0B8
:1022B800FBC312082E705DF5F475F8AF30FCFDD243
:1022C800FE20FEFD75F40175F88F30FCFD9086A2A6
:1022D800E0FBA3E475F001120680A9F0FA12055399
:1022E800F5FC9086A2E0FBA3E475F001120680A934
:1022F800F0FA120553F5FDD2FE20FEFD9086A6E009
:1023080024FFF09086A5E034FFF09086AB12086AAF
:10231800000000009086A5E0FCA3E0FDECC313FFDD
:10232800ED139086AFCFF0A3EFF07E00ED5401FFE0
:10233800A3EEF0A3EFF06401700E9086B0E004F015
:1023480070069086AFE004F09086AF74FFF5F01247
:10235800068045F07002811D9086B1E07004A3E00C
:10236800640170519086AFE07002A3E07047F5F405
:1023780075F8AF30FCFDD2FE20FEFD75F40175F84E
:102388008F30FCFD9086A2E0FBA3E475F0011206F5
:1023980080A9F0FA120553F5FA9086A2E0FBA3E4AF
:1023A80075F001120680A9F0FA120553F5FBD2FE6A
:1023B80030FE6280FB30FCFD9086A2E0FBA3E47552
:1023C800F001120680A9F0FA120553F5FA9086A2D8
:1023D800E0FBA3E475F001120680A9F0FA12055398
:1023E800F5FB9086A2E0FBA3E475F001120680A934
:1023F800F0FA120553F5FC9086A2E0FBA3E475F011
:1024080001120680A9F0FA120553F5FDD2FE20FE4E
:1024180002615080F9E4F5F8D2AF227520007521E9
:10242800047B007A0079209086A5E4F0A304F0FFED
:102438007E265106751A00751B037B007A00791AEF
:102448009086A5E4F0A304F07F027E2651069087CB
:1024580031E4F0A304F0FB7A8779319086A5E4F0A3
:10246800A304F07F027E275106E49085C8F0A3F00C
:10247800A3F0A3F07B017A8579C89086A5F0A374B0
:1024880002F07F037E265106E4908765F0A3F0A34F
:10249800F0A3F0A3F0A3F07B017A8779659086A575
:1024A800F0A37403F07F057E2651069085537401CE
:1024B800F0A37404F07B017A8579539086A5E4F043
:1024C800A304F07F117E2651067518007519507BFC
:1024D800007A0079189086A5E4F0A304F07F127EB4
:1024E800265106E4908569F0A3F0A3F0A3F0A3F0C9
:1024F800A304F0A3E4F0A304F0FB7A85796990863D
:10250800A5E4F0A37404F07F167E2651069084F7A4
:10251800E4F0A304F0FB7A8479F79086A5E4F0A3AD
:1025280004F07F1A7E265106908561E4F0A304F03A
:10253800FB7A8579619086A5E4F0A304F07F1D7E7F
:102548002651067E007F157D007B017A877923124C
:102558000A9C9086BF7408F0A3741EF0A3740CF054
:10256800A3E4F0A3F0A304F0A3E4F0A3741AF0A387
:10257800740CF0A3E4F0A3740DF0A3E4F0A3F0A3AB
:1025880004F0A3E4F0A3741AF0A3740DF0A3E4F02C
:10259800A37412F0A3E4F0A3F0A304F0A3E4F0A35F
:1025A800741AF0A37412F0A3E4F0A3740CF0A3E47B
:1025B800F0A3F0A304F0A3E4F0A3741AF07B017A6B
:1025C8008779239086A5E4F0A304F07F207E265126
:1025D800067B017A8679BF9086A5E4F0A37410F093
:1025E8007F217E2651069086DF7408F0A3741EF0C2
:1025F800A3740CF0A3E4F0A3F0A304F0A3E4F0A305
:10260800741AF0A3740CF0A3E4F0A3740DF0A3E41F
:10261800F0A3F0A304F0A3E4F0A3741AF0A3740DDC
:10262800F0A3E4F0A37412F0A3E4F0A3F0A304F081
:10263800A3E4F0A3741AF0A37412F0A3E4F0A37453
:102648000CF0A3E4F0A3F0A304F0A3E4F0A3741A3D
:10265800F07B017A8779259086A5E4F0A304F07FC2
:10266800327E2651067B017A8679DF9086A5E4F0D2
:10267800A37410F07F337E2651069086FF7408F00D
:10268800A3741EF0A3740CF0A3E4F0A3F0A304F069
:10269800A3E4F0A3741AF0A3740CF0A3E4F0A374F9
:1026A8000DF0A3E4F0A3F0A304F0A3E4F0A3741ADC
:1026B800F0A3740DF0A3E4F0A37412F0A3E4F0A364
:1026C800F0A304F0A3E4F0A3741AF0A37412F0A327
:1026D800E4F0A3740CF0A3E4F0A3F0A304F0A3E4E3
:1026E800F0A3741AF07B017A8779279086A5E4F025
:1026F800A304F07F447E2651067B017A8679FF90F9
:1027080086A5E4F0A37410F07F457E267D007C004A
:10271800410A9085B7E06401706B20A27B7F0AFEB6
:10272800121FD520A272E4F50AF50B20A2097F0139
:102738007E00121FD580F4C3E50B94B8E50A940B0C
:10274800908521745A5007F0A37401F08005F0A316
:102758007410F07401908503F0A3F0FB7A85792159
:102768009086A5E4F0A304F07F007E2051067B014B
:102778007A8579039086A5E4F0A304F07F027E2091
:102788005106022FDE30A2107F0A7E00121FD530BC
:10279800A2069085B77401F022912390877D1208D4
:1027A8006A000000007B017A87797D9086A5E4F0B5
:1027B800A37402F07F7A7E205106908589745AF0BE
:1027C800A37401F0E4A3F0E51A7023E51B24FE606E
:1027D8000F1460142402701690858C7403F0800E18
:1027E80090858C7402F0800690858C7401F07B01D2
:1027F8007A8579899086A5E4F0A37402F07F847EB7
:10280800007D007C0002220A7BFF7A1679279086D9
:10281800A5E4F0A37404F07F081222047F057E006B
:10282800121FD57B017A85792F9086A5E4F0A374D1
:1028380004F07F087E00121C7590852FE070DD2261
:102848001110C2A122D1487B007A0079359086A563
:10285800E4F0A304F07F047E20121C75D3E53694BF
:1028680000E5359400500241C5E5368535F012087B
:10287800A72941001029450011294A0100294E01C4
:10288800012953010229580103295D010429610125
:10289800052965010629690107296D0200296F02CA
:1028A80001297A02022987020329950204299D0237
:1028B8000529A6020629B0020729D0020829E5023F
:1028C8000929E9020A2A09020B2A0D020C2A140214
:1028D8000D2A1803002A1D03012A2103022A2503B1
:1028E800032A2A03042A2F04002A3404012A39045B
:1028F800022A3D05002A3F05012A4805022A5905F2
:10290800032A6905042A6D06012A7107012A750739
:10291800022A7A08002A7E08012A8208022A8608E2
:10292800032A8B08102A9008112A9509012A9A0A65
:10293800002A9E0A0100002AA5D11541A512575167
:1029480041A5F13F41A512577341A51257CB41A5A7
:102958001227A141A5F14041A5F14141A5F142410C
:10296800A5F14341A5410FE490877BF0A3F0FFFE5A
:10297800410490877BE4F0A304F0FF7E00807D9003
:10298800877BE4F0A37402F0FF7E00806FE49087F9
:1029980078F0A3801B908778E4F0A30480129087D6
:1029A80078E4F0A374028008908778E4F0A37403B5
:1029B800F0918190877BE0FEA3E0FF908778E0FCB0
:1029C800A3E0FD12592541A590877BE0FEA3E0FF17
:1029D800908778E0FCA3E0FD125A9941A5F14441A3
:1029E800A590877BE0FEA3E0FF908778E0FCA3E05A
:1029F800FD125CA790877BE0FEA3E0FF1257EF4132
:102A0800A5F14541A59181121F6D41A5F14641A54A
:102A1800125E1341A5912D41A5F14741A51254C558
:102A2800807B1255698076125E83807112416080C6
:102A38006CF1498068802590880AE4F0A304800836
:102A480090880AE4F0A37402F0FF7E00125F6280AF
:102A58004C90880AE0FEA3E0FF126003125EF28049
:102A68003CF1488038F1668034114880301227C222
:102A7800802BF1848027F1A28023F1C0801F125699
:102A880010801A1260AF80151260DE801012610F7C
:102A9800800B7F0080027F017E0A12613F90877A57
:102AA8007401F0E4F535F536FB7A0079359086A5A2
:102AB800F0A304F07F047E20122206F14C1237DACC
:102AC8001238BAD1967B017A8579D29086A5E4F03E
:102AD800A304F07F0D7E20121C759085D2E064A5BA
:102AE800600261CCF07B017A8579D29086A5F0A34B
:102AF80004F07F0D7E201222069085D3E0FFB401FA
:102B08001B908809E0700261B624C2F582E434871C
:102B1800F583E4F0908809E014F061B6EFB402237D
:102B2800E49085D4F09085D4E0FFC39414507A746F
:102B3800C32FF582E43487F583E4F09085D4E0046C
:102B4800F080E29085D3E0640370639087C3E0600F
:102B58005DE5377031E5381460160470297B017A19
:102B68008779C39086A5E4F0A3740AF07FB080113A
:102B78007B017A8779C39086A5E4F0A3740AF07F75
:102B8800C07E04122206E49085D4F09085D4E0FF3C
:102B9800C39414501474C32FF582E43487F583E486
:102BA800F09085D4E004F080E2E4908809F07B019D
:102BB8007A8779C39086A5E4F0A3740AF07F047E2F
:102BC800271222069085D2E0645A7058F07B017A69
:102BD8008579D29086A5F0A304F07F0D7E2012227D
:102BE80006908809E0FFC3941350239085D3E0FE34
:102BF80074C32FF582E43487F583EEF074C42FF59F
:102C080082E43487F583E4F0908809E004F07B01DE
:102C18007A8779C39086A5E4F0A3740AF07F047ECE
:102C28002712220622121C4B908781E0FAA3E0FBB0
:102C3800D39409EA9400504090878FE0FEA3E0FF08
:102C48009420EE94005031C3EF9410EE9400402885
:102C58007C007D0A1205CDEB2FFFEA3E908553F0EC
:102C6800A3EFF07B017A8579539086A5E4F0A3045D
:102C7800F07F117E261222062290877BE0FEA3E0D9
:102C8800FF9085D2EEF0A3EFF0E4A3F07B017A8702
:102C980079D99086A5F0A37407F07F407E20121C96
:102CA80075E49085D4F09085D4E0FFC39407400282
:102CB800A1A6EF25E024D9F582E43487F583E0FE68
:102CC800A3E064014E70639085D2E0FEA3E0FF7537
:102CD800F00EA42437F582E43487F583C083C082DC
:102CE8009085D4E0D082D08375F00212089BE4F07E
:102CF800A304F0EF25E0FFEE33FE74232FF5827472
:102D0800873EF583C083C082E0FCA3E0FD9085D4B4
:102D1800E0FF74017E00A807088005C333CE33CED8
:102D2800D8F9FFEC4EFEED4F80629085D2E0FEA30D
:102D3800E0FF75F00EA42437F582E43487F583C0EC
:102D480083C0829085D4E0D082D08375F0021208C7
:102D58009BE4F0A3F0EF25E0FFEE33FE74232FF59C
:102D68008274873EF583C083C082E0FCA3E0FD90B7
:102D780085D4E0FF74017E00A807088005C333CE20
:102D880033CED8F9F4FFEEF45CFEED5FFFD082D0CD
:102D980083EEF0A3EFF09085D4E004F081AE7B01E0
:102DA8007A8779379086A5E4F0A37415F07F207EA2
:102DB800201222069085D2E07002A3E070117B01F8
:102DC8007A8779239086A5F0A304F07F2080389035
:102DD80085D2E07004A3E0640170117B017A8779E1
:102DE800259086A5F0A304F07F32801B9085D2E061
:102DF8007004A3E0640270147B017A8779279086B7
:102E0800A5F0A304F07F447E26122206227B017AD5
:102E18008479F09086A5E4F0A304F07F007E261262
:102E28001C759084F0E07004A3E06401700302371D
:102E3800899084F0E07004A3E064027002D1EA2271
:102E480078D27C857D017BFF7A1679517E007F02DE
:102E580012052D7B017A8579D29086A5E4F0A3042A
:102E6800F07F0E7E20121C759085D2E0B45A1EE4C5
:102E7800F07B017A8579D29086A5F0A304F07F0EC5
:102E88007E201222069085D3E0FF124F2A229087D7
:102E98007AE0FF30E04B30E434D3908552E09488F8
:102EA800908551E094134039908560E004F07006F5
:102EB80090855FE004F0D3908560E0940690855F8C
:102EC800E09400401C1110E490877A800D90877A76
:102ED800E04410F0E4908551F0A3F090855FF0A3F2
:102EE800F022123060E49085A9F0A3F09085B3F049
:102EF800A3F0908523F0A3F0908586F090876FF07B
:102F0800A3F09086BBF0A3F09084F0F0A304F090B7
:102F180084F0E0FFA3E09084F4CFF0A3EFF07B010E
:102F28007A8479F09086A5E4F0A304F07F007E26E9
:102F38007D007C0002220A22222222222222222230
:102F4800220227C27BFF7A16794B9086A5E4F0A36C
:102F58007403F07F017E047D007C0002220AE49065
:102F6800878BF0A3F07B017A87798B9086A5F0A3F5
:102F780004F07F147E261222060227C275200075EF
:102F880021047B007A0079209086A5E4F0A304F060
:102F9800FF7E267D007C0002220A75200075210133
:102FA8007B007A0079209086A5E4F0A304F0FF7EE8
:102FB800267D007C0002220A7520007521027B0014
:102FC8007A0079209086A5E4F0A304F0FF7E267DA0
:102FD800007C0002220A7B017A8579219086A5E48B
:102FE800F0A304F07F007E20121C75908521E0FE7E
:102FF800E47003EE645A705F7B017A8579039086EA
:10300800A5F0A304F07F027E20121C75908522E0B3
:1030180064017014908503E0B4010DA3E0B40108C5
:10302800753500753610801A908522E06410702777
:10303800908503E0B40120A3E0B4011B7535007549
:1030480036117B007A0079359086A5E4F0A304F068
:103058007F047E20122206221227C27B007A007982
:10306800189086A5E4F0A304F07F127E26121C7542
:10307800E5199085BAF07B017A8579BA9086A5E43E
:10308800F0A37402F07F82122204E4908573F02288
:10309800E47B017A8579279086A5F0A37404F07FF4
:1030A800167E00121C7578277C857D017B017A8548
:1030B8007917120A7FEF600221C29085A9E0700299
:1030C800A3E0600221A97B017A8579679086A5F043
:1030D800A304F07F147E00121C75908567E07004CD
:1030E800A3E0641E700D908571E07002A3E0700388
:1030F8001227C27B017A8579619086A5E4F0A30442
:10310800F07F1D7E26121C75908561E07004A3E097
:10311800640170199085B3E0FEA3E0FFE4FCFD7B39
:10312800607AEAF9F8D31208185053801B90856129
:10313800E07004A3E064027045C3908524E0940520
:10314800908523E09400400A9085A9E4F0A304F058
:10315800802C9085B3E0FEA3E0FFE4FCFD7B607A61
:10316800EAF9F8D31208185015908524E004F07095
:1031780006908523E004F0E49085B3F0A3F09085F1
:10318800A9E07004A3E0640170177B017A8479F7E1
:103198009086A5F0A304F07F1A7E26121C75122FC4
:1031A8004C9085A9E07004A3E0640160024144905A
:1031B80084F7E0FEA3E0FF0239217B017A85796775
:1031C8009086A5E4F0A304F07F147E00121C75908D
:1031D8008567E07004A3E0641E700A908571742707
:1031E800F0A37410F078177C857D017B017A8579CE
:1031F800277E007F0812052D9085A9E07004A3E0C2
:10320800640170021160E49085A9F0A3F09085B381
:10321800F0A3F0908523F0A3F0908586F090857355
:10322800F09084F0F0A304F0FB7A8479F09086A5FE
:10323800E4F0A304F07F007E261222062212271A49
:10324800121E66B17990855BE0FEA3E0FF908501D0
:10325800E0FCA3E0FD123A6C1249DE908573E03081
:10326800E004D178800451F9B1F7D1FA11987B01C3
:103278007A8479F09086A5E4F0A304F07F007E2696
:10328800121C759084F0E0FEA3E0FF64024E7040CB
:103298009084F4E0FCA3E0FDEF6D7002EE6C60300A
:1032A8007BFF7A1679369086A5E4F0A37402F07F46
:1032B800821222049085737401F0E4908525F0A3AE
:1032C800F09084F0E0FFA3E09084F4CFF0A3EFF057
:1032D8009084F0E0FEA3E0FF64014E70139084F444
:1032E800E0FCA3E0FDEF6D7002EE6C6003122EEAC5
:1032F80022919871F89086B3E07002A3E0600261B1
:10330800F7908771E07002A3E0600261F790872B65
:10331800E07002A3E0705AE51B6401451A70199029
:103328008553E0FEA3E0FFD39085CEE09F9085CD46
:10333800E09E400261F78021E51B6402451A6002A5
:1033480061F7908553E0FEA3E0FFC39085CEE09F30
:103358009085CDE09E500261F790872BE4F0A3049E
:10336800F0E4F508F50990857304F0E4908525806C
:103378007BE51B6401451A702D9085CEE024ECFF97
:103388009085CDE034FFFED3908554E09F9085531F
:10339800E09E505BE490872BF0A3F090876FF0A33A
:1033A800F09086BB8046E51B6402451A702D908517
:1033B80054E024ECFF908553E034FFFED39085CE93
:1033C800E09F9085CDE09E5026E490872BF0A3F0F7
:1033D80090876FF0A3F09086BB8011E51B640345CE
:1033E8001A700C90872BF0A3F090876FF0A3F0224F
:1033F80090872BE07002A3E0600281979086B3E08B
:103408007002A3E060028197124D1C908771E070F2
:1034180002A3E0704C908721E07002A3E07070E591
:103428001D6401451C7014D29390859FF0A304F08D
:10343800FB7A85799F9086A5E48012C293E49085F3
:103448009FF0A3F07B017A85799F9086A5F0A3046D
:10345800F07F087E26122206908721E4F0A304F06C
:1034680022908771E07004A3E064017022D3E5091B
:1034780094E8E50894034017E4908721F0A3F090BE
:103488008771F0A3F09086BBE51CF0A3E51DF02240
:1034980090872BE07002A3E06002A178124C59904B
:1034A80086B3E07002A3E070669086B5E07002A370
:1034B800E06002A178E525640145247008D291C234
:1034C80094C292801EE525640245247008C291D2F8
:1034D80094C292800EE525640345247006C291C209
:1034E80094D292E4F508F5099086B5F0A304F0901B
:1034F8008584E4F0A304F0FB7A8579849086A5E4BA
:10350800F0A304F07F097E267D007C0002220A9049
:1035180086B3E07004A3E064017029D3E50994E858
:10352800E5089403401EC294C292C2919086B3E407
:10353800F0A37410F0E4F508F50990876FE524F01E
:10354800A3E525F09086B3E07004A3E06410702032
:10355800D3E50994E8E5089403401590876FE524BE
:10356800F0A3E525F0E49086B3F0A3F0A3F0A3F070
:10357800227B017A8579679086A5E4F0A304F07F21
:10358800147E00121C757B007A00791A9086A5E4D7
:10359800F0A304F07F027E26121C75E51A704CE534
:1035A8001B24FE601C14602E2402703F908567E087
:1035B800FEA3E0FF64024E6032EF64014E702F807C
:1035C8002A908567E0FEA3E0FF64014E6006EF6481
:1035D800034E701A8015908567E0FEA3E0FF640231
:1035E8004E6006EF64034E700580001227C2227BEE
:1035F800007A0079189086A5E4F0A304F07F127E83
:1036080026121C759085A1E065187004A3E0651961
:1036180060229085A1E518F0A3E519F09085BAF02D
:103628007B017A8579BA9086A5E4F0A37402F07FCD
:1036380082122204E519640A45187008908587F0FB
:10364800A3F08013AE18AF197C007D0A1205DF9035
:103658008587EEF0A3EFF07B017A8579879086A5C0
:10366800E4F0A304F07F837E207D007C0002220A20
:10367800908573E0FF30E079908525E07004A3E041
:103688006401606DEF30E45DD3E50994E8E50894E2
:10369800034021C291C294C292E4908584F0A3F0C1
:1036A8007B017A8579849086A5F0A304F07F097E52
:1036B80026122206D3E50994D0E50894074032C2C1
:1036C80093E490859FF0A3F07B017A85799F90869B
:1036D800A5F0A304F07F087E26122206908525E433
:1036E800F0A304F022E4F508F509908573E044108E
:1036F800F0227B017A8579C89086A5E4F0A374024C
:10370800F07F037E26121C75D39085C9E094009043
:1037180085C8E09400500E9085CBE094009085CA4F
:10372800E09400403E7B017A8579699086A5E4F0B3
:10373800A37404F07F167E26121C75908578E0FE2F
:10374800A3E07C002400FFEC3E908515F0A3EFF089
:103758009085A7E4F0A304F0FB7A8579A79086A565
:10376800E48010E49085A7F0A3F07B017A8579A71F
:103778009086A5F0A304F07F757E201222067F00B4
:10378800227BFF7A1679369086A5E4F0A37402F0BE
:103798007F821222049085737401F0E4908525F0ED
:1037A800A3F09084F0F0A37402F09084F0E0FFA3FB
:1037B800E09084F4CFF0A3EFF07B017A8479F09065
:1037C80086A5E4F0A304F07F007E267D007C00023D
:1037D800220AE49085D2F07B017A8779769086A5D3
:1037E800F0A304F07F0C7E20121C75908776E0FE13
:1037F800A3E0FFD39400EE94004078EF8EF0120817
:10380800A738291001383010023838100338401012
:10381800043848100538501006385810070000388A
:103828005EE49085D2F0802E9085D27401F08026D7
:103838009085D27402F0801E9085D27403F08016B1
:103848009085D27404F0800E9085D27405F08006BD
:103858009085D27406F0117CE4908776F0A3F07B13
:10386800017A8779769086A5F0A304F07F0C7E20F4
:10387800122206229085D2E0FF908589745AF0A31F
:103888007401F0E4A3F0EF25E0243BF582E43485ED
:10389800F583A3E090858CF07B017A857989908601
:1038A800A5E4F0A37402F07F847E007D007C000212
:1038B800220AE49085D2F07B017A8779D79086A591
:1038C800F0A304F07F087E20121C759087D7E0FED5
:1038D800A3E0FFD39400EE9400403DEF8EF0120871
:1038E800A738F5100138FD1002000039039085D281
:1038F8007406F080069085D27407F0117CE49087F6
:10390800D7F0A3F07B017A8779D79086A5F0A30436
:10391800F07F087E2012220622EE600221E2EF24C8
:10392800FE602514607C2402600221E2908586E016
:103938006401700221E2908589745AF0A37401F041
:10394800E4A3F090857E8072908586E06401700221
:1039580021E2908589745AF0A37401F0E4A3F090F1
:103968008580A3E090858CF07B017A8579899086A3
:10397800A5E4F0A37402F07F841222049085867473
:1039880001F090855DE4F0A304F0FB7A85795D9001
:1039980086A5E4F0A304F07F007E277D007C00026A
:1039A800220A908586E064016030908589745AF017
:1039B800A37401F0E4A3F0908582A3E090858CF0D5
:1039C8007B017A8579899086A5E4F0A37402F07F5B
:1039D800841222049085867401F022438901758C33
:1039E800BC758ACDD2A9D2AFD28C22438901758DFC
:1039F800BC758BCDD2ABD2AFD28E2275C870E4F530
:103A0800CDF5CC75CBBC75CACD43A820D2C8D2AFF2
:103A1800227B017A8479DB9086A5E4F0A37408F010
:103A28007F327E00121C759084DBE0FEA3E0FF90DD
:103A3800858EE02FF090858DE03EF09084E7E0FEE3
:103A4800A3E0FF90859AE02FF0908599E03EF090F2
:103A580084E9E0FEA3E0FF90859CE02FF090859B31
:103A6800E03EF0229085D2ECF0A3EDF0AB07AA0679
:103A7800A312086A000000009085D812086A0000A6
:103A88000000D39085B9E09B9085B8E09A5002A1D8
:103A9800FB51199084ECE004F070069084EBE0048C
:103AA800F09085D2E0FEA3E0FFC39084ECE09F9005
:103AB80084EBE09E5002A1F4F1647BFF7A147971E3
:103AC8009084FBB1FC9085C4E4F0A3EFF07BFF7A0F
:103AD8001579399084FDB1FC9085C6E4F0A3EFF028
:103AE8009085C5E025E0FF9085C4E033FE74732F10
:103AF800F58274143EF583E493FC740193FD7471AC
:103B08002FF58274143EF583C37401939DFDE493ED
:103B18009CFCE41203A3C004C005C006C00790853E
:103B2800C5E025E0FF9085C4E033FE74712FF5826F
:103B380074143EF583E493FE740193FF9084FBE0D4
:103B4800FCA3E0FDC3EF9DFDEE9CFCE41203A3D0B3
:103B580003D002D001D0001203019085D412085E70
:103B68009085C7E025E0FF9085C6E033FE743B2FC3
:103B7800F58274153EF583E493FC740193FD743962
:103B88002FF58274153EF583C37401939DFDE4936C
:103B98009CFCE41203A3C004C005C006C0079085BE
:103BA800C7E025E0FF9085C6E033FE74392FF58223
:103BB80074153EF583E493FE740193FF9084FDE051
:103BC800FCA3E0FDC3EF9DFDEE9CFCE41203A3D033
:103BD80003D002D001D0001203019085D812085EEC
:103BE800E4FFFE7D207C419085D4E0F8A3E0F9A3B2
:103BF800E0FAA3E0FB1201F8C004C005C006C00744
:103C08009085C4E0FEA3E0FF7C007D0A1205CDACE0
:103C180006AD07E41203A3D003D002D001D00012EE
:103C280001071203DC9085C4EEF0A3EFF0E4FFFE79
:103C38007D207C419085D8E0F8A3E0F9A3E0FAA3C1
:103C4800E0FB1201F8C004C005C006C0079085C695
:103C5800E0FEA3E0FF7C007D0A1205CDAC06AD07AF
:103C6800E41203A3D003D002D001D000120107123E
:103C780003DC9085C6EEF0A3EFF07B017A8579C46A
:103C88009086A5E4F0A304F07F027E101222067B42
:103C9800017A8579C69086A5E4F0A304F07F047EB6
:103CA800101222069085C6E0FCA3E0FD9085C0E0D6
:103CB800FEA3E0FF1205CDAA06AB079085C4E0FC81
:103CC800A3E0FD9085BEE0FEA3E0FF1205CDC3EFA3
:103CD8009BFFEE9AFE9085C3E02FFF9085C2E03EE1
:103CE8009085CDF0A3EFF0908539E0FEA3E0FF7C4E
:103CF800007D0A1205CD9085CDE0FCA3E0FDCFCD77
:103D0800CFCECCCE1205DF7C007D0A1205CD908582
:103D1800CDEEF0A3EFF09085D0E0FEA3E0FFC390D6
:103D280085CEE09FFF9085CDE09EFE12119D908587
:103D380039E0B50646A3E0B507419084EEE004F00B
:103D480070069084EDE004F0C39084EEE094059052
:103D580084EDE09400500C9085D0E0FFA3E09085BE
:103D6800CD8011E49084EDF0A3F09085CDE0FFA321
:103D7800E09085D0CFF0A3EFF080469085D0E0FEAC
:103D8800A3E0FFC39085CEE09FFF9085CDE09EFE27
:103D980012119DAC06AD0790853AE025E0FF9085AD
:103DA80039E033FEC3ED9FEC9E40169085CDE0FFD1
:103DB800A3E09085D0CFF0A3EFF0E49084EDF0A3DA
:103DC800F07B017A8579CD9086A5E4F0A304F07F95
:103DD800107E261222067E007F107D007B017A85E8
:103DE800798D120A9CE49084EBF0A3F0E49085B8F6
:103DF800F0A3F022E0FFA3E09085E0CFF0A3EFF07E
:103E08007D649085DCEBF0A3EAF0A3E9F0A3EDF084
:103E1800E49085E2F0A3F0A3F0A3F09085E3746347
:103E2800F09085DCE0FBA3E0FAA3E0F99085E2E0FE
:103E380075F002A4F58285F083120696FF9085E05E
:103E4800E0FCA3E0FDC39FEC95F04004A3E0FF2253
:103E58009085DCE0FBA3E0FAA3E0F99085E3E07548
:103E6800F002A4F58285F083120696FFD3ED9FEC4D
:103E780095F050069085E3E0FF229085E3E0FF90FF
:103E880085E2E0FEC39F4002E14EEFFDEE2DFFE428
:103E980033C313EF139085E4F09085DCE0FBA3E0D7
:103EA800FAA3E0F99085E4E075F002A4F58285F0C4
:103EB80083120696FFAEF09085E0E0FCA3E0FD6F6C
:103EC8007002EC6E7002E14EC3ED9FEC9E502C9098
:103ED80085E4E02401FFE433FEEF25E0FFEE33FE46
:103EE8009085DCE0FBA3E0FAA3E0F98F828E8312D1
:103EF8000696FFD3ED9FEC95F0504B9085DCE0FBE8
:103F0800A3E0FAA3E0F99085E4E075F002A4F58255
:103F180085F083120696FFD39085E1E09F9085E0B7
:103F2800E095F09085E4E040069085E3F080049009
:103F380085E2F09085DFE0FF9085E5E0FE04F0EE95
:103F4800D39F5002C1829085E3E0FF9085E2E0D3E1
:103F58009F40037F00229085E4E0FF22AB07AA067A
:103F68009085DC12086A000000009085E012086A5B
:103F78000000000090858DE0FEA3E0FFAD03AC02D9
:103F88001205DF908555EEF0A3EFF0908599E0FEDD
:103F9800A3E0FFAD03AC021205DF908561EEF0A34C
:103FA800EFF0AC02AD0390859BE0FEA3E0FF1205A5
:103FB800DF908563EEF0A3EFF0C3908562E09FFD8C
:103FC800908561E09EFCE41203A3C004C005C0060E
:103FD800C007908563E0FCA3E0FDE41203A3D003CF
:103FE800D002D001D0001203019085DC12085E9047
:103FF8008555E0FEA3E0FFC3908562E09FFD9085B4
:1040080061E09EFCE41203A3C004C005C006C0071B
:10401800908555E0FCA3E0FDE41203A3D003D00291
:10402800D001D0001203019085E012085E7F007E67
:10403800407D1C7C469085DCE0F8A3E0F9A3E0FA1B
:10404800A3E0FB1201F81203DC9084FBEEF0A3EF6F
:10405800F07F007E407D1C7C469085E0E0F8A3E080
:10406800F9A3E0FAA3E0FB1201F81203DC9084FD47
:10407800EEF0A3EFF022C0E0C0F0C083C082C0D051
:1040880075D000C000C001C002C003C004C005C094
:1040980006C007C2AF758CBC758ACD0509E50970E5
:1040A800020508AE0AAF0BE4FCFD7BDC7AFFF9F8E9
:1040B800D31208184008050BE50B7002050A908515
:1040C80071E07002A3E0600E908572E024FFF0902A
:1040D8008571E034FFF0908520E004F0700690854B
:1040E8001FE004F09085B4E004F070069085B3E01A
:1040F80004F0908552E004F07006908551E004F0D9
:104108009085B9E004F070069085B8E004F0D2AF6D
:10411800D007D006D005D004D003D002D001D000FB
:10412800D0D0D082D083D0F0D0E032AB07AA06EB53
:1041380054037021FC7D641205DFED4C7014AE024F
:10414800AF037C017D901205DFED4C7F0070087F86
:1041580001227F01227F00227B017A8779FF9086E6
:10416800A5E4F0A37405F07F187E20121C759088D2
:1041780000E02400F09087FFE0349CF0908802E093
:104188002400F0908801E0349CF0908804E024003A
:10419800F0908803E0349CF0908806E02400F090CA
:1041A8008805E0349CF0908808E02400F0908807A7
:1041B800E0349CF0908801E0FEA3E0FF9016129393
:1041C800FDD3908804E09D908803E09400404BEF75
:1041D80064024E70339087FFE0FEA3E0FF3133EFB7
:1041E8006038D3908804E0941D908803E0940040E0
:1041F80029908801A3E0901612932401FEE43390DD
:104208008803F0A3CEF08012908801A3E0901612E4
:1042180093FF908803E4F0A3EFF0908801E0700228
:10422800A3E07007908801F0A304F0908803E07081
:1042380002A3E07007908803F0A304F09085AB74A4
:104248005AF0A374A5F09087FFA3E09085ADF09095
:104258008801A3E09085AEF0908803A3E09085AF35
:10426800F0908805A3E09085B0F0908807A3E090CF
:1042780085B1F0E4A3F07B017A8579AB51890227F7
:10428800C29085D2EBF0A3EAF0A3E9F078D57C855B
:104298007D017BFF7A1679537E007F0712052D90EA
:1042A80085D2E0FBA3E475F001120680A9F0FA12AA
:1042B8000553645A600261979085D2E0FBA3E475C8
:1042C800F001120680A9F0FA12055364A560026194
:1042D800979085D2E0FBA3E475F001120680A9F05F
:1042E800FA1205539085DBF09085D2E0FBA3E475C4
:1042F800F001120680A9F0FA1205539085DAF090C1
:1043080085D2E0FBA3E475F001120680A9F0FA1249
:1043180005539085D8F09085DAE02401FFE433FE58
:104328007C007D1A1205CD7D0A1205DFA3E0FE137D
:1043380013543FFDEE2D2FFF9085D8E02F24DCA3EA
:10434800F075F00784AFF0EFF0C394005004E02458
:1043580007F09085D2E0FBA3E475F001120680A96E
:10436800F0FA1205539085D7F09085D2E0FBA3E4CC
:1043780075F001120680A9F0FA1205539085D6F05F
:10438800E49085D5F07B017A8579D57F02719822F2
:104398009085DCEBF0A3EAF0A3E9F0AC07ECB408F5
:1043A80000503D9043B2F82828730243CA0243CA1A
:1043B8000243D20243DA0243E20243E20243CA0260
:1043C80043CA9085DF7401F080169085DF7407F08A
:1043D800800E9085DF7403F080069085DF7404F00A
:1043E8009123E4FC9085DFE0FFECC39F501F90858C
:1043F800DCE0FBA3E475F001120680A9F0FA1205CF
:1044080053FFF1D6AB0791BE912F0C80D7D13B90CB
:10441800881DE532F0E490881CF022D1B17FA2918A
:10442800BE912FAF0491BEE4FFFEC2B29085E07446
:104438000FF09085E0E0FD14F0ED70F653BEF790B4
:1044480085E0740FF09085E0E0FD14F0ED70F6C3A0
:10445800EF94FFEE940050140FBF00010EA2B3E4D6
:1044680033700280070FBF00010E80E3D2B290853F
:10447800E0740FF09085E0E0FF14F0EF70F6C2B240
:104488009085E0740FF09085E0E0FF14F0EF70F68F
:104498009085E0740FF09085E0E0FF14F0EF70F67F
:1044A80043BE08C2B39085E0740FF09085E0E0FF4A
:1044B80014F0EF70F622C2B29085E0740FF0908588
:1044C800E0E0FE14F0EE70F643BE08C2B39085E05B
:1044D800740FF09085E0E0FE14F0EE70F6E4FEEF65
:1044E80030E71743BE08D2B39085E0740FF090858B
:1044F800E0E0FD14F0ED601780F443BE08C2B3900D
:1045080085E0740FF09085E0E0FD14F0ED70F6D2D0
:10451800B29085E0740FF09085E0E0FD14F0ED7046
:10452800F6C2B29085E0740FF09085E0E0FD14F0DB
:10453800ED70F6EF25E0FF0EEEB408A3227B007ABB
:1045480000792E7F029085D6EBF0A3EAF0A3E9F07C
:10455800AC07ECB40800503D904567F82828730272
:10456800457F02457F02458702458F0245970245F0
:104578009702457F02457F9085DA7401F080169096
:1045880085DA7407F0800E9085DA7403F08006905F
:1045980085DA7404F09123D1B17FA391BE912FE401
:1045A800FC9085DAE014FFECC39F505E1263BC9068
:1045B80085D9EFF0EC6003B401079085D9E0547F0A
:1045C800F0EC64026004ECB403079085D9E0543F32
:1045D800F0ECB404079085D9E05407F0ECB4050773
:1045E8009085D9E0541FF09085D9E0FFF1C5EFF030
:1045F8009085D6E0FBA3E0FAA3E0F98C82758300EE
:10460800EF1205AB1262F00C80971263BC9085D94B
:10461800EFF0547FFFF0F1C5EFF09085D6E0FBA3F3
:10462800E0FAA3E0F9AE048E82758300EF1205ABC1
:1046380012635FC2B29085E0740FF09085E0E0FFEE
:1046480014F0EF70F643BE08C2B39085E0740FF023
:104658009085E0E0FF14F0EF70F6D2B29085E07438
:104668000FF09085E0E0FF14F0EF70F643BE08D23B
:10467800B39085E0740FF09085E0E0FF14F0EF70E0
:10468800F6C2B29085E0740FF09085E0E0FF14F078
:10469800EF70F643BE08C2B39085E0740FF09085C2
:1046A800E0E0FF14F0EF70F62243BE089085E07456
:1046B8000FF09085E0E0FF14F0EF70F643BE08C2FB
:1046C800B39085E0740FF09085E0E0FF14F0EF7090
:1046D800F643BE049085E0740FF09085E0E0FF1487
:1046E800F0EF70F69085E0740FF09085E0E0FF142D
:1046F800F0EF70F6C2B29085E0740FF09085E0E0BC
:10470800FF14F0EF70F643BE08C2B39085E0740F53
:10471800F09085E0E0FF14F0EF70F643BE08D2B3E6
:104728009085E0740FF09085E0E0FF14F0EF70F6EC
:10473800D2B29085E0740FF09085E0E0FF14F0EFBE
:1047480070F643BE08C2B39085E0740FF09085E020
:10475800E0FF14F0EF70F6C2B29085E0740FF090AD
:1047680085E0E0FF14F0EF70F622B145E52FD39411
:104778003C402875341475330575320575311F753D
:104788003010752F0E752E0E7B007A00792E7F0261
:1047980071987F0A7E00121FD5B145E5336011E597
:1047A80031600DE533D3940C5006E531941F400772
:1047B80090881E7401F022E490881EF022EF54F0D5
:1047C800C4540F75F00AA4FEEF540F2EFF22EF75A4
:1047D800F00A84C454F0FEEF75F00A84AFF0EE4F8F
:1047E800FF229085D6EDF0A3EBF0EF24D0FEE43461
:1047F8000790857CF0A3CEF090857CE0FAA3E0FBDF
:104808007C007D64FFAE021205DF9085CCEFF07C62
:10481800007D64AF03AE021205DF9084EFEDF090E7
:1048280085CCE0D3941340079084EFE02464F090A3
:1048380084EFE0FF1313543FFDEF2DFFE433FE7CBC
:10484800007D071205DFAE04AF059085D7E02FFF86
:10485800E43EFE9085D6E0F9901600937C002FFF89
:10486800EC3EFE9084EFE05403700BE9C3940350D0
:1048780005EF1F70011E7C007D071205DFAE04AF37
:1048880005EF4E70037F0622EF14FF22C0E0C0F050
:10489800C083C082C0D075D000C000C002C003C0B1
:1048A80004C005C006C007C2AF758DBC758BCD05A9
:1048B8000DE50D7002050C64E87004E50C640360F6
:1048C80002216D90857AE004F0E0D3943B500221F8
:1048D8005FE4F0908579E004F0E0D3943B4078E41D
:1048E800F0908578E004F0E0D39417406AE4F09003
:1048F8008576E004F0908575E06402702E908574EA
:10490800E024D0FFE43407FE124133EF601DA3E03A
:10491800901612932401FFE433FE908576E0D39F2E
:10492800EE6480F8748098401C8011908575E09042
:10493800161293FF908576E0D39F40097401F0909A
:104948008575E004F0908575E0D3940C40097401F6
:10495800F0908574E004F0750C00750D009084F2F9
:10496800E4F0A304F0D2AFD007D006D005D004D02D
:1049780003D002D000D0D0D082D083D0F0D0E032A3
:10498800C0E0C083C082C2AFC2C6E50F150F700277
:10499800150EE511451070069082ADF08008E511FE
:1049A800151170021510E513451270069082AEF0CD
:1049B8008008E513151370021512E5151515700218
:1049C8001514E51715177002151643C901D2AFD093
:1049D80082D083D0E032E49085D2F07B017A877967
:1049E800659086A5F0A37403F07F057E26121C75DA
:1049F800D3908766E09400908765E09400501E90FD
:104A08008768E09400908767E09400501090876A68
:104A1800E09400908769E094005002813DE490861C
:104A2800BDF0A3F09086BDE0FEA3E0FFC39403EEC3
:104A380094004002812AEF25E0FFEE33FE74652FD3
:104A4800F58274873EF583E0FEA3E064014E6002C0
:104A5800811A9086BDA3E075F00EA42437F582E490
:104A68003487F583C083C082908577E0D082D08375
:104A780075F00212089BE0FEA3E064014E6002811B
:104A88001A908578E0FEA3E07C002400FFEC3E90BD
:104A9800876BF0A3EFF0E49085D2F09085D2E0FF29
:104AA800C394044002811A9086BDA3E0FEC4335427
:104AB800E024C1F582E43486F58375F008EF120826
:104AC8009BE0FCA3E0FDEEC43354E024BFF582E490
:104AD8003486F58375F008EF12089BE0FEA3E0FF2B
:104AE800B50505EEB504012290876BE06E7003A34F
:104AF800E06F600281129086BDA3E0FF2473F58207
:104B0800E43487F583E0FD9085D2E02401FBE433AB
:104B1800FAED6B7001EA70028112EFC43354E0249D
:104B2800C3F582E43486F583C083C0829085D2E0E1
:104B3800FFD082D08375F00812089BE0FCA3E04CFC
:104B4800700281589086BDA3E0FEC43354E024C5AA
:104B5800F582E43486F58375F008EF12089BE0FCD3
:104B6800A3E04C70028158EEC43354E024C3F582AC
:104B7800E43486F583C083C0829085D2E0D082D0A9
:104B88008375F00812089BE0FEA3E064054E7005EB
:104B9800123789805F9086BDA3E075F020A424C3F6
:104BA800F9748635F0FA7B019085D2E075F008A497
:104BB80029F9EA35F0FA9086A5E4F0A304F0FF7E1F
:104BC800261222069086BDA3E075F020A424C5F91C
:104BD800748635F0FA7B019085D2E075F008A42937
:104BE800F9EA35F0FA9086A5E4F0A304F07F117E87
:104BF800261222069085D2E004FF9086BDA3E02409
:104C080073F582E43487F583EFF09085D2E004F001
:104C180041A39086BEE004F070069086BDE004F0E3
:104C2800412C9085B5E4F0A304F0FB7A8579B59022
:104C380086A5E48010E49085B5F0A3F07B017A8521
:104C480079B59086A5F0A304F07F607E2012220635
:104C5800227B007A0079209086A5E4F0A304F0FF77
:104C68007E26121C75E52164044520705E908553EC
:104C7800E0FEA3E0FFC39085CEE09FFF9085CDE0E6
:104C88009EFE12119DC3EF9428EE64809480400824
:104C98007524007525038039908553E0FEA3E0FF55
:104CA800C39085CEE09FFF9085CDE09EFE12119DBA
:104CB800C3EF9414EE648094804008752400752531
:104CC80002800E7524007525018006852024852123
:104CD8002590876FE065247004A3E0652560219026
:104CE80086B3E0FEA3E0FF64014E6027EF64104E38
:104CF80060219086B3E4F0A304F0E4F508F50922F6
:104D08009086B3E07004A3E064106007E49086B373
:104D1800F0A3F0227B007A00791A9086A5E4F0A32C
:104D280004F07F027E26121C75908553E0FEA3E0F6
:104D3800FF9085CDE0FCA3E0FDD39FEC9E4030E5DD
:104D48001B6401451A7007F51C751D018005E4F503
:104D58001CF51D9086BBE0651C7004A3E0651D6012
:104D680050908771E07004A3E0640160448035C30B
:104D7800ED9FEC9E503BE51B6402451A7007F51C3D
:104D8800751D018005E4F51CF51D9086BBE0651CCA
:104D98007004A3E0651D6019908771E07004A3E0BA
:104DA8006401600D908771E4F0A304F0E4F508F560
:104DB800092278D67C857D017BFF7A1379A97E004C
:104DC8007FC812052D9082B1E07002A3E07002C185
:104DD800D89082ADE06002C1D89082B1F0A3F09083
:104DE80082B7E0645A6002C1D8A3E064A56002C13A
:104DF800D89082BAE064827059A3E0FA3395E0F95A
:104E0800A3E0FFEAFEE9FDFC9085D212085E7B0173
:104E18007A8279BD9082B9E024FDFEE434FF908661
:104E2800A5F0A3CEF09085D2E0FCA3E0FDA3E0FEC0
:104E3800A3E0FF12220A9085D6745AF0A374A5F055
:104E4800A3744FF0A3744BF07B017A8579D67D0467
:104E5800D1D99082BAE064837076A3E0FA3395E002
:104E6800F9A3E0FFEAFEE9FDFC9085D212085E7B1B
:104E7800017A8579DD9082BDE0FF9086A5E4F0A3F4
:104E8800EFF09085D2E0FCA3E0FDA3E0FEA3E0FFF5
:104E9800121C799085D6745AF0A374A5F09082BD3F
:104EA800E0FD25E024049085D8F0A37483F0908277
:104EB800BBE09085DAF09082BCE09085DBF0A3ED52
:104EC800F07B017A8579D69085D8E02403FDD1D985
:104ED8002290869EEBF0A3EAF0A3E9F090869EE08C
:104EE800FBA3E0FAA3E04A4B6026ED6023AF051D63
:104EF800EF601D90869EE0FBA3E0FAA3E0F912059F
:104F080053FFF11990869FE475F00112066A80DD5F
:104F1800229082AFE0640160F89082AF7401F08F54
:104F280099229085D5EFF0908589745AF0A3740181
:104F3800F0E4A3F0A3741EF09085D5E0FD9085D829
:104F4800E4F0A3EDF0B41A0040030254A1904F5CC2
:104F5800F8282873024FAA024FB2024FF302502CCE
:104F680002505502507E02508C0250D402514D021C
:104F7800519502520E0252190252460252710252C1
:104F8800CF025307025343025392025392025392A1
:104F98000253920253920253920253920253920284
:104FA8005392E4908589F002533B9086B77401F0E0
:104FB800A3F0A37418F0E4A3F07B017A8679B79084
:104FC80086A51221FD7B017A8679B79086A5E4F043
:104FD800A304F07FA07E00121C759086B8E070E5EF
:104FE80090876304F0E4A3F00254A69086B7740295
:104FF800F0A3141221F39087637402F0A314121F14
:10500800D09085CDE0FEA3E0FF7C007D641205DF33
:105018009086B7EFF070026177E0241D1221EF123D
:105028001FD161779086B774051221EF751A007544
:105038001B017B007A00791A9086A5E4F0A304F09E
:105048007F027E26122206122F84E4613B9086B7E7
:1050580074061221EF751A00751B027B007A00791D
:105068001A9086A5E4F0A304F07F027E2612220699
:10507800122F84E4613B9086B774071221EF123730
:1050880089E4613B9086B774081221EFE51B64013F
:10509800451A7005122FA2802B0521E52170020503
:1050A80020D39403E5209400400675200075210361
:1050B8007B007A0079209086A5E4F0A304F0FF7EB7
:1050C8002612220691C5122C2DE4613B9086B774F6
:1050D800081221EFE51B6401451A703A90857304A4
:1050E800F0E4908525F0A3F09084F0F0A37402F02A
:1050F8009084F0E0FFA3E09084F4CFF0A3EFF07B7E
:10510800017A8479F09086A5E4F0A304F07F007E0C
:1051180026122206802CD11091C591C57B017A8573
:1051280079D89086A5E4F0A304F07F547E25121C5C
:10513800759085D8E07002A3E0700491C591C512FE
:105148002C2DE4613B9086B774081221EFE51B64AF
:1051580002451A7005122FA2802B0521E521700245
:105168000520D39403E5209400400675200075219E
:10517800037B007A0079209086A5E4F0A304F0FF71
:105188007E26122206B169122C2DE4613B9086B767
:1051980074081221EFE51B6402451A703A90857372
:1051A80004F0E4908525F0A3F09084F0F0A3740255
:1051B800F09084F0E0FFA3E09084F4CFF0A3EFF048
:1051C8007B017A8479F09086A5E4F0A304F07F004F
:1051D8007E26122206802CD110B169B1697B017A32
:1051E8008579D89086A5E4F0A304F07F547E251233
:1051F8001C759085D8E07002A3E07004B169B169AC
:10520800122C2DE4613B9086B774121221EFE461F1
:105218003B9086B774091221EF9085C8E4F0A30487
:10522800F0E4A3F0A3F07B017A8579C89086A5F015
:10523800A37402F07F037E26122206E4613B908667
:10524800B7740A1221EFE49085C8F0A3F0A3F0A385
:10525800F07B017A8579C89086A5F0A37402F07F67
:10526800037E26122206E4613B9086B77402F0A3FF
:10527800141221F3E4908763F0A3F07FE87E031211
:105288001FD59085CDE0FEA3E0FF7C007D6412056C
:10529800DF9086B7EFF0600DE0241D1221EF7FE864
:1052A8007E03121FD51221CD7FE87E03121FD590F1
:1052B80086B7740E1221EF7FA47E06121FD5E5254E
:1052C80024149086B7819C9086B774081221EFE564
:1052D80021152170021520C3E5219401E5209400D1
:1052E80050067520007521017B007A007920908690
:1052F800A5E4F0A304F0FF7E26122206E480349091
:1053080086B774081221EF0521E52170020520D324
:105318009403E520940040067520007521037B0066
:105328007A0079209086A5E4F0A304F0FF7E261287
:105338002206E4908763F0A3F081A69086B77402F2
:10534800F0A3141221F39087637402F0A3121FD004
:105358009085CDE0FEA3E0FF7C007D641205DF9020
:1053680086B7EFF06009E0241D1221EF121FD11259
:1053780021CD7FE87E03121FD59086B774281221AD
:10538800EF7FC47E09121FD581A67B017A877963D6
:105398009086A5E4F0A304F07F107E1112220690F7
:1053A8008763E06402704DA3E064017047908763EF
:1053B800F0A3F07B017A8579D69086A5F0A304F056
:1053C8007F00121C739085D5E0FF9085D7E02FFFF2
:1053D8009085D6E03400CF24F0CF34FFF0A3EFF06F
:1053E800D3E094209085D6E094004060E4F0A37464
:1053F80020F08058908763E0640260028197A3E000
:10540800640260028197908763F0A3F07B017A853C
:1054180079D69086A5F0A304F07F00121C739085BE
:10542800D5E0FFC39085D7E09FFF9085D6E0940034
:10543800CF2410CF3400F0A3EFF0C3E09410908590
:10544800D6E094005006E4F0A37410F07B017A854E
:1054580079D69086A5E4F0A304F07F007E2112227D
:10546800069085D6E0FEA3E0FF7C007D0A1205CDFC
:105478009085D6EEF0A3EFF07B017A8579D69086F9
:10548800A5E4F0A304F07F117E267D0012220A9085
:1054980086B774081221EF8005E4908589F07B01B6
:1054A8007A8579899086A5E4F0A37402F07F841246
:1054B80022049085717427F0A37410F022121C4BFB
:1054C80090878FE0FEA3E0FF7C007D0A1205CD9057
:1054D8008782E02FFF908781E03EFE90853AE02F9B
:1054E800FF908539E03EAB07FA9084FFE0FEA3E029
:1054F800FFC39BEE9A5004AA06AB079084F9E0FE1E
:10550800A3E0FFD39BEE9A4004AA06AB077C007D7C
:105518000AAF03AE021205DF90878FEEF0A3EFF01B
:10552800AE02AF037C007D0A1205DF908781ECF0A4
:10553800A3EDF07B017A87798F9086A5E4F0A30428
:10554800F07F027E211222067B017A87798190867C
:10555800A5E4F0A304F07F037E217D007C000222F5
:105568000A121C4B90878FE0FEA3E0FF7C007D0AA7
:105578001205CD908782E02FFF908781E03EFE9054
:105588008539E0FCA3E0FDC3EF9DFFEE9CAB07FA75
:105598009084FFE0FEA3E0FFC39BEE9A5004AA06A6
:1055A800AB079084F9E0FEA3E0FFD39BEE9A40049A
:1055B800AA06AB077C007D0AAF03AE021205DF9096
:1055C800878FEEF0A3EFF0AE02AF037C007D0A12E6
:1055D80005DF908781ECF0A3EDF07B017A87798F66
:1055E8009086A5E4F0A304F07F027E211222067BB8
:1055F800017A8779819086A5E4F0A304F07F037E81
:10560800217D007C0002220A7520007521037B00A1
:105618007A0079209086A5E4F0A304F0FF7E267D29
:10562800007C0002220A9086B97418F0E4A3F09076
:1056380082B3E07002A3E07002C1CE9082AEE06057
:1056480002C1CE9082B3F0A3F0908337E0645A7021
:1056580075A3E064A5706F7B017A8379379085D252
:1056680004F0A3EAF0A3E9F07D037C00D1CFE49035
:105678008337F0A3F09085D2E0FBA3E0FAA3E0F92A
:1056880090000312056CFF90833AE06F7038900029
:105698000412056CFF90833BE0B5072A7B017A85ED
:1056A80079CD9086A5E4F0A304F07F107E26121C25
:1056B800759085D2E0FBA3E0FAA3E0F9900002120E
:1056C800056CFF124F2A229085D5EBF0A3EAF0A3D0
:1056D800E9F0A3ECF0A3EDF0A374FFF0A3F0E4FD70
:1056E800FC9085D8E0FEA3E0D39DEE9C40379085E2
:1056F800D5E0FBA3E0FAA3E0F98D828C8312056C58
:10570800FF9085DAE06FFF9011A993FE9085DBE0AA
:105718006E9085DAF0EF9012A9939085DBF00DBDBD
:1057280000010C80BC9085DAE0FF9085D5E0FBA3F2
:10573800E0FAA3E0F98D828C83EF1205AB9085DB4C
:10574800E08D828C83A30205AB9087D77410F0A3F9
:105758007401F0FB7A8779D79086A5E4F0A304F06A
:105768007F087E207D007C0002220A7B017A8779EF
:105778007D9086A5E4F0A37402F07F7A7E20121C47
:10578800759085A3E0FCA3E0FDA3E0FEA3E0FF90F5
:10579800877DE0F8A3E0F9A3E0FAA3E0FBC31208D1
:1057A8002E601F9087767410F0A37403F07B017A43
:1057B8008779769086A5E4F0A304F07F0C7E20120A
:1057C80022062290877D12086A000000007B017A79
:1057D80087797D9086A5E4F0A37402F07F7A7E2015
:1057E8007D007C0002220A9085D2EEF0A3EFF0E45F
:1057F800A3F0EF4E70127B017A8679BF9086A5F0F0
:10580800A37410F07F21803A9085D2E07004A3E061
:10581800640170127B017A8679DF9086A5F0A37403
:1058280010F07F33801C9085D2E07004A3E06402FE
:1058380070157B017A8679FF9086A5F0A37410F025
:105848007F457E26121C75E49085D4F09085D2A3FE
:10585800E0FFC43354E024BFF582E43486F583C006
:1058680083C0829085D4E0FED082D08375F0081280
:10587800089BE0FCA3E02464FDEC3464FCEE25E026
:1058880025E024EDF582E43487F583ECF0A3EDF010
:10589800EFC43354E024C1F582E43486F583C08331
:1058A800C0829085D4E0FFD082D08375F0081208BA
:1058B8009BE0FCA3E02464FDEC3464FCEF25E025C8
:1058C800E024EFF582E43487F583ECF0A3EDF09063
:1058D80085D4E004F0E06404600201547B017A8717
:1058E80079ED9086A5E4F0A37408F07F487E201235
:1058F80022069085D2E0FEA3E0FF7C007D0E120513
:10590800CD74372FF974873EFA7B019086A5E4F0B1
:10591800A37407F07F407E207D0002220A9085D282
:10592800EEF0A3EFF0A3ECF0A3EDF09085D4E0FE49
:10593800A3E07803C333CE33CED8F9FDAC06908507
:10594800D2E0FEA3E07805C333CE33CED8F924BF26
:10595800F58274863EF583E5822DF582E5833CF574
:1059680083E0FAA3E0FBEAFF908791E4F0A3EFF06D
:10597800AF03A3E4F0A3EFF09085D2E0FEA3E078B4
:1059880005C333CE33CED8F924C1F58274863EF5EB
:1059980083E5822DF582E5833CF583E0FCA3E0FDF9
:1059A800EC2464FEE433908795F0A3CEF0ED2464F4
:1059B800FEE433A3F0A3CEF07B017A877991908639
:1059C800A5E4F0A304F07F507E201222067B017A22
:1059D8008779939086A5E4F0A304F07F527E201285
:1059E80022067B017A8779959086A5E4F0A3740254
:1059F800F07F547E201222069085D4E0FEA3E07842
:105A080003C333CE33CED8F9FDAC069085D2E0FE81
:105A1800A3E07805C333CE33CED8F9FF24C3F5828B
:105A280074863EF583E5822DF582E5833CF583E0B7
:105A3800FBA3E09087C1CBF0A3EBF074C52FF582F0
:105A480074863EF583E5822DF582E5833CF583E097
:105A5800FEA3E0FF7C007D0A1205DF9087FDEEF0D3
:105A6800A3EFF07B017A8779C19086A5E4F0A304BF
:105A7800F07F597E201222067B017A8779FD908675
:105A8800A5E4F0A304F07F587E207D007C0002226C
:105A98000A9085D2EEF0A3EFF0A3ECF0A3EDF0E4CA
:105AA800A3F07B017A8779919086A5F0A304F07F13
:105AB800507E20121C757B017A8779939086A5E425
:105AC800F0A304F07F527E20121C75908792E0FEAE
:105AD800908794E02400FF908793E03E90878DF0B4
:105AE800FCA3EFF0FD9085D4E0FEA3E07803C33378
:105AF800CE33CED8F9FBAA069085D2E0FEA3E07893
:105B080005C333CE33CED8F924B7F58274863EF573
:105B180083E5822BF582E5833AF583E0FEA3E0D3A3
:105B28009DEE9C40309085D5E094019085D4E0941A
:105B38000040229087767410F0A37404F07B017AF9
:105B48008779769086A5E4F0A304F07F0C7E201276
:105B580022067F01229085D4E0FCA3E0FDAE047804
:105B680003C333CE33CED8F9FBAA069085D2E0FE24
:105B7800A3E07805C333CE33CED8F924C1F58274B7
:105B8800863EF583E5822BF582E5833AF583E0FED0
:105B9800A3E0FFD390878EE09F90878DE09E4064BE
